{
	"contracts/Bookstore.sol": {
		"Bookstore": {
			"abi": [
				{
					"inputs": [],
					"stateMutability": "nonpayable",
					"type": "constructor"
				},
				{
					"inputs": [
						{
							"internalType": "string",
							"name": "_title",
							"type": "string"
						},
						{
							"internalType": "string",
							"name": "_author",
							"type": "string"
						},
						{
							"internalType": "bool",
							"name": "_isPremium",
							"type": "bool"
						},
						{
							"internalType": "uint256",
							"name": "_price",
							"type": "uint256"
						}
					],
					"name": "addBook",
					"outputs": [],
					"stateMutability": "nonpayable",
					"type": "function"
				},
				{
					"inputs": [
						{
							"internalType": "uint256",
							"name": "",
							"type": "uint256"
						}
					],
					"name": "books",
					"outputs": [
						{
							"internalType": "uint256",
							"name": "bookId",
							"type": "uint256"
						},
						{
							"internalType": "string",
							"name": "title",
							"type": "string"
						},
						{
							"internalType": "string",
							"name": "author",
							"type": "string"
						},
						{
							"internalType": "bool",
							"name": "isPremium",
							"type": "bool"
						},
						{
							"internalType": "uint256",
							"name": "price",
							"type": "uint256"
						}
					],
					"stateMutability": "view",
					"type": "function"
				},
				{
					"inputs": [
						{
							"internalType": "uint256",
							"name": "_bookId",
							"type": "uint256"
						}
					],
					"name": "getBook",
					"outputs": [
						{
							"internalType": "string",
							"name": "title",
							"type": "string"
						},
						{
							"internalType": "string",
							"name": "author",
							"type": "string"
						}
					],
					"stateMutability": "view",
					"type": "function"
				},
				{
					"inputs": [],
					"name": "nextBookId",
					"outputs": [
						{
							"internalType": "uint256",
							"name": "",
							"type": "uint256"
						}
					],
					"stateMutability": "view",
					"type": "function"
				}
			],
			"devdoc": {
				"kind": "dev",
				"methods": {},
				"version": 1
			},
			"evm": {
				"assembly": "    /* \"contracts/Bookstore.sol\":58:1074  contract Bookstore {... */\n  mstore(0x40, 0x80)\n    /* \"contracts/Bookstore.sol\":294:433  constructor() {... */\n  callvalue\n  dup1\n  iszero\n  tag_1\n  jumpi\n  0x00\n  dup1\n  revert\ntag_1:\n  pop\n    /* \"contracts/Bookstore.sol\":325:369  Book(1, \"Free Book 1\", \"Author 1\", false, 0) */\n  mload(0x40)\n  dup1\n  0xa0\n  add\n  0x40\n  mstore\n  dup1\n    /* \"contracts/Bookstore.sol\":330:331  1 */\n  0x01\n    /* \"contracts/Bookstore.sol\":325:369  Book(1, \"Free Book 1\", \"Author 1\", false, 0) */\n  dup2\n  mstore\n  0x20\n  add\n  mload(0x40)\n  dup1\n  0x40\n  add\n  0x40\n  mstore\n  dup1\n  0x0b\n  dup2\n  mstore\n  0x20\n  add\n  0x4672656520426f6f6b2031000000000000000000000000000000000000000000\n  dup2\n  mstore\n  pop\n  dup2\n  mstore\n  0x20\n  add\n  mload(0x40)\n  dup1\n  0x40\n  add\n  0x40\n  mstore\n  dup1\n  0x08\n  dup2\n  mstore\n  0x20\n  add\n  0x417574686f722031000000000000000000000000000000000000000000000000\n  dup2\n  mstore\n  pop\n  dup2\n  mstore\n  0x20\n  add\n    /* \"contracts/Bookstore.sol\":360:365  false */\n  0x00\n    /* \"contracts/Bookstore.sol\":325:369  Book(1, \"Free Book 1\", \"Author 1\", false, 0) */\n  iszero\n  iszero\n  dup2\n  mstore\n  0x20\n  add\n    /* \"contracts/Bookstore.sol\":367:368  0 */\n  0x00\n    /* \"contracts/Bookstore.sol\":325:369  Book(1, \"Free Book 1\", \"Author 1\", false, 0) */\n  dup2\n  mstore\n  pop\n    /* \"contracts/Bookstore.sol\":314:319  books */\n  0x00\n    /* \"contracts/Bookstore.sol\":314:322  books[1] */\n  dup1\n    /* \"contracts/Bookstore.sol\":320:321  1 */\n  0x01\n    /* \"contracts/Bookstore.sol\":314:322  books[1] */\n  dup2\n  mstore\n  0x20\n  add\n  swap1\n  dup2\n  mstore\n  0x20\n  add\n  0x00\n  keccak256\n    /* \"contracts/Bookstore.sol\":314:369  books[1] = Book(1, \"Free Book 1\", \"Author 1\", false, 0) */\n  0x00\n  dup3\n  add\n  mload\n  dup2\n  0x00\n  add\n  sstore\n  0x20\n  dup3\n  add\n  mload\n  dup2\n  0x01\n  add\n  swap1\n  dup2\n  tag_4\n  swap2\n  swap1\n  tag_5\n  jump\t// in\ntag_4:\n  pop\n  0x40\n  dup3\n  add\n  mload\n  dup2\n  0x02\n  add\n  swap1\n  dup2\n  tag_6\n  swap2\n  swap1\n  tag_5\n  jump\t// in\ntag_6:\n  pop\n  0x60\n  dup3\n  add\n  mload\n  dup2\n  0x03\n  add\n  exp(0x0100, 0x00)\n  dup2\n  sload\n  dup2\n  0xff\n  mul\n  not\n  and\n  swap1\n  dup4\n  iszero\n  iszero\n  mul\n  or\n  swap1\n  sstore\n  pop\n  0x80\n  dup3\n  add\n  mload\n  dup2\n  0x04\n  add\n  sstore\n  swap1\n  pop\n  pop\n    /* \"contracts/Bookstore.sol\":386:430  Book(2, \"Free Book 2\", \"Author 2\", false, 0) */\n  mload(0x40)\n  dup1\n  0xa0\n  add\n  0x40\n  mstore\n  dup1\n    /* \"contracts/Bookstore.sol\":391:392  2 */\n  0x02\n    /* \"contracts/Bookstore.sol\":386:430  Book(2, \"Free Book 2\", \"Author 2\", false, 0) */\n  dup2\n  mstore\n  0x20\n  add\n  mload(0x40)\n  dup1\n  0x40\n  add\n  0x40\n  mstore\n  dup1\n  0x0b\n  dup2\n  mstore\n  0x20\n  add\n  0x4672656520426f6f6b2032000000000000000000000000000000000000000000\n  dup2\n  mstore\n  pop\n  dup2\n  mstore\n  0x20\n  add\n  mload(0x40)\n  dup1\n  0x40\n  add\n  0x40\n  mstore\n  dup1\n  0x08\n  dup2\n  mstore\n  0x20\n  add\n  0x417574686f722032000000000000000000000000000000000000000000000000\n  dup2\n  mstore\n  pop\n  dup2\n  mstore\n  0x20\n  add\n    /* \"contracts/Bookstore.sol\":421:426  false */\n  0x00\n    /* \"contracts/Bookstore.sol\":386:430  Book(2, \"Free Book 2\", \"Author 2\", false, 0) */\n  iszero\n  iszero\n  dup2\n  mstore\n  0x20\n  add\n    /* \"contracts/Bookstore.sol\":428:429  0 */\n  0x00\n    /* \"contracts/Bookstore.sol\":386:430  Book(2, \"Free Book 2\", \"Author 2\", false, 0) */\n  dup2\n  mstore\n  pop\n    /* \"contracts/Bookstore.sol\":375:380  books */\n  0x00\n    /* \"contracts/Bookstore.sol\":375:383  books[2] */\n  dup1\n    /* \"contracts/Bookstore.sol\":381:382  2 */\n  0x02\n    /* \"contracts/Bookstore.sol\":375:383  books[2] */\n  dup2\n  mstore\n  0x20\n  add\n  swap1\n  dup2\n  mstore\n  0x20\n  add\n  0x00\n  keccak256\n    /* \"contracts/Bookstore.sol\":375:430  books[2] = Book(2, \"Free Book 2\", \"Author 2\", false, 0) */\n  0x00\n  dup3\n  add\n  mload\n  dup2\n  0x00\n  add\n  sstore\n  0x20\n  dup3\n  add\n  mload\n  dup2\n  0x01\n  add\n  swap1\n  dup2\n  tag_7\n  swap2\n  swap1\n  tag_5\n  jump\t// in\ntag_7:\n  pop\n  0x40\n  dup3\n  add\n  mload\n  dup2\n  0x02\n  add\n  swap1\n  dup2\n  tag_8\n  swap2\n  swap1\n  tag_5\n  jump\t// in\ntag_8:\n  pop\n  0x60\n  dup3\n  add\n  mload\n  dup2\n  0x03\n  add\n  exp(0x0100, 0x00)\n  dup2\n  sload\n  dup2\n  0xff\n  mul\n  not\n  and\n  swap1\n  dup4\n  iszero\n  iszero\n  mul\n  or\n  swap1\n  sstore\n  pop\n  0x80\n  dup3\n  add\n  mload\n  dup2\n  0x04\n  add\n  sstore\n  swap1\n  pop\n  pop\n    /* \"contracts/Bookstore.sol\":58:1074  contract Bookstore {... */\n  jump(tag_9)\n    /* \"#utility.yul\":7:106   */\ntag_10:\n    /* \"#utility.yul\":59:65   */\n  0x00\n    /* \"#utility.yul\":93:98   */\n  dup2\n    /* \"#utility.yul\":87:99   */\n  mload\n    /* \"#utility.yul\":77:99   */\n  swap1\n  pop\n    /* \"#utility.yul\":7:106   */\n  swap2\n  swap1\n  pop\n  jump\t// out\n    /* \"#utility.yul\":112:292   */\ntag_11:\n    /* \"#utility.yul\":160:237   */\n  0x4e487b7100000000000000000000000000000000000000000000000000000000\n    /* \"#utility.yul\":157:158   */\n  0x00\n    /* \"#utility.yul\":150:238   */\n  mstore\n    /* \"#utility.yul\":257:261   */\n  0x41\n    /* \"#utility.yul\":254:255   */\n  0x04\n    /* \"#utility.yul\":247:262   */\n  mstore\n    /* \"#utility.yul\":281:285   */\n  0x24\n    /* \"#utility.yul\":278:279   */\n  0x00\n    /* \"#utility.yul\":271:286   */\n  revert\n    /* \"#utility.yul\":298:478   */\ntag_12:\n    /* \"#utility.yul\":346:423   */\n  0x4e487b7100000000000000000000000000000000000000000000000000000000\n    /* \"#utility.yul\":343:344   */\n  0x00\n    /* \"#utility.yul\":336:424   */\n  mstore\n    /* \"#utility.yul\":443:447   */\n  0x22\n    /* \"#utility.yul\":440:441   */\n  0x04\n    /* \"#utility.yul\":433:448   */\n  mstore\n    /* \"#utility.yul\":467:471   */\n  0x24\n    /* \"#utility.yul\":464:465   */\n  0x00\n    /* \"#utility.yul\":457:472   */\n  revert\n    /* \"#utility.yul\":484:804   */\ntag_13:\n    /* \"#utility.yul\":528:534   */\n  0x00\n    /* \"#utility.yul\":565:566   */\n  0x02\n    /* \"#utility.yul\":559:563   */\n  dup3\n    /* \"#utility.yul\":555:567   */\n  div\n    /* \"#utility.yul\":545:567   */\n  swap1\n  pop\n    /* \"#utility.yul\":612:613   */\n  0x01\n    /* \"#utility.yul\":606:610   */\n  dup3\n    /* \"#utility.yul\":602:614   */\n  and\n    /* \"#utility.yul\":633:651   */\n  dup1\n    /* \"#utility.yul\":623:704   */\n  tag_35\n  jumpi\n    /* \"#utility.yul\":689:693   */\n  0x7f\n    /* \"#utility.yul\":681:687   */\n  dup3\n    /* \"#utility.yul\":677:694   */\n  and\n    /* \"#utility.yul\":667:694   */\n  swap2\n  pop\n    /* \"#utility.yul\":623:704   */\ntag_35:\n    /* \"#utility.yul\":751:753   */\n  0x20\n    /* \"#utility.yul\":743:749   */\n  dup3\n    /* \"#utility.yul\":740:754   */\n  lt\n    /* \"#utility.yul\":720:738   */\n  dup2\n    /* \"#utility.yul\":717:755   */\n  sub\n    /* \"#utility.yul\":714:798   */\n  tag_36\n  jumpi\n    /* \"#utility.yul\":770:788   */\n  tag_37\n  tag_12\n  jump\t// in\ntag_37:\n    /* \"#utility.yul\":714:798   */\ntag_36:\n    /* \"#utility.yul\":535:804   */\n  pop\n    /* \"#utility.yul\":484:804   */\n  swap2\n  swap1\n  pop\n  jump\t// out\n    /* \"#utility.yul\":810:951   */\ntag_14:\n    /* \"#utility.yul\":859:863   */\n  0x00\n    /* \"#utility.yul\":882:885   */\n  dup2\n    /* \"#utility.yul\":874:885   */\n  swap1\n  pop\n    /* \"#utility.yul\":905:908   */\n  dup2\n    /* \"#utility.yul\":902:903   */\n  0x00\n    /* \"#utility.yul\":895:909   */\n  mstore\n    /* \"#utility.yul\":939:943   */\n  0x20\n    /* \"#utility.yul\":936:937   */\n  0x00\n    /* \"#utility.yul\":926:944   */\n  keccak256\n    /* \"#utility.yul\":918:944   */\n  swap1\n  pop\n    /* \"#utility.yul\":810:951   */\n  swap2\n  swap1\n  pop\n  jump\t// out\n    /* \"#utility.yul\":957:1050   */\ntag_15:\n    /* \"#utility.yul\":994:1000   */\n  0x00\n    /* \"#utility.yul\":1041:1043   */\n  0x20\n    /* \"#utility.yul\":1036:1038   */\n  0x1f\n    /* \"#utility.yul\":1029:1034   */\n  dup4\n    /* \"#utility.yul\":1025:1039   */\n  add\n    /* \"#utility.yul\":1021:1044   */\n  div\n    /* \"#utility.yul\":1011:1044   */\n  swap1\n  pop\n    /* \"#utility.yul\":957:1050   */\n  swap2\n  swap1\n  pop\n  jump\t// out\n    /* \"#utility.yul\":1056:1163   */\ntag_16:\n    /* \"#utility.yul\":1100:1108   */\n  0x00\n    /* \"#utility.yul\":1150:1155   */\n  dup3\n    /* \"#utility.yul\":1144:1148   */\n  dup3\n    /* \"#utility.yul\":1140:1156   */\n  shl\n    /* \"#utility.yul\":1119:1156   */\n  swap1\n  pop\n    /* \"#utility.yul\":1056:1163   */\n  swap3\n  swap2\n  pop\n  pop\n  jump\t// out\n    /* \"#utility.yul\":1169:1562   */\ntag_17:\n    /* \"#utility.yul\":1238:1244   */\n  0x00\n    /* \"#utility.yul\":1288:1289   */\n  0x08\n    /* \"#utility.yul\":1276:1286   */\n  dup4\n    /* \"#utility.yul\":1272:1290   */\n  mul\n    /* \"#utility.yul\":1311:1408   */\n  tag_42\n    /* \"#utility.yul\":1341:1407   */\n  0xffffffffffffffffffffffffffffffffffffffffffffffffffffffffffffffff\n    /* \"#utility.yul\":1330:1339   */\n  dup3\n    /* \"#utility.yul\":1311:1408   */\n  tag_16\n  jump\t// in\ntag_42:\n    /* \"#utility.yul\":1429:1468   */\n  tag_43\n    /* \"#utility.yul\":1459:1467   */\n  dup7\n    /* \"#utility.yul\":1448:1457   */\n  dup4\n    /* \"#utility.yul\":1429:1468   */\n  tag_16\n  jump\t// in\ntag_43:\n    /* \"#utility.yul\":1417:1468   */\n  swap6\n  pop\n    /* \"#utility.yul\":1501:1505   */\n  dup1\n    /* \"#utility.yul\":1497:1506   */\n  not\n    /* \"#utility.yul\":1490:1495   */\n  dup5\n    /* \"#utility.yul\":1486:1507   */\n  and\n    /* \"#utility.yul\":1477:1507   */\n  swap4\n  pop\n    /* \"#utility.yul\":1550:1554   */\n  dup1\n    /* \"#utility.yul\":1540:1548   */\n  dup7\n    /* \"#utility.yul\":1536:1555   */\n  and\n    /* \"#utility.yul\":1529:1534   */\n  dup5\n    /* \"#utility.yul\":1526:1556   */\n  or\n    /* \"#utility.yul\":1516:1556   */\n  swap3\n  pop\n    /* \"#utility.yul\":1245:1562   */\n  pop\n  pop\n    /* \"#utility.yul\":1169:1562   */\n  swap4\n  swap3\n  pop\n  pop\n  pop\n  jump\t// out\n    /* \"#utility.yul\":1568:1645   */\ntag_18:\n    /* \"#utility.yul\":1605:1612   */\n  0x00\n    /* \"#utility.yul\":1634:1639   */\n  dup2\n    /* \"#utility.yul\":1623:1639   */\n  swap1\n  pop\n    /* \"#utility.yul\":1568:1645   */\n  swap2\n  swap1\n  pop\n  jump\t// out\n    /* \"#utility.yul\":1651:1711   */\ntag_19:\n    /* \"#utility.yul\":1679:1682   */\n  0x00\n    /* \"#utility.yul\":1700:1705   */\n  dup2\n    /* \"#utility.yul\":1693:1705   */\n  swap1\n  pop\n    /* \"#utility.yul\":1651:1711   */\n  swap2\n  swap1\n  pop\n  jump\t// out\n    /* \"#utility.yul\":1717:1859   */\ntag_20:\n    /* \"#utility.yul\":1767:1776   */\n  0x00\n    /* \"#utility.yul\":1800:1853   */\n  tag_47\n    /* \"#utility.yul\":1818:1852   */\n  tag_48\n    /* \"#utility.yul\":1827:1851   */\n  tag_49\n    /* \"#utility.yul\":1845:1850   */\n  dup5\n    /* \"#utility.yul\":1827:1851   */\n  tag_18\n  jump\t// in\ntag_49:\n    /* \"#utility.yul\":1818:1852   */\n  tag_19\n  jump\t// in\ntag_48:\n    /* \"#utility.yul\":1800:1853   */\n  tag_18\n  jump\t// in\ntag_47:\n    /* \"#utility.yul\":1787:1853   */\n  swap1\n  pop\n    /* \"#utility.yul\":1717:1859   */\n  swap2\n  swap1\n  pop\n  jump\t// out\n    /* \"#utility.yul\":1865:1940   */\ntag_21:\n    /* \"#utility.yul\":1908:1911   */\n  0x00\n    /* \"#utility.yul\":1929:1934   */\n  dup2\n    /* \"#utility.yul\":1922:1934   */\n  swap1\n  pop\n    /* \"#utility.yul\":1865:1940   */\n  swap2\n  swap1\n  pop\n  jump\t// out\n    /* \"#utility.yul\":1946:2215   */\ntag_22:\n    /* \"#utility.yul\":2056:2095   */\n  tag_52\n    /* \"#utility.yul\":2087:2094   */\n  dup4\n    /* \"#utility.yul\":2056:2095   */\n  tag_20\n  jump\t// in\ntag_52:\n    /* \"#utility.yul\":2117:2208   */\n  tag_53\n    /* \"#utility.yul\":2166:2207   */\n  tag_54\n    /* \"#utility.yul\":2190:2206   */\n  dup3\n    /* \"#utility.yul\":2166:2207   */\n  tag_21\n  jump\t// in\ntag_54:\n    /* \"#utility.yul\":2158:2164   */\n  dup5\n    /* \"#utility.yul\":2151:2155   */\n  dup5\n    /* \"#utility.yul\":2145:2156   */\n  sload\n    /* \"#utility.yul\":2117:2208   */\n  tag_17\n  jump\t// in\ntag_53:\n    /* \"#utility.yul\":2111:2115   */\n  dup3\n    /* \"#utility.yul\":2104:2209   */\n  sstore\n    /* \"#utility.yul\":2022:2215   */\n  pop\n    /* \"#utility.yul\":1946:2215   */\n  pop\n  pop\n  pop\n  jump\t// out\n    /* \"#utility.yul\":2221:2294   */\ntag_23:\n    /* \"#utility.yul\":2266:2269   */\n  0x00\n    /* \"#utility.yul\":2221:2294   */\n  swap1\n  jump\t// out\n    /* \"#utility.yul\":2300:2489   */\ntag_24:\n    /* \"#utility.yul\":2377:2409   */\n  tag_57\n  tag_23\n  jump\t// in\ntag_57:\n    /* \"#utility.yul\":2418:2483   */\n  tag_58\n    /* \"#utility.yul\":2476:2482   */\n  dup2\n    /* \"#utility.yul\":2468:2474   */\n  dup5\n    /* \"#utility.yul\":2462:2466   */\n  dup5\n    /* \"#utility.yul\":2418:2483   */\n  tag_22\n  jump\t// in\ntag_58:\n    /* \"#utility.yul\":2353:2489   */\n  pop\n    /* \"#utility.yul\":2300:2489   */\n  pop\n  pop\n  jump\t// out\n    /* \"#utility.yul\":2495:2681   */\ntag_25:\n    /* \"#utility.yul\":2555:2675   */\ntag_60:\n    /* \"#utility.yul\":2572:2575   */\n  dup2\n    /* \"#utility.yul\":2565:2570   */\n  dup2\n    /* \"#utility.yul\":2562:2576   */\n  lt\n    /* \"#utility.yul\":2555:2675   */\n  iszero\n  tag_62\n  jumpi\n    /* \"#utility.yul\":2626:2665   */\n  tag_63\n    /* \"#utility.yul\":2663:2664   */\n  0x00\n    /* \"#utility.yul\":2656:2661   */\n  dup3\n    /* \"#utility.yul\":2626:2665   */\n  tag_24\n  jump\t// in\ntag_63:\n    /* \"#utility.yul\":2599:2600   */\n  0x01\n    /* \"#utility.yul\":2592:2597   */\n  dup2\n    /* \"#utility.yul\":2588:2601   */\n  add\n    /* \"#utility.yul\":2579:2601   */\n  swap1\n  pop\n    /* \"#utility.yul\":2555:2675   */\n  jump(tag_60)\ntag_62:\n    /* \"#utility.yul\":2495:2681   */\n  pop\n  pop\n  jump\t// out\n    /* \"#utility.yul\":2687:3230   */\ntag_26:\n    /* \"#utility.yul\":2788:2790   */\n  0x1f\n    /* \"#utility.yul\":2783:2786   */\n  dup3\n    /* \"#utility.yul\":2780:2791   */\n  gt\n    /* \"#utility.yul\":2777:3223   */\n  iszero\n  tag_65\n  jumpi\n    /* \"#utility.yul\":2822:2860   */\n  tag_66\n    /* \"#utility.yul\":2854:2859   */\n  dup2\n    /* \"#utility.yul\":2822:2860   */\n  tag_14\n  jump\t// in\ntag_66:\n    /* \"#utility.yul\":2906:2935   */\n  tag_67\n    /* \"#utility.yul\":2924:2934   */\n  dup5\n    /* \"#utility.yul\":2906:2935   */\n  tag_15\n  jump\t// in\ntag_67:\n    /* \"#utility.yul\":2896:2904   */\n  dup2\n    /* \"#utility.yul\":2892:2936   */\n  add\n    /* \"#utility.yul\":3089:3091   */\n  0x20\n    /* \"#utility.yul\":3077:3087   */\n  dup6\n    /* \"#utility.yul\":3074:3092   */\n  lt\n    /* \"#utility.yul\":3071:3120   */\n  iszero\n  tag_68\n  jumpi\n    /* \"#utility.yul\":3110:3118   */\n  dup2\n    /* \"#utility.yul\":3095:3118   */\n  swap1\n  pop\n    /* \"#utility.yul\":3071:3120   */\ntag_68:\n    /* \"#utility.yul\":3133:3213   */\n  tag_69\n    /* \"#utility.yul\":3189:3211   */\n  tag_70\n    /* \"#utility.yul\":3207:3210   */\n  dup6\n    /* \"#utility.yul\":3189:3211   */\n  tag_15\n  jump\t// in\ntag_70:\n    /* \"#utility.yul\":3179:3187   */\n  dup4\n    /* \"#utility.yul\":3175:3212   */\n  add\n    /* \"#utility.yul\":3162:3173   */\n  dup3\n    /* \"#utility.yul\":3133:3213   */\n  tag_25\n  jump\t// in\ntag_69:\n    /* \"#utility.yul\":2792:3223   */\n  pop\n  pop\n    /* \"#utility.yul\":2777:3223   */\ntag_65:\n    /* \"#utility.yul\":2687:3230   */\n  pop\n  pop\n  pop\n  jump\t// out\n    /* \"#utility.yul\":3236:3353   */\ntag_27:\n    /* \"#utility.yul\":3290:3298   */\n  0x00\n    /* \"#utility.yul\":3340:3345   */\n  dup3\n    /* \"#utility.yul\":3334:3338   */\n  dup3\n    /* \"#utility.yul\":3330:3346   */\n  shr\n    /* \"#utility.yul\":3309:3346   */\n  swap1\n  pop\n    /* \"#utility.yul\":3236:3353   */\n  swap3\n  swap2\n  pop\n  pop\n  jump\t// out\n    /* \"#utility.yul\":3359:3528   */\ntag_28:\n    /* \"#utility.yul\":3403:3409   */\n  0x00\n    /* \"#utility.yul\":3436:3487   */\n  tag_73\n    /* \"#utility.yul\":3484:3485   */\n  0x00\n    /* \"#utility.yul\":3480:3486   */\n  not\n    /* \"#utility.yul\":3472:3477   */\n  dup5\n    /* \"#utility.yul\":3469:3470   */\n  0x08\n    /* \"#utility.yul\":3465:3478   */\n  mul\n    /* \"#utility.yul\":3436:3487   */\n  tag_27\n  jump\t// in\ntag_73:\n    /* \"#utility.yul\":3432:3488   */\n  not\n    /* \"#utility.yul\":3517:3521   */\n  dup1\n    /* \"#utility.yul\":3511:3515   */\n  dup4\n    /* \"#utility.yul\":3507:3522   */\n  and\n    /* \"#utility.yul\":3497:3522   */\n  swap2\n  pop\n    /* \"#utility.yul\":3410:3528   */\n  pop\n    /* \"#utility.yul\":3359:3528   */\n  swap3\n  swap2\n  pop\n  pop\n  jump\t// out\n    /* \"#utility.yul\":3533:3828   */\ntag_29:\n    /* \"#utility.yul\":3609:3613   */\n  0x00\n    /* \"#utility.yul\":3755:3784   */\n  tag_75\n    /* \"#utility.yul\":3780:3783   */\n  dup4\n    /* \"#utility.yul\":3774:3778   */\n  dup4\n    /* \"#utility.yul\":3755:3784   */\n  tag_28\n  jump\t// in\ntag_75:\n    /* \"#utility.yul\":3747:3784   */\n  swap2\n  pop\n    /* \"#utility.yul\":3817:3820   */\n  dup3\n    /* \"#utility.yul\":3814:3815   */\n  0x02\n    /* \"#utility.yul\":3810:3821   */\n  mul\n    /* \"#utility.yul\":3804:3808   */\n  dup3\n    /* \"#utility.yul\":3801:3822   */\n  or\n    /* \"#utility.yul\":3793:3822   */\n  swap1\n  pop\n    /* \"#utility.yul\":3533:3828   */\n  swap3\n  swap2\n  pop\n  pop\n  jump\t// out\n    /* \"#utility.yul\":3833:5228   */\ntag_5:\n    /* \"#utility.yul\":3950:3987   */\n  tag_77\n    /* \"#utility.yul\":3983:3986   */\n  dup3\n    /* \"#utility.yul\":3950:3987   */\n  tag_10\n  jump\t// in\ntag_77:\n    /* \"#utility.yul\":4052:4070   */\n  0xffffffffffffffff\n    /* \"#utility.yul\":4044:4050   */\n  dup2\n    /* \"#utility.yul\":4041:4071   */\n  gt\n    /* \"#utility.yul\":4038:4094   */\n  iszero\n  tag_78\n  jumpi\n    /* \"#utility.yul\":4074:4092   */\n  tag_79\n  tag_11\n  jump\t// in\ntag_79:\n    /* \"#utility.yul\":4038:4094   */\ntag_78:\n    /* \"#utility.yul\":4118:4156   */\n  tag_80\n    /* \"#utility.yul\":4150:4154   */\n  dup3\n    /* \"#utility.yul\":4144:4155   */\n  sload\n    /* \"#utility.yul\":4118:4156   */\n  tag_13\n  jump\t// in\ntag_80:\n    /* \"#utility.yul\":4203:4270   */\n  tag_81\n    /* \"#utility.yul\":4263:4269   */\n  dup3\n    /* \"#utility.yul\":4255:4261   */\n  dup3\n    /* \"#utility.yul\":4249:4253   */\n  dup6\n    /* \"#utility.yul\":4203:4270   */\n  tag_26\n  jump\t// in\ntag_81:\n    /* \"#utility.yul\":4297:4298   */\n  0x00\n    /* \"#utility.yul\":4321:4325   */\n  0x20\n    /* \"#utility.yul\":4308:4325   */\n  swap1\n  pop\n    /* \"#utility.yul\":4353:4355   */\n  0x1f\n    /* \"#utility.yul\":4345:4351   */\n  dup4\n    /* \"#utility.yul\":4342:4356   */\n  gt\n    /* \"#utility.yul\":4370:4371   */\n  0x01\n    /* \"#utility.yul\":4365:4983   */\n  dup2\n  eq\n  tag_83\n  jumpi\n    /* \"#utility.yul\":5027:5028   */\n  0x00\n    /* \"#utility.yul\":5044:5050   */\n  dup5\n    /* \"#utility.yul\":5041:5118   */\n  iszero\n  tag_84\n  jumpi\n    /* \"#utility.yul\":5093:5102   */\n  dup3\n    /* \"#utility.yul\":5088:5091   */\n  dup8\n    /* \"#utility.yul\":5084:5103   */\n  add\n    /* \"#utility.yul\":5078:5104   */\n  mload\n    /* \"#utility.yul\":5069:5104   */\n  swap1\n  pop\n    /* \"#utility.yul\":5041:5118   */\ntag_84:\n    /* \"#utility.yul\":5144:5211   */\n  tag_85\n    /* \"#utility.yul\":5204:5210   */\n  dup6\n    /* \"#utility.yul\":5197:5202   */\n  dup3\n    /* \"#utility.yul\":5144:5211   */\n  tag_29\n  jump\t// in\ntag_85:\n    /* \"#utility.yul\":5138:5142   */\n  dup7\n    /* \"#utility.yul\":5131:5212   */\n  sstore\n    /* \"#utility.yul\":5000:5222   */\n  pop\n    /* \"#utility.yul\":4335:5222   */\n  jump(tag_82)\n    /* \"#utility.yul\":4365:4983   */\ntag_83:\n    /* \"#utility.yul\":4417:4421   */\n  0x1f\n    /* \"#utility.yul\":4413:4422   */\n  not\n    /* \"#utility.yul\":4405:4411   */\n  dup5\n    /* \"#utility.yul\":4401:4423   */\n  and\n    /* \"#utility.yul\":4451:4488   */\n  tag_86\n    /* \"#utility.yul\":4483:4487   */\n  dup7\n    /* \"#utility.yul\":4451:4488   */\n  tag_14\n  jump\t// in\ntag_86:\n    /* \"#utility.yul\":4510:4511   */\n  0x00\n    /* \"#utility.yul\":4524:4732   */\ntag_87:\n    /* \"#utility.yul\":4538:4545   */\n  dup3\n    /* \"#utility.yul\":4535:4536   */\n  dup2\n    /* \"#utility.yul\":4532:4546   */\n  lt\n    /* \"#utility.yul\":4524:4732   */\n  iszero\n  tag_89\n  jumpi\n    /* \"#utility.yul\":4617:4626   */\n  dup5\n    /* \"#utility.yul\":4612:4615   */\n  dup10\n    /* \"#utility.yul\":4608:4627   */\n  add\n    /* \"#utility.yul\":4602:4628   */\n  mload\n    /* \"#utility.yul\":4594:4600   */\n  dup3\n    /* \"#utility.yul\":4587:4629   */\n  sstore\n    /* \"#utility.yul\":4668:4669   */\n  0x01\n    /* \"#utility.yul\":4660:4666   */\n  dup3\n    /* \"#utility.yul\":4656:4670   */\n  add\n    /* \"#utility.yul\":4646:4670   */\n  swap2\n  pop\n    /* \"#utility.yul\":4715:4717   */\n  0x20\n    /* \"#utility.yul\":4704:4713   */\n  dup6\n    /* \"#utility.yul\":4700:4718   */\n  add\n    /* \"#utility.yul\":4687:4718   */\n  swap5\n  pop\n    /* \"#utility.yul\":4561:4565   */\n  0x20\n    /* \"#utility.yul\":4558:4559   */\n  dup2\n    /* \"#utility.yul\":4554:4566   */\n  add\n    /* \"#utility.yul\":4549:4566   */\n  swap1\n  pop\n    /* \"#utility.yul\":4524:4732   */\n  jump(tag_87)\ntag_89:\n    /* \"#utility.yul\":4760:4766   */\n  dup7\n    /* \"#utility.yul\":4751:4758   */\n  dup4\n    /* \"#utility.yul\":4748:4767   */\n  lt\n    /* \"#utility.yul\":4745:4924   */\n  iszero\n  tag_90\n  jumpi\n    /* \"#utility.yul\":4818:4827   */\n  dup5\n    /* \"#utility.yul\":4813:4816   */\n  dup10\n    /* \"#utility.yul\":4809:4828   */\n  add\n    /* \"#utility.yul\":4803:4829   */\n  mload\n    /* \"#utility.yul\":4861:4909   */\n  tag_91\n    /* \"#utility.yul\":4903:4907   */\n  0x1f\n    /* \"#utility.yul\":4895:4901   */\n  dup10\n    /* \"#utility.yul\":4891:4908   */\n  and\n    /* \"#utility.yul\":4880:4889   */\n  dup3\n    /* \"#utility.yul\":4861:4909   */\n  tag_28\n  jump\t// in\ntag_91:\n    /* \"#utility.yul\":4853:4859   */\n  dup4\n    /* \"#utility.yul\":4846:4910   */\n  sstore\n    /* \"#utility.yul\":4768:4924   */\n  pop\n    /* \"#utility.yul\":4745:4924   */\ntag_90:\n    /* \"#utility.yul\":4970:4971   */\n  0x01\n    /* \"#utility.yul\":4966:4967   */\n  0x02\n    /* \"#utility.yul\":4958:4964   */\n  dup9\n    /* \"#utility.yul\":4954:4968   */\n  mul\n    /* \"#utility.yul\":4950:4972   */\n  add\n    /* \"#utility.yul\":4944:4948   */\n  dup9\n    /* \"#utility.yul\":4937:4973   */\n  sstore\n    /* \"#utility.yul\":4372:4983   */\n  pop\n  pop\n  pop\n    /* \"#utility.yul\":4335:5222   */\ntag_82:\n  pop\n    /* \"#utility.yul\":3925:5228   */\n  pop\n  pop\n  pop\n    /* \"#utility.yul\":3833:5228   */\n  pop\n  pop\n  jump\t// out\n    /* \"contracts/Bookstore.sol\":58:1074  contract Bookstore {... */\ntag_9:\n  dataSize(sub_0)\n  dup1\n  dataOffset(sub_0)\n  0x00\n  codecopy\n  0x00\n  return\nstop\n\nsub_0: assembly {\n        /* \"contracts/Bookstore.sol\":58:1074  contract Bookstore {... */\n      mstore(0x40, 0x80)\n      callvalue\n      dup1\n      iszero\n      tag_1\n      jumpi\n      0x00\n      dup1\n      revert\n    tag_1:\n      pop\n      jumpi(tag_2, lt(calldatasize, 0x04))\n      shr(0xe0, calldataload(0x00))\n      dup1\n      0x599ebf08\n      eq\n      tag_3\n      jumpi\n      dup1\n      0x68744046\n      eq\n      tag_4\n      jumpi\n      dup1\n      0x7cf52d96\n      eq\n      tag_5\n      jumpi\n      dup1\n      0xe0ff5b8b\n      eq\n      tag_6\n      jumpi\n    tag_2:\n      0x00\n      dup1\n      revert\n        /* \"contracts/Bookstore.sol\":438:719  function addBook(string memory _title, string memory _author, bool _isPremium, uint _price) public {... */\n    tag_3:\n      tag_7\n      0x04\n      dup1\n      calldatasize\n      sub\n      dup2\n      add\n      swap1\n      tag_8\n      swap2\n      swap1\n      tag_9\n      jump\t// in\n    tag_8:\n      tag_10\n      jump\t// in\n    tag_7:\n      stop\n        /* \"contracts/Bookstore.sol\":221:255  mapping(uint => Book) public books */\n    tag_4:\n      tag_11\n      0x04\n      dup1\n      calldatasize\n      sub\n      dup2\n      add\n      swap1\n      tag_12\n      swap2\n      swap1\n      tag_13\n      jump\t// in\n    tag_12:\n      tag_14\n      jump\t// in\n    tag_11:\n      mload(0x40)\n      tag_15\n      swap6\n      swap5\n      swap4\n      swap3\n      swap2\n      swap1\n      tag_16\n      jump\t// in\n    tag_15:\n      mload(0x40)\n      dup1\n      swap2\n      sub\n      swap1\n      return\n        /* \"contracts/Bookstore.sol\":266:288  uint public nextBookId */\n    tag_5:\n      tag_17\n      tag_18\n      jump\t// in\n    tag_17:\n      mload(0x40)\n      tag_19\n      swap2\n      swap1\n      tag_20\n      jump\t// in\n    tag_19:\n      mload(0x40)\n      dup1\n      swap2\n      sub\n      swap1\n      return\n        /* \"contracts/Bookstore.sol\":725:1072  function getBook(uint _bookId) public view returns (string memory title, string memory author) {... */\n    tag_6:\n      tag_21\n      0x04\n      dup1\n      calldatasize\n      sub\n      dup2\n      add\n      swap1\n      tag_22\n      swap2\n      swap1\n      tag_13\n      jump\t// in\n    tag_22:\n      tag_23\n      jump\t// in\n    tag_21:\n      mload(0x40)\n      tag_24\n      swap3\n      swap2\n      swap1\n      tag_25\n      jump\t// in\n    tag_24:\n      mload(0x40)\n      dup1\n      swap2\n      sub\n      swap1\n      return\n        /* \"contracts/Bookstore.sol\":438:719  function addBook(string memory _title, string memory _author, bool _isPremium, uint _price) public {... */\n    tag_10:\n        /* \"contracts/Bookstore.sol\":569:578  tx.origin */\n      origin\n        /* \"contracts/Bookstore.sol\":555:578  msg.sender == tx.origin */\n      0xffffffffffffffffffffffffffffffffffffffff\n      and\n        /* \"contracts/Bookstore.sol\":555:565  msg.sender */\n      caller\n        /* \"contracts/Bookstore.sol\":555:578  msg.sender == tx.origin */\n      0xffffffffffffffffffffffffffffffffffffffff\n      and\n      eq\n        /* \"contracts/Bookstore.sol\":547:607  require(msg.sender == tx.origin, \"Only owner can add books\") */\n      tag_27\n      jumpi\n      mload(0x40)\n      0x08c379a000000000000000000000000000000000000000000000000000000000\n      dup2\n      mstore\n      0x04\n      add\n      tag_28\n      swap1\n      tag_29\n      jump\t// in\n    tag_28:\n      mload(0x40)\n      dup1\n      swap2\n      sub\n      swap1\n      revert\n    tag_27:\n        /* \"contracts/Bookstore.sol\":637:690  Book(nextBookId, _title, _author, _isPremium, _price) */\n      mload(0x40)\n      dup1\n      0xa0\n      add\n      0x40\n      mstore\n      dup1\n        /* \"contracts/Bookstore.sol\":642:652  nextBookId */\n      sload(0x01)\n        /* \"contracts/Bookstore.sol\":637:690  Book(nextBookId, _title, _author, _isPremium, _price) */\n      dup2\n      mstore\n      0x20\n      add\n        /* \"contracts/Bookstore.sol\":654:660  _title */\n      dup6\n        /* \"contracts/Bookstore.sol\":637:690  Book(nextBookId, _title, _author, _isPremium, _price) */\n      dup2\n      mstore\n      0x20\n      add\n        /* \"contracts/Bookstore.sol\":662:669  _author */\n      dup5\n        /* \"contracts/Bookstore.sol\":637:690  Book(nextBookId, _title, _author, _isPremium, _price) */\n      dup2\n      mstore\n      0x20\n      add\n        /* \"contracts/Bookstore.sol\":671:681  _isPremium */\n      dup4\n        /* \"contracts/Bookstore.sol\":637:690  Book(nextBookId, _title, _author, _isPremium, _price) */\n      iszero\n      iszero\n      dup2\n      mstore\n      0x20\n      add\n        /* \"contracts/Bookstore.sol\":683:689  _price */\n      dup3\n        /* \"contracts/Bookstore.sol\":637:690  Book(nextBookId, _title, _author, _isPremium, _price) */\n      dup2\n      mstore\n      pop\n        /* \"contracts/Bookstore.sol\":617:622  books */\n      0x00\n        /* \"contracts/Bookstore.sol\":617:634  books[nextBookId] */\n      dup1\n        /* \"contracts/Bookstore.sol\":623:633  nextBookId */\n      sload(0x01)\n        /* \"contracts/Bookstore.sol\":617:634  books[nextBookId] */\n      dup2\n      mstore\n      0x20\n      add\n      swap1\n      dup2\n      mstore\n      0x20\n      add\n      0x00\n      keccak256\n        /* \"contracts/Bookstore.sol\":617:690  books[nextBookId] = Book(nextBookId, _title, _author, _isPremium, _price) */\n      0x00\n      dup3\n      add\n      mload\n      dup2\n      0x00\n      add\n      sstore\n      0x20\n      dup3\n      add\n      mload\n      dup2\n      0x01\n      add\n      swap1\n      dup2\n      tag_30\n      swap2\n      swap1\n      tag_31\n      jump\t// in\n    tag_30:\n      pop\n      0x40\n      dup3\n      add\n      mload\n      dup2\n      0x02\n      add\n      swap1\n      dup2\n      tag_32\n      swap2\n      swap1\n      tag_31\n      jump\t// in\n    tag_32:\n      pop\n      0x60\n      dup3\n      add\n      mload\n      dup2\n      0x03\n      add\n      exp(0x0100, 0x00)\n      dup2\n      sload\n      dup2\n      0xff\n      mul\n      not\n      and\n      swap1\n      dup4\n      iszero\n      iszero\n      mul\n      or\n      swap1\n      sstore\n      pop\n      0x80\n      dup3\n      add\n      mload\n      dup2\n      0x04\n      add\n      sstore\n      swap1\n      pop\n      pop\n        /* \"contracts/Bookstore.sol\":700:710  nextBookId */\n      0x01\n      0x00\n        /* \"contracts/Bookstore.sol\":700:712  nextBookId++ */\n      dup2\n      sload\n      dup1\n      swap3\n      swap2\n      swap1\n      tag_33\n      swap1\n      tag_34\n      jump\t// in\n    tag_33:\n      swap2\n      swap1\n      pop\n      sstore\n      pop\n        /* \"contracts/Bookstore.sol\":438:719  function addBook(string memory _title, string memory _author, bool _isPremium, uint _price) public {... */\n      pop\n      pop\n      pop\n      pop\n      jump\t// out\n        /* \"contracts/Bookstore.sol\":221:255  mapping(uint => Book) public books */\n    tag_14:\n      mstore(0x20, 0x00)\n      dup1\n      0x00\n      mstore\n      keccak256(0x00, 0x40)\n      0x00\n      swap2\n      pop\n      swap1\n      pop\n      dup1\n      0x00\n      add\n      sload\n      swap1\n      dup1\n      0x01\n      add\n      dup1\n      sload\n      tag_35\n      swap1\n      tag_36\n      jump\t// in\n    tag_35:\n      dup1\n      0x1f\n      add\n      0x20\n      dup1\n      swap2\n      div\n      mul\n      0x20\n      add\n      mload(0x40)\n      swap1\n      dup2\n      add\n      0x40\n      mstore\n      dup1\n      swap3\n      swap2\n      swap1\n      dup2\n      dup2\n      mstore\n      0x20\n      add\n      dup3\n      dup1\n      sload\n      tag_37\n      swap1\n      tag_36\n      jump\t// in\n    tag_37:\n      dup1\n      iszero\n      tag_38\n      jumpi\n      dup1\n      0x1f\n      lt\n      tag_39\n      jumpi\n      0x0100\n      dup1\n      dup4\n      sload\n      div\n      mul\n      dup4\n      mstore\n      swap2\n      0x20\n      add\n      swap2\n      jump(tag_38)\n    tag_39:\n      dup3\n      add\n      swap2\n      swap1\n      0x00\n      mstore\n      keccak256(0x00, 0x20)\n      swap1\n    tag_40:\n      dup2\n      sload\n      dup2\n      mstore\n      swap1\n      0x01\n      add\n      swap1\n      0x20\n      add\n      dup1\n      dup4\n      gt\n      tag_40\n      jumpi\n      dup3\n      swap1\n      sub\n      0x1f\n      and\n      dup3\n      add\n      swap2\n    tag_38:\n      pop\n      pop\n      pop\n      pop\n      pop\n      swap1\n      dup1\n      0x02\n      add\n      dup1\n      sload\n      tag_41\n      swap1\n      tag_36\n      jump\t// in\n    tag_41:\n      dup1\n      0x1f\n      add\n      0x20\n      dup1\n      swap2\n      div\n      mul\n      0x20\n      add\n      mload(0x40)\n      swap1\n      dup2\n      add\n      0x40\n      mstore\n      dup1\n      swap3\n      swap2\n      swap1\n      dup2\n      dup2\n      mstore\n      0x20\n      add\n      dup3\n      dup1\n      sload\n      tag_42\n      swap1\n      tag_36\n      jump\t// in\n    tag_42:\n      dup1\n      iszero\n      tag_43\n      jumpi\n      dup1\n      0x1f\n      lt\n      tag_44\n      jumpi\n      0x0100\n      dup1\n      dup4\n      sload\n      div\n      mul\n      dup4\n      mstore\n      swap2\n      0x20\n      add\n      swap2\n      jump(tag_43)\n    tag_44:\n      dup3\n      add\n      swap2\n      swap1\n      0x00\n      mstore\n      keccak256(0x00, 0x20)\n      swap1\n    tag_45:\n      dup2\n      sload\n      dup2\n      mstore\n      swap1\n      0x01\n      add\n      swap1\n      0x20\n      add\n      dup1\n      dup4\n      gt\n      tag_45\n      jumpi\n      dup3\n      swap1\n      sub\n      0x1f\n      and\n      dup3\n      add\n      swap2\n    tag_43:\n      pop\n      pop\n      pop\n      pop\n      pop\n      swap1\n      dup1\n      0x03\n      add\n      0x00\n      swap1\n      sload\n      swap1\n      0x0100\n      exp\n      swap1\n      div\n      0xff\n      and\n      swap1\n      dup1\n      0x04\n      add\n      sload\n      swap1\n      pop\n      dup6\n      jump\t// out\n        /* \"contracts/Bookstore.sol\":266:288  uint public nextBookId */\n    tag_18:\n      sload(0x01)\n      dup2\n      jump\t// out\n        /* \"contracts/Bookstore.sol\":725:1072  function getBook(uint _bookId) public view returns (string memory title, string memory author) {... */\n    tag_23:\n        /* \"contracts/Bookstore.sol\":777:796  string memory title */\n      0x60\n        /* \"contracts/Bookstore.sol\":798:818  string memory author */\n      dup1\n        /* \"contracts/Bookstore.sol\":830:846  Book memory book */\n      0x00\n        /* \"contracts/Bookstore.sol\":849:854  books */\n      dup1\n        /* \"contracts/Bookstore.sol\":849:863  books[_bookId] */\n      0x00\n        /* \"contracts/Bookstore.sol\":855:862  _bookId */\n      dup6\n        /* \"contracts/Bookstore.sol\":849:863  books[_bookId] */\n      dup2\n      mstore\n      0x20\n      add\n      swap1\n      dup2\n      mstore\n      0x20\n      add\n      0x00\n      keccak256\n        /* \"contracts/Bookstore.sol\":830:863  Book memory book = books[_bookId] */\n      mload(0x40)\n      dup1\n      0xa0\n      add\n      0x40\n      mstore\n      swap1\n      dup2\n      0x00\n      dup3\n      add\n      sload\n      dup2\n      mstore\n      0x20\n      add\n      0x01\n      dup3\n      add\n      dup1\n      sload\n      tag_47\n      swap1\n      tag_36\n      jump\t// in\n    tag_47:\n      dup1\n      0x1f\n      add\n      0x20\n      dup1\n      swap2\n      div\n      mul\n      0x20\n      add\n      mload(0x40)\n      swap1\n      dup2\n      add\n      0x40\n      mstore\n      dup1\n      swap3\n      swap2\n      swap1\n      dup2\n      dup2\n      mstore\n      0x20\n      add\n      dup3\n      dup1\n      sload\n      tag_48\n      swap1\n      tag_36\n      jump\t// in\n    tag_48:\n      dup1\n      iszero\n      tag_49\n      jumpi\n      dup1\n      0x1f\n      lt\n      tag_50\n      jumpi\n      0x0100\n      dup1\n      dup4\n      sload\n      div\n      mul\n      dup4\n      mstore\n      swap2\n      0x20\n      add\n      swap2\n      jump(tag_49)\n    tag_50:\n      dup3\n      add\n      swap2\n      swap1\n      0x00\n      mstore\n      keccak256(0x00, 0x20)\n      swap1\n    tag_51:\n      dup2\n      sload\n      dup2\n      mstore\n      swap1\n      0x01\n      add\n      swap1\n      0x20\n      add\n      dup1\n      dup4\n      gt\n      tag_51\n      jumpi\n      dup3\n      swap1\n      sub\n      0x1f\n      and\n      dup3\n      add\n      swap2\n    tag_49:\n      pop\n      pop\n      pop\n      pop\n      pop\n      dup2\n      mstore\n      0x20\n      add\n      0x02\n      dup3\n      add\n      dup1\n      sload\n      tag_52\n      swap1\n      tag_36\n      jump\t// in\n    tag_52:\n      dup1\n      0x1f\n      add\n      0x20\n      dup1\n      swap2\n      div\n      mul\n      0x20\n      add\n      mload(0x40)\n      swap1\n      dup2\n      add\n      0x40\n      mstore\n      dup1\n      swap3\n      swap2\n      swap1\n      dup2\n      dup2\n      mstore\n      0x20\n      add\n      dup3\n      dup1\n      sload\n      tag_53\n      swap1\n      tag_36\n      jump\t// in\n    tag_53:\n      dup1\n      iszero\n      tag_54\n      jumpi\n      dup1\n      0x1f\n      lt\n      tag_55\n      jumpi\n      0x0100\n      dup1\n      dup4\n      sload\n      div\n      mul\n      dup4\n      mstore\n      swap2\n      0x20\n      add\n      swap2\n      jump(tag_54)\n    tag_55:\n      dup3\n      add\n      swap2\n      swap1\n      0x00\n      mstore\n      keccak256(0x00, 0x20)\n      swap1\n    tag_56:\n      dup2\n      sload\n      dup2\n      mstore\n      swap1\n      0x01\n      add\n      swap1\n      0x20\n      add\n      dup1\n      dup4\n      gt\n      tag_56\n      jumpi\n      dup3\n      swap1\n      sub\n      0x1f\n      and\n      dup3\n      add\n      swap2\n    tag_54:\n      pop\n      pop\n      pop\n      pop\n      pop\n      dup2\n      mstore\n      0x20\n      add\n      0x03\n      dup3\n      add\n      0x00\n      swap1\n      sload\n      swap1\n      0x0100\n      exp\n      swap1\n      div\n      0xff\n      and\n      iszero\n      iszero\n      iszero\n      iszero\n      dup2\n      mstore\n      0x20\n      add\n      0x04\n      dup3\n      add\n      sload\n      dup2\n      mstore\n      pop\n      pop\n      swap1\n      pop\n        /* \"contracts/Bookstore.sol\":895:896  0 */\n      0x00\n        /* \"contracts/Bookstore.sol\":881:885  book */\n      dup2\n        /* \"contracts/Bookstore.sol\":881:892  book.bookId */\n      0x00\n      add\n      mload\n        /* \"contracts/Bookstore.sol\":881:896  book.bookId > 0 */\n      gt\n        /* \"contracts/Bookstore.sol\":873:915  require(book.bookId > 0, \"Book not found\") */\n      tag_57\n      jumpi\n      mload(0x40)\n      0x08c379a000000000000000000000000000000000000000000000000000000000\n      dup2\n      mstore\n      0x04\n      add\n      tag_58\n      swap1\n      tag_59\n      jump\t// in\n    tag_58:\n      mload(0x40)\n      dup1\n      swap2\n      sub\n      swap1\n      revert\n    tag_57:\n        /* \"contracts/Bookstore.sol\":931:935  book */\n      dup1\n        /* \"contracts/Bookstore.sol\":931:945  book.isPremium */\n      0x60\n      add\n      mload\n        /* \"contracts/Bookstore.sol\":926:1066  if (!book.isPremium) {... */\n      tag_60\n      jumpi\n        /* \"contracts/Bookstore.sol\":969:973  book */\n      dup1\n        /* \"contracts/Bookstore.sol\":969:979  book.title */\n      0x20\n      add\n      mload\n        /* \"contracts/Bookstore.sol\":981:985  book */\n      dup2\n        /* \"contracts/Bookstore.sol\":981:992  book.author */\n      0x40\n      add\n      mload\n        /* \"contracts/Bookstore.sol\":961:993  return (book.title, book.author) */\n      swap3\n      pop\n      swap3\n      pop\n      pop\n      jump(tag_46)\n        /* \"contracts/Bookstore.sol\":926:1066  if (!book.isPremium) {... */\n    tag_60:\n        /* \"contracts/Bookstore.sol\":1024:1055  revert(\"Premium plan required\") */\n      mload(0x40)\n      0x08c379a000000000000000000000000000000000000000000000000000000000\n      dup2\n      mstore\n      0x04\n      add\n      tag_62\n      swap1\n      tag_63\n      jump\t// in\n    tag_62:\n      mload(0x40)\n      dup1\n      swap2\n      sub\n      swap1\n      revert\n        /* \"contracts/Bookstore.sol\":725:1072  function getBook(uint _bookId) public view returns (string memory title, string memory author) {... */\n    tag_46:\n      swap2\n      pop\n      swap2\n      jump\t// out\n        /* \"#utility.yul\":7:82   */\n    tag_64:\n        /* \"#utility.yul\":40:46   */\n      0x00\n        /* \"#utility.yul\":73:75   */\n      0x40\n        /* \"#utility.yul\":67:76   */\n      mload\n        /* \"#utility.yul\":57:76   */\n      swap1\n      pop\n        /* \"#utility.yul\":7:82   */\n      swap1\n      jump\t// out\n        /* \"#utility.yul\":88:205   */\n    tag_65:\n        /* \"#utility.yul\":197:198   */\n      0x00\n        /* \"#utility.yul\":194:195   */\n      dup1\n        /* \"#utility.yul\":187:199   */\n      revert\n        /* \"#utility.yul\":211:328   */\n    tag_66:\n        /* \"#utility.yul\":320:321   */\n      0x00\n        /* \"#utility.yul\":317:318   */\n      dup1\n        /* \"#utility.yul\":310:322   */\n      revert\n        /* \"#utility.yul\":334:451   */\n    tag_67:\n        /* \"#utility.yul\":443:444   */\n      0x00\n        /* \"#utility.yul\":440:441   */\n      dup1\n        /* \"#utility.yul\":433:445   */\n      revert\n        /* \"#utility.yul\":457:574   */\n    tag_68:\n        /* \"#utility.yul\":566:567   */\n      0x00\n        /* \"#utility.yul\":563:564   */\n      dup1\n        /* \"#utility.yul\":556:568   */\n      revert\n        /* \"#utility.yul\":580:682   */\n    tag_69:\n        /* \"#utility.yul\":621:627   */\n      0x00\n        /* \"#utility.yul\":672:674   */\n      0x1f\n        /* \"#utility.yul\":668:675   */\n      not\n        /* \"#utility.yul\":663:665   */\n      0x1f\n        /* \"#utility.yul\":656:661   */\n      dup4\n        /* \"#utility.yul\":652:666   */\n      add\n        /* \"#utility.yul\":648:676   */\n      and\n        /* \"#utility.yul\":638:676   */\n      swap1\n      pop\n        /* \"#utility.yul\":580:682   */\n      swap2\n      swap1\n      pop\n      jump\t// out\n        /* \"#utility.yul\":688:868   */\n    tag_70:\n        /* \"#utility.yul\":736:813   */\n      0x4e487b7100000000000000000000000000000000000000000000000000000000\n        /* \"#utility.yul\":733:734   */\n      0x00\n        /* \"#utility.yul\":726:814   */\n      mstore\n        /* \"#utility.yul\":833:837   */\n      0x41\n        /* \"#utility.yul\":830:831   */\n      0x04\n        /* \"#utility.yul\":823:838   */\n      mstore\n        /* \"#utility.yul\":857:861   */\n      0x24\n        /* \"#utility.yul\":854:855   */\n      0x00\n        /* \"#utility.yul\":847:862   */\n      revert\n        /* \"#utility.yul\":874:1155   */\n    tag_71:\n        /* \"#utility.yul\":957:984   */\n      tag_121\n        /* \"#utility.yul\":979:983   */\n      dup3\n        /* \"#utility.yul\":957:984   */\n      tag_69\n      jump\t// in\n    tag_121:\n        /* \"#utility.yul\":949:955   */\n      dup2\n        /* \"#utility.yul\":945:985   */\n      add\n        /* \"#utility.yul\":1087:1093   */\n      dup2\n        /* \"#utility.yul\":1075:1085   */\n      dup2\n        /* \"#utility.yul\":1072:1094   */\n      lt\n        /* \"#utility.yul\":1051:1069   */\n      0xffffffffffffffff\n        /* \"#utility.yul\":1039:1049   */\n      dup3\n        /* \"#utility.yul\":1036:1070   */\n      gt\n        /* \"#utility.yul\":1033:1095   */\n      or\n        /* \"#utility.yul\":1030:1118   */\n      iszero\n      tag_122\n      jumpi\n        /* \"#utility.yul\":1098:1116   */\n      tag_123\n      tag_70\n      jump\t// in\n    tag_123:\n        /* \"#utility.yul\":1030:1118   */\n    tag_122:\n        /* \"#utility.yul\":1138:1148   */\n      dup1\n        /* \"#utility.yul\":1134:1136   */\n      0x40\n        /* \"#utility.yul\":1127:1149   */\n      mstore\n        /* \"#utility.yul\":917:1155   */\n      pop\n        /* \"#utility.yul\":874:1155   */\n      pop\n      pop\n      jump\t// out\n        /* \"#utility.yul\":1161:1290   */\n    tag_72:\n        /* \"#utility.yul\":1195:1201   */\n      0x00\n        /* \"#utility.yul\":1222:1242   */\n      tag_125\n      tag_64\n      jump\t// in\n    tag_125:\n        /* \"#utility.yul\":1212:1242   */\n      swap1\n      pop\n        /* \"#utility.yul\":1251:1284   */\n      tag_126\n        /* \"#utility.yul\":1279:1283   */\n      dup3\n        /* \"#utility.yul\":1271:1277   */\n      dup3\n        /* \"#utility.yul\":1251:1284   */\n      tag_71\n      jump\t// in\n    tag_126:\n        /* \"#utility.yul\":1161:1290   */\n      swap2\n      swap1\n      pop\n      jump\t// out\n        /* \"#utility.yul\":1296:1604   */\n    tag_73:\n        /* \"#utility.yul\":1358:1362   */\n      0x00\n        /* \"#utility.yul\":1448:1466   */\n      0xffffffffffffffff\n        /* \"#utility.yul\":1440:1446   */\n      dup3\n        /* \"#utility.yul\":1437:1467   */\n      gt\n        /* \"#utility.yul\":1434:1490   */\n      iszero\n      tag_128\n      jumpi\n        /* \"#utility.yul\":1470:1488   */\n      tag_129\n      tag_70\n      jump\t// in\n    tag_129:\n        /* \"#utility.yul\":1434:1490   */\n    tag_128:\n        /* \"#utility.yul\":1508:1537   */\n      tag_130\n        /* \"#utility.yul\":1530:1536   */\n      dup3\n        /* \"#utility.yul\":1508:1537   */\n      tag_69\n      jump\t// in\n    tag_130:\n        /* \"#utility.yul\":1500:1537   */\n      swap1\n      pop\n        /* \"#utility.yul\":1592:1596   */\n      0x20\n        /* \"#utility.yul\":1586:1590   */\n      dup2\n        /* \"#utility.yul\":1582:1597   */\n      add\n        /* \"#utility.yul\":1574:1597   */\n      swap1\n      pop\n        /* \"#utility.yul\":1296:1604   */\n      swap2\n      swap1\n      pop\n      jump\t// out\n        /* \"#utility.yul\":1610:1758   */\n    tag_74:\n        /* \"#utility.yul\":1708:1714   */\n      dup3\n        /* \"#utility.yul\":1703:1706   */\n      dup2\n        /* \"#utility.yul\":1698:1701   */\n      dup4\n        /* \"#utility.yul\":1685:1715   */\n      calldatacopy\n        /* \"#utility.yul\":1749:1750   */\n      0x00\n        /* \"#utility.yul\":1740:1746   */\n      dup4\n        /* \"#utility.yul\":1735:1738   */\n      dup4\n        /* \"#utility.yul\":1731:1747   */\n      add\n        /* \"#utility.yul\":1724:1751   */\n      mstore\n        /* \"#utility.yul\":1610:1758   */\n      pop\n      pop\n      pop\n      jump\t// out\n        /* \"#utility.yul\":1764:2189   */\n    tag_75:\n        /* \"#utility.yul\":1842:1847   */\n      0x00\n        /* \"#utility.yul\":1867:1933   */\n      tag_133\n        /* \"#utility.yul\":1883:1932   */\n      tag_134\n        /* \"#utility.yul\":1925:1931   */\n      dup5\n        /* \"#utility.yul\":1883:1932   */\n      tag_73\n      jump\t// in\n    tag_134:\n        /* \"#utility.yul\":1867:1933   */\n      tag_72\n      jump\t// in\n    tag_133:\n        /* \"#utility.yul\":1858:1933   */\n      swap1\n      pop\n        /* \"#utility.yul\":1956:1962   */\n      dup3\n        /* \"#utility.yul\":1949:1954   */\n      dup2\n        /* \"#utility.yul\":1942:1963   */\n      mstore\n        /* \"#utility.yul\":1994:1998   */\n      0x20\n        /* \"#utility.yul\":1987:1992   */\n      dup2\n        /* \"#utility.yul\":1983:1999   */\n      add\n        /* \"#utility.yul\":2032:2035   */\n      dup5\n        /* \"#utility.yul\":2023:2029   */\n      dup5\n        /* \"#utility.yul\":2018:2021   */\n      dup5\n        /* \"#utility.yul\":2014:2030   */\n      add\n        /* \"#utility.yul\":2011:2036   */\n      gt\n        /* \"#utility.yul\":2008:2120   */\n      iszero\n      tag_135\n      jumpi\n        /* \"#utility.yul\":2039:2118   */\n      tag_136\n      tag_68\n      jump\t// in\n    tag_136:\n        /* \"#utility.yul\":2008:2120   */\n    tag_135:\n        /* \"#utility.yul\":2129:2183   */\n      tag_137\n        /* \"#utility.yul\":2176:2182   */\n      dup5\n        /* \"#utility.yul\":2171:2174   */\n      dup3\n        /* \"#utility.yul\":2166:2169   */\n      dup6\n        /* \"#utility.yul\":2129:2183   */\n      tag_74\n      jump\t// in\n    tag_137:\n        /* \"#utility.yul\":1848:2189   */\n      pop\n        /* \"#utility.yul\":1764:2189   */\n      swap4\n      swap3\n      pop\n      pop\n      pop\n      jump\t// out\n        /* \"#utility.yul\":2209:2549   */\n    tag_76:\n        /* \"#utility.yul\":2265:2270   */\n      0x00\n        /* \"#utility.yul\":2314:2317   */\n      dup3\n        /* \"#utility.yul\":2307:2311   */\n      0x1f\n        /* \"#utility.yul\":2299:2305   */\n      dup4\n        /* \"#utility.yul\":2295:2312   */\n      add\n        /* \"#utility.yul\":2291:2318   */\n      slt\n        /* \"#utility.yul\":2281:2403   */\n      tag_139\n      jumpi\n        /* \"#utility.yul\":2322:2401   */\n      tag_140\n      tag_67\n      jump\t// in\n    tag_140:\n        /* \"#utility.yul\":2281:2403   */\n    tag_139:\n        /* \"#utility.yul\":2439:2445   */\n      dup2\n        /* \"#utility.yul\":2426:2446   */\n      calldataload\n        /* \"#utility.yul\":2464:2543   */\n      tag_141\n        /* \"#utility.yul\":2539:2542   */\n      dup5\n        /* \"#utility.yul\":2531:2537   */\n      dup3\n        /* \"#utility.yul\":2524:2528   */\n      0x20\n        /* \"#utility.yul\":2516:2522   */\n      dup7\n        /* \"#utility.yul\":2512:2529   */\n      add\n        /* \"#utility.yul\":2464:2543   */\n      tag_75\n      jump\t// in\n    tag_141:\n        /* \"#utility.yul\":2455:2543   */\n      swap2\n      pop\n        /* \"#utility.yul\":2271:2549   */\n      pop\n        /* \"#utility.yul\":2209:2549   */\n      swap3\n      swap2\n      pop\n      pop\n      jump\t// out\n        /* \"#utility.yul\":2555:2645   */\n    tag_77:\n        /* \"#utility.yul\":2589:2596   */\n      0x00\n        /* \"#utility.yul\":2632:2637   */\n      dup2\n        /* \"#utility.yul\":2625:2638   */\n      iszero\n        /* \"#utility.yul\":2618:2639   */\n      iszero\n        /* \"#utility.yul\":2607:2639   */\n      swap1\n      pop\n        /* \"#utility.yul\":2555:2645   */\n      swap2\n      swap1\n      pop\n      jump\t// out\n        /* \"#utility.yul\":2651:2767   */\n    tag_78:\n        /* \"#utility.yul\":2721:2742   */\n      tag_144\n        /* \"#utility.yul\":2736:2741   */\n      dup2\n        /* \"#utility.yul\":2721:2742   */\n      tag_77\n      jump\t// in\n    tag_144:\n        /* \"#utility.yul\":2714:2719   */\n      dup2\n        /* \"#utility.yul\":2711:2743   */\n      eq\n        /* \"#utility.yul\":2701:2761   */\n      tag_145\n      jumpi\n        /* \"#utility.yul\":2757:2758   */\n      0x00\n        /* \"#utility.yul\":2754:2755   */\n      dup1\n        /* \"#utility.yul\":2747:2759   */\n      revert\n        /* \"#utility.yul\":2701:2761   */\n    tag_145:\n        /* \"#utility.yul\":2651:2767   */\n      pop\n      jump\t// out\n        /* \"#utility.yul\":2773:2906   */\n    tag_79:\n        /* \"#utility.yul\":2816:2821   */\n      0x00\n        /* \"#utility.yul\":2854:2860   */\n      dup2\n        /* \"#utility.yul\":2841:2861   */\n      calldataload\n        /* \"#utility.yul\":2832:2861   */\n      swap1\n      pop\n        /* \"#utility.yul\":2870:2900   */\n      tag_147\n        /* \"#utility.yul\":2894:2899   */\n      dup2\n        /* \"#utility.yul\":2870:2900   */\n      tag_78\n      jump\t// in\n    tag_147:\n        /* \"#utility.yul\":2773:2906   */\n      swap3\n      swap2\n      pop\n      pop\n      jump\t// out\n        /* \"#utility.yul\":2912:2989   */\n    tag_80:\n        /* \"#utility.yul\":2949:2956   */\n      0x00\n        /* \"#utility.yul\":2978:2983   */\n      dup2\n        /* \"#utility.yul\":2967:2983   */\n      swap1\n      pop\n        /* \"#utility.yul\":2912:2989   */\n      swap2\n      swap1\n      pop\n      jump\t// out\n        /* \"#utility.yul\":2995:3117   */\n    tag_81:\n        /* \"#utility.yul\":3068:3092   */\n      tag_150\n        /* \"#utility.yul\":3086:3091   */\n      dup2\n        /* \"#utility.yul\":3068:3092   */\n      tag_80\n      jump\t// in\n    tag_150:\n        /* \"#utility.yul\":3061:3066   */\n      dup2\n        /* \"#utility.yul\":3058:3093   */\n      eq\n        /* \"#utility.yul\":3048:3111   */\n      tag_151\n      jumpi\n        /* \"#utility.yul\":3107:3108   */\n      0x00\n        /* \"#utility.yul\":3104:3105   */\n      dup1\n        /* \"#utility.yul\":3097:3109   */\n      revert\n        /* \"#utility.yul\":3048:3111   */\n    tag_151:\n        /* \"#utility.yul\":2995:3117   */\n      pop\n      jump\t// out\n        /* \"#utility.yul\":3123:3262   */\n    tag_82:\n        /* \"#utility.yul\":3169:3174   */\n      0x00\n        /* \"#utility.yul\":3207:3213   */\n      dup2\n        /* \"#utility.yul\":3194:3214   */\n      calldataload\n        /* \"#utility.yul\":3185:3214   */\n      swap1\n      pop\n        /* \"#utility.yul\":3223:3256   */\n      tag_153\n        /* \"#utility.yul\":3250:3255   */\n      dup2\n        /* \"#utility.yul\":3223:3256   */\n      tag_81\n      jump\t// in\n    tag_153:\n        /* \"#utility.yul\":3123:3262   */\n      swap3\n      swap2\n      pop\n      pop\n      jump\t// out\n        /* \"#utility.yul\":3268:4387   */\n    tag_9:\n        /* \"#utility.yul\":3371:3377   */\n      0x00\n        /* \"#utility.yul\":3379:3385   */\n      dup1\n        /* \"#utility.yul\":3387:3393   */\n      0x00\n        /* \"#utility.yul\":3395:3401   */\n      dup1\n        /* \"#utility.yul\":3444:3447   */\n      0x80\n        /* \"#utility.yul\":3432:3441   */\n      dup6\n        /* \"#utility.yul\":3423:3430   */\n      dup8\n        /* \"#utility.yul\":3419:3442   */\n      sub\n        /* \"#utility.yul\":3415:3448   */\n      slt\n        /* \"#utility.yul\":3412:3532   */\n      iszero\n      tag_155\n      jumpi\n        /* \"#utility.yul\":3451:3530   */\n      tag_156\n      tag_65\n      jump\t// in\n    tag_156:\n        /* \"#utility.yul\":3412:3532   */\n    tag_155:\n        /* \"#utility.yul\":3599:3600   */\n      0x00\n        /* \"#utility.yul\":3588:3597   */\n      dup6\n        /* \"#utility.yul\":3584:3601   */\n      add\n        /* \"#utility.yul\":3571:3602   */\n      calldataload\n        /* \"#utility.yul\":3629:3647   */\n      0xffffffffffffffff\n        /* \"#utility.yul\":3621:3627   */\n      dup2\n        /* \"#utility.yul\":3618:3648   */\n      gt\n        /* \"#utility.yul\":3615:3732   */\n      iszero\n      tag_157\n      jumpi\n        /* \"#utility.yul\":3651:3730   */\n      tag_158\n      tag_66\n      jump\t// in\n    tag_158:\n        /* \"#utility.yul\":3615:3732   */\n    tag_157:\n        /* \"#utility.yul\":3756:3819   */\n      tag_159\n        /* \"#utility.yul\":3811:3818   */\n      dup8\n        /* \"#utility.yul\":3802:3808   */\n      dup3\n        /* \"#utility.yul\":3791:3800   */\n      dup9\n        /* \"#utility.yul\":3787:3809   */\n      add\n        /* \"#utility.yul\":3756:3819   */\n      tag_76\n      jump\t// in\n    tag_159:\n        /* \"#utility.yul\":3746:3819   */\n      swap5\n      pop\n        /* \"#utility.yul\":3542:3829   */\n      pop\n        /* \"#utility.yul\":3896:3898   */\n      0x20\n        /* \"#utility.yul\":3885:3894   */\n      dup6\n        /* \"#utility.yul\":3881:3899   */\n      add\n        /* \"#utility.yul\":3868:3900   */\n      calldataload\n        /* \"#utility.yul\":3927:3945   */\n      0xffffffffffffffff\n        /* \"#utility.yul\":3919:3925   */\n      dup2\n        /* \"#utility.yul\":3916:3946   */\n      gt\n        /* \"#utility.yul\":3913:4030   */\n      iszero\n      tag_160\n      jumpi\n        /* \"#utility.yul\":3949:4028   */\n      tag_161\n      tag_66\n      jump\t// in\n    tag_161:\n        /* \"#utility.yul\":3913:4030   */\n    tag_160:\n        /* \"#utility.yul\":4054:4117   */\n      tag_162\n        /* \"#utility.yul\":4109:4116   */\n      dup8\n        /* \"#utility.yul\":4100:4106   */\n      dup3\n        /* \"#utility.yul\":4089:4098   */\n      dup9\n        /* \"#utility.yul\":4085:4107   */\n      add\n        /* \"#utility.yul\":4054:4117   */\n      tag_76\n      jump\t// in\n    tag_162:\n        /* \"#utility.yul\":4044:4117   */\n      swap4\n      pop\n        /* \"#utility.yul\":3839:4127   */\n      pop\n        /* \"#utility.yul\":4166:4168   */\n      0x40\n        /* \"#utility.yul\":4192:4242   */\n      tag_163\n        /* \"#utility.yul\":4234:4241   */\n      dup8\n        /* \"#utility.yul\":4225:4231   */\n      dup3\n        /* \"#utility.yul\":4214:4223   */\n      dup9\n        /* \"#utility.yul\":4210:4232   */\n      add\n        /* \"#utility.yul\":4192:4242   */\n      tag_79\n      jump\t// in\n    tag_163:\n        /* \"#utility.yul\":4182:4242   */\n      swap3\n      pop\n        /* \"#utility.yul\":4137:4252   */\n      pop\n        /* \"#utility.yul\":4291:4293   */\n      0x60\n        /* \"#utility.yul\":4317:4370   */\n      tag_164\n        /* \"#utility.yul\":4362:4369   */\n      dup8\n        /* \"#utility.yul\":4353:4359   */\n      dup3\n        /* \"#utility.yul\":4342:4351   */\n      dup9\n        /* \"#utility.yul\":4338:4360   */\n      add\n        /* \"#utility.yul\":4317:4370   */\n      tag_82\n      jump\t// in\n    tag_164:\n        /* \"#utility.yul\":4307:4370   */\n      swap2\n      pop\n        /* \"#utility.yul\":4262:4380   */\n      pop\n        /* \"#utility.yul\":3268:4387   */\n      swap3\n      swap6\n      swap2\n      swap5\n      pop\n      swap3\n      pop\n      jump\t// out\n        /* \"#utility.yul\":4393:4722   */\n    tag_13:\n        /* \"#utility.yul\":4452:4458   */\n      0x00\n        /* \"#utility.yul\":4501:4503   */\n      0x20\n        /* \"#utility.yul\":4489:4498   */\n      dup3\n        /* \"#utility.yul\":4480:4487   */\n      dup5\n        /* \"#utility.yul\":4476:4499   */\n      sub\n        /* \"#utility.yul\":4472:4504   */\n      slt\n        /* \"#utility.yul\":4469:4588   */\n      iszero\n      tag_166\n      jumpi\n        /* \"#utility.yul\":4507:4586   */\n      tag_167\n      tag_65\n      jump\t// in\n    tag_167:\n        /* \"#utility.yul\":4469:4588   */\n    tag_166:\n        /* \"#utility.yul\":4627:4628   */\n      0x00\n        /* \"#utility.yul\":4652:4705   */\n      tag_168\n        /* \"#utility.yul\":4697:4704   */\n      dup5\n        /* \"#utility.yul\":4688:4694   */\n      dup3\n        /* \"#utility.yul\":4677:4686   */\n      dup6\n        /* \"#utility.yul\":4673:4695   */\n      add\n        /* \"#utility.yul\":4652:4705   */\n      tag_82\n      jump\t// in\n    tag_168:\n        /* \"#utility.yul\":4642:4705   */\n      swap2\n      pop\n        /* \"#utility.yul\":4598:4715   */\n      pop\n        /* \"#utility.yul\":4393:4722   */\n      swap3\n      swap2\n      pop\n      pop\n      jump\t// out\n        /* \"#utility.yul\":4728:4846   */\n    tag_83:\n        /* \"#utility.yul\":4815:4839   */\n      tag_170\n        /* \"#utility.yul\":4833:4838   */\n      dup2\n        /* \"#utility.yul\":4815:4839   */\n      tag_80\n      jump\t// in\n    tag_170:\n        /* \"#utility.yul\":4810:4813   */\n      dup3\n        /* \"#utility.yul\":4803:4840   */\n      mstore\n        /* \"#utility.yul\":4728:4846   */\n      pop\n      pop\n      jump\t// out\n        /* \"#utility.yul\":4852:4951   */\n    tag_84:\n        /* \"#utility.yul\":4904:4910   */\n      0x00\n        /* \"#utility.yul\":4938:4943   */\n      dup2\n        /* \"#utility.yul\":4932:4944   */\n      mload\n        /* \"#utility.yul\":4922:4944   */\n      swap1\n      pop\n        /* \"#utility.yul\":4852:4951   */\n      swap2\n      swap1\n      pop\n      jump\t// out\n        /* \"#utility.yul\":4957:5126   */\n    tag_85:\n        /* \"#utility.yul\":5041:5052   */\n      0x00\n        /* \"#utility.yul\":5075:5081   */\n      dup3\n        /* \"#utility.yul\":5070:5073   */\n      dup3\n        /* \"#utility.yul\":5063:5082   */\n      mstore\n        /* \"#utility.yul\":5115:5119   */\n      0x20\n        /* \"#utility.yul\":5110:5113   */\n      dup3\n        /* \"#utility.yul\":5106:5120   */\n      add\n        /* \"#utility.yul\":5091:5120   */\n      swap1\n      pop\n        /* \"#utility.yul\":4957:5126   */\n      swap3\n      swap2\n      pop\n      pop\n      jump\t// out\n        /* \"#utility.yul\":5132:5271   */\n    tag_86:\n        /* \"#utility.yul\":5221:5227   */\n      dup3\n        /* \"#utility.yul\":5216:5219   */\n      dup2\n        /* \"#utility.yul\":5211:5214   */\n      dup4\n        /* \"#utility.yul\":5205:5228   */\n      mcopy\n        /* \"#utility.yul\":5262:5263   */\n      0x00\n        /* \"#utility.yul\":5253:5259   */\n      dup4\n        /* \"#utility.yul\":5248:5251   */\n      dup4\n        /* \"#utility.yul\":5244:5260   */\n      add\n        /* \"#utility.yul\":5237:5264   */\n      mstore\n        /* \"#utility.yul\":5132:5271   */\n      pop\n      pop\n      pop\n      jump\t// out\n        /* \"#utility.yul\":5277:5654   */\n    tag_87:\n        /* \"#utility.yul\":5365:5368   */\n      0x00\n        /* \"#utility.yul\":5393:5432   */\n      tag_175\n        /* \"#utility.yul\":5426:5431   */\n      dup3\n        /* \"#utility.yul\":5393:5432   */\n      tag_84\n      jump\t// in\n    tag_175:\n        /* \"#utility.yul\":5448:5519   */\n      tag_176\n        /* \"#utility.yul\":5512:5518   */\n      dup2\n        /* \"#utility.yul\":5507:5510   */\n      dup6\n        /* \"#utility.yul\":5448:5519   */\n      tag_85\n      jump\t// in\n    tag_176:\n        /* \"#utility.yul\":5441:5519   */\n      swap4\n      pop\n        /* \"#utility.yul\":5528:5593   */\n      tag_177\n        /* \"#utility.yul\":5586:5592   */\n      dup2\n        /* \"#utility.yul\":5581:5584   */\n      dup6\n        /* \"#utility.yul\":5574:5578   */\n      0x20\n        /* \"#utility.yul\":5567:5572   */\n      dup7\n        /* \"#utility.yul\":5563:5579   */\n      add\n        /* \"#utility.yul\":5528:5593   */\n      tag_86\n      jump\t// in\n    tag_177:\n        /* \"#utility.yul\":5618:5647   */\n      tag_178\n        /* \"#utility.yul\":5640:5646   */\n      dup2\n        /* \"#utility.yul\":5618:5647   */\n      tag_69\n      jump\t// in\n    tag_178:\n        /* \"#utility.yul\":5613:5616   */\n      dup5\n        /* \"#utility.yul\":5609:5648   */\n      add\n        /* \"#utility.yul\":5602:5648   */\n      swap2\n      pop\n        /* \"#utility.yul\":5369:5654   */\n      pop\n        /* \"#utility.yul\":5277:5654   */\n      swap3\n      swap2\n      pop\n      pop\n      jump\t// out\n        /* \"#utility.yul\":5660:5769   */\n    tag_88:\n        /* \"#utility.yul\":5741:5762   */\n      tag_180\n        /* \"#utility.yul\":5756:5761   */\n      dup2\n        /* \"#utility.yul\":5741:5762   */\n      tag_77\n      jump\t// in\n    tag_180:\n        /* \"#utility.yul\":5736:5739   */\n      dup3\n        /* \"#utility.yul\":5729:5763   */\n      mstore\n        /* \"#utility.yul\":5660:5769   */\n      pop\n      pop\n      jump\t// out\n        /* \"#utility.yul\":5775:6609   */\n    tag_16:\n        /* \"#utility.yul\":6014:6018   */\n      0x00\n        /* \"#utility.yul\":6052:6055   */\n      0xa0\n        /* \"#utility.yul\":6041:6050   */\n      dup3\n        /* \"#utility.yul\":6037:6056   */\n      add\n        /* \"#utility.yul\":6029:6056   */\n      swap1\n      pop\n        /* \"#utility.yul\":6066:6137   */\n      tag_182\n        /* \"#utility.yul\":6134:6135   */\n      0x00\n        /* \"#utility.yul\":6123:6132   */\n      dup4\n        /* \"#utility.yul\":6119:6136   */\n      add\n        /* \"#utility.yul\":6110:6116   */\n      dup9\n        /* \"#utility.yul\":6066:6137   */\n      tag_83\n      jump\t// in\n    tag_182:\n        /* \"#utility.yul\":6184:6193   */\n      dup2\n        /* \"#utility.yul\":6178:6182   */\n      dup2\n        /* \"#utility.yul\":6174:6194   */\n      sub\n        /* \"#utility.yul\":6169:6171   */\n      0x20\n        /* \"#utility.yul\":6158:6167   */\n      dup4\n        /* \"#utility.yul\":6154:6172   */\n      add\n        /* \"#utility.yul\":6147:6195   */\n      mstore\n        /* \"#utility.yul\":6212:6290   */\n      tag_183\n        /* \"#utility.yul\":6285:6289   */\n      dup2\n        /* \"#utility.yul\":6276:6282   */\n      dup8\n        /* \"#utility.yul\":6212:6290   */\n      tag_87\n      jump\t// in\n    tag_183:\n        /* \"#utility.yul\":6204:6290   */\n      swap1\n      pop\n        /* \"#utility.yul\":6337:6346   */\n      dup2\n        /* \"#utility.yul\":6331:6335   */\n      dup2\n        /* \"#utility.yul\":6327:6347   */\n      sub\n        /* \"#utility.yul\":6322:6324   */\n      0x40\n        /* \"#utility.yul\":6311:6320   */\n      dup4\n        /* \"#utility.yul\":6307:6325   */\n      add\n        /* \"#utility.yul\":6300:6348   */\n      mstore\n        /* \"#utility.yul\":6365:6443   */\n      tag_184\n        /* \"#utility.yul\":6438:6442   */\n      dup2\n        /* \"#utility.yul\":6429:6435   */\n      dup7\n        /* \"#utility.yul\":6365:6443   */\n      tag_87\n      jump\t// in\n    tag_184:\n        /* \"#utility.yul\":6357:6443   */\n      swap1\n      pop\n        /* \"#utility.yul\":6453:6519   */\n      tag_185\n        /* \"#utility.yul\":6515:6517   */\n      0x60\n        /* \"#utility.yul\":6504:6513   */\n      dup4\n        /* \"#utility.yul\":6500:6518   */\n      add\n        /* \"#utility.yul\":6491:6497   */\n      dup6\n        /* \"#utility.yul\":6453:6519   */\n      tag_88\n      jump\t// in\n    tag_185:\n        /* \"#utility.yul\":6529:6602   */\n      tag_186\n        /* \"#utility.yul\":6597:6600   */\n      0x80\n        /* \"#utility.yul\":6586:6595   */\n      dup4\n        /* \"#utility.yul\":6582:6601   */\n      add\n        /* \"#utility.yul\":6573:6579   */\n      dup5\n        /* \"#utility.yul\":6529:6602   */\n      tag_83\n      jump\t// in\n    tag_186:\n        /* \"#utility.yul\":5775:6609   */\n      swap7\n      swap6\n      pop\n      pop\n      pop\n      pop\n      pop\n      pop\n      jump\t// out\n        /* \"#utility.yul\":6615:6837   */\n    tag_20:\n        /* \"#utility.yul\":6708:6712   */\n      0x00\n        /* \"#utility.yul\":6746:6748   */\n      0x20\n        /* \"#utility.yul\":6735:6744   */\n      dup3\n        /* \"#utility.yul\":6731:6749   */\n      add\n        /* \"#utility.yul\":6723:6749   */\n      swap1\n      pop\n        /* \"#utility.yul\":6759:6830   */\n      tag_188\n        /* \"#utility.yul\":6827:6828   */\n      0x00\n        /* \"#utility.yul\":6816:6825   */\n      dup4\n        /* \"#utility.yul\":6812:6829   */\n      add\n        /* \"#utility.yul\":6803:6809   */\n      dup5\n        /* \"#utility.yul\":6759:6830   */\n      tag_83\n      jump\t// in\n    tag_188:\n        /* \"#utility.yul\":6615:6837   */\n      swap3\n      swap2\n      pop\n      pop\n      jump\t// out\n        /* \"#utility.yul\":6843:7357   */\n    tag_25:\n        /* \"#utility.yul\":7004:7008   */\n      0x00\n        /* \"#utility.yul\":7042:7044   */\n      0x40\n        /* \"#utility.yul\":7031:7040   */\n      dup3\n        /* \"#utility.yul\":7027:7045   */\n      add\n        /* \"#utility.yul\":7019:7045   */\n      swap1\n      pop\n        /* \"#utility.yul\":7091:7100   */\n      dup2\n        /* \"#utility.yul\":7085:7089   */\n      dup2\n        /* \"#utility.yul\":7081:7101   */\n      sub\n        /* \"#utility.yul\":7077:7078   */\n      0x00\n        /* \"#utility.yul\":7066:7075   */\n      dup4\n        /* \"#utility.yul\":7062:7079   */\n      add\n        /* \"#utility.yul\":7055:7102   */\n      mstore\n        /* \"#utility.yul\":7119:7197   */\n      tag_190\n        /* \"#utility.yul\":7192:7196   */\n      dup2\n        /* \"#utility.yul\":7183:7189   */\n      dup6\n        /* \"#utility.yul\":7119:7197   */\n      tag_87\n      jump\t// in\n    tag_190:\n        /* \"#utility.yul\":7111:7197   */\n      swap1\n      pop\n        /* \"#utility.yul\":7244:7253   */\n      dup2\n        /* \"#utility.yul\":7238:7242   */\n      dup2\n        /* \"#utility.yul\":7234:7254   */\n      sub\n        /* \"#utility.yul\":7229:7231   */\n      0x20\n        /* \"#utility.yul\":7218:7227   */\n      dup4\n        /* \"#utility.yul\":7214:7232   */\n      add\n        /* \"#utility.yul\":7207:7255   */\n      mstore\n        /* \"#utility.yul\":7272:7350   */\n      tag_191\n        /* \"#utility.yul\":7345:7349   */\n      dup2\n        /* \"#utility.yul\":7336:7342   */\n      dup5\n        /* \"#utility.yul\":7272:7350   */\n      tag_87\n      jump\t// in\n    tag_191:\n        /* \"#utility.yul\":7264:7350   */\n      swap1\n      pop\n        /* \"#utility.yul\":6843:7357   */\n      swap4\n      swap3\n      pop\n      pop\n      pop\n      jump\t// out\n        /* \"#utility.yul\":7363:7537   */\n    tag_89:\n        /* \"#utility.yul\":7503:7529   */\n      0x4f6e6c79206f776e65722063616e2061646420626f6f6b730000000000000000\n        /* \"#utility.yul\":7499:7500   */\n      0x00\n        /* \"#utility.yul\":7491:7497   */\n      dup3\n        /* \"#utility.yul\":7487:7501   */\n      add\n        /* \"#utility.yul\":7480:7530   */\n      mstore\n        /* \"#utility.yul\":7363:7537   */\n      pop\n      jump\t// out\n        /* \"#utility.yul\":7543:7909   */\n    tag_90:\n        /* \"#utility.yul\":7685:7688   */\n      0x00\n        /* \"#utility.yul\":7706:7773   */\n      tag_194\n        /* \"#utility.yul\":7770:7772   */\n      0x18\n        /* \"#utility.yul\":7765:7768   */\n      dup4\n        /* \"#utility.yul\":7706:7773   */\n      tag_85\n      jump\t// in\n    tag_194:\n        /* \"#utility.yul\":7699:7773   */\n      swap2\n      pop\n        /* \"#utility.yul\":7782:7875   */\n      tag_195\n        /* \"#utility.yul\":7871:7874   */\n      dup3\n        /* \"#utility.yul\":7782:7875   */\n      tag_89\n      jump\t// in\n    tag_195:\n        /* \"#utility.yul\":7900:7902   */\n      0x20\n        /* \"#utility.yul\":7895:7898   */\n      dup3\n        /* \"#utility.yul\":7891:7903   */\n      add\n        /* \"#utility.yul\":7884:7903   */\n      swap1\n      pop\n        /* \"#utility.yul\":7543:7909   */\n      swap2\n      swap1\n      pop\n      jump\t// out\n        /* \"#utility.yul\":7915:8334   */\n    tag_29:\n        /* \"#utility.yul\":8081:8085   */\n      0x00\n        /* \"#utility.yul\":8119:8121   */\n      0x20\n        /* \"#utility.yul\":8108:8117   */\n      dup3\n        /* \"#utility.yul\":8104:8122   */\n      add\n        /* \"#utility.yul\":8096:8122   */\n      swap1\n      pop\n        /* \"#utility.yul\":8168:8177   */\n      dup2\n        /* \"#utility.yul\":8162:8166   */\n      dup2\n        /* \"#utility.yul\":8158:8178   */\n      sub\n        /* \"#utility.yul\":8154:8155   */\n      0x00\n        /* \"#utility.yul\":8143:8152   */\n      dup4\n        /* \"#utility.yul\":8139:8156   */\n      add\n        /* \"#utility.yul\":8132:8179   */\n      mstore\n        /* \"#utility.yul\":8196:8327   */\n      tag_197\n        /* \"#utility.yul\":8322:8326   */\n      dup2\n        /* \"#utility.yul\":8196:8327   */\n      tag_90\n      jump\t// in\n    tag_197:\n        /* \"#utility.yul\":8188:8327   */\n      swap1\n      pop\n        /* \"#utility.yul\":7915:8334   */\n      swap2\n      swap1\n      pop\n      jump\t// out\n        /* \"#utility.yul\":8340:8520   */\n    tag_91:\n        /* \"#utility.yul\":8388:8465   */\n      0x4e487b7100000000000000000000000000000000000000000000000000000000\n        /* \"#utility.yul\":8385:8386   */\n      0x00\n        /* \"#utility.yul\":8378:8466   */\n      mstore\n        /* \"#utility.yul\":8485:8489   */\n      0x22\n        /* \"#utility.yul\":8482:8483   */\n      0x04\n        /* \"#utility.yul\":8475:8490   */\n      mstore\n        /* \"#utility.yul\":8509:8513   */\n      0x24\n        /* \"#utility.yul\":8506:8507   */\n      0x00\n        /* \"#utility.yul\":8499:8514   */\n      revert\n        /* \"#utility.yul\":8526:8846   */\n    tag_36:\n        /* \"#utility.yul\":8570:8576   */\n      0x00\n        /* \"#utility.yul\":8607:8608   */\n      0x02\n        /* \"#utility.yul\":8601:8605   */\n      dup3\n        /* \"#utility.yul\":8597:8609   */\n      div\n        /* \"#utility.yul\":8587:8609   */\n      swap1\n      pop\n        /* \"#utility.yul\":8654:8655   */\n      0x01\n        /* \"#utility.yul\":8648:8652   */\n      dup3\n        /* \"#utility.yul\":8644:8656   */\n      and\n        /* \"#utility.yul\":8675:8693   */\n      dup1\n        /* \"#utility.yul\":8665:8746   */\n      tag_200\n      jumpi\n        /* \"#utility.yul\":8731:8735   */\n      0x7f\n        /* \"#utility.yul\":8723:8729   */\n      dup3\n        /* \"#utility.yul\":8719:8736   */\n      and\n        /* \"#utility.yul\":8709:8736   */\n      swap2\n      pop\n        /* \"#utility.yul\":8665:8746   */\n    tag_200:\n        /* \"#utility.yul\":8793:8795   */\n      0x20\n        /* \"#utility.yul\":8785:8791   */\n      dup3\n        /* \"#utility.yul\":8782:8796   */\n      lt\n        /* \"#utility.yul\":8762:8780   */\n      dup2\n        /* \"#utility.yul\":8759:8797   */\n      sub\n        /* \"#utility.yul\":8756:8840   */\n      tag_201\n      jumpi\n        /* \"#utility.yul\":8812:8830   */\n      tag_202\n      tag_91\n      jump\t// in\n    tag_202:\n        /* \"#utility.yul\":8756:8840   */\n    tag_201:\n        /* \"#utility.yul\":8577:8846   */\n      pop\n        /* \"#utility.yul\":8526:8846   */\n      swap2\n      swap1\n      pop\n      jump\t// out\n        /* \"#utility.yul\":8852:8993   */\n    tag_92:\n        /* \"#utility.yul\":8901:8905   */\n      0x00\n        /* \"#utility.yul\":8924:8927   */\n      dup2\n        /* \"#utility.yul\":8916:8927   */\n      swap1\n      pop\n        /* \"#utility.yul\":8947:8950   */\n      dup2\n        /* \"#utility.yul\":8944:8945   */\n      0x00\n        /* \"#utility.yul\":8937:8951   */\n      mstore\n        /* \"#utility.yul\":8981:8985   */\n      0x20\n        /* \"#utility.yul\":8978:8979   */\n      0x00\n        /* \"#utility.yul\":8968:8986   */\n      keccak256\n        /* \"#utility.yul\":8960:8986   */\n      swap1\n      pop\n        /* \"#utility.yul\":8852:8993   */\n      swap2\n      swap1\n      pop\n      jump\t// out\n        /* \"#utility.yul\":8999:9092   */\n    tag_93:\n        /* \"#utility.yul\":9036:9042   */\n      0x00\n        /* \"#utility.yul\":9083:9085   */\n      0x20\n        /* \"#utility.yul\":9078:9080   */\n      0x1f\n        /* \"#utility.yul\":9071:9076   */\n      dup4\n        /* \"#utility.yul\":9067:9081   */\n      add\n        /* \"#utility.yul\":9063:9086   */\n      div\n        /* \"#utility.yul\":9053:9086   */\n      swap1\n      pop\n        /* \"#utility.yul\":8999:9092   */\n      swap2\n      swap1\n      pop\n      jump\t// out\n        /* \"#utility.yul\":9098:9205   */\n    tag_94:\n        /* \"#utility.yul\":9142:9150   */\n      0x00\n        /* \"#utility.yul\":9192:9197   */\n      dup3\n        /* \"#utility.yul\":9186:9190   */\n      dup3\n        /* \"#utility.yul\":9182:9198   */\n      shl\n        /* \"#utility.yul\":9161:9198   */\n      swap1\n      pop\n        /* \"#utility.yul\":9098:9205   */\n      swap3\n      swap2\n      pop\n      pop\n      jump\t// out\n        /* \"#utility.yul\":9211:9604   */\n    tag_95:\n        /* \"#utility.yul\":9280:9286   */\n      0x00\n        /* \"#utility.yul\":9330:9331   */\n      0x08\n        /* \"#utility.yul\":9318:9328   */\n      dup4\n        /* \"#utility.yul\":9314:9332   */\n      mul\n        /* \"#utility.yul\":9353:9450   */\n      tag_207\n        /* \"#utility.yul\":9383:9449   */\n      0xffffffffffffffffffffffffffffffffffffffffffffffffffffffffffffffff\n        /* \"#utility.yul\":9372:9381   */\n      dup3\n        /* \"#utility.yul\":9353:9450   */\n      tag_94\n      jump\t// in\n    tag_207:\n        /* \"#utility.yul\":9471:9510   */\n      tag_208\n        /* \"#utility.yul\":9501:9509   */\n      dup7\n        /* \"#utility.yul\":9490:9499   */\n      dup4\n        /* \"#utility.yul\":9471:9510   */\n      tag_94\n      jump\t// in\n    tag_208:\n        /* \"#utility.yul\":9459:9510   */\n      swap6\n      pop\n        /* \"#utility.yul\":9543:9547   */\n      dup1\n        /* \"#utility.yul\":9539:9548   */\n      not\n        /* \"#utility.yul\":9532:9537   */\n      dup5\n        /* \"#utility.yul\":9528:9549   */\n      and\n        /* \"#utility.yul\":9519:9549   */\n      swap4\n      pop\n        /* \"#utility.yul\":9592:9596   */\n      dup1\n        /* \"#utility.yul\":9582:9590   */\n      dup7\n        /* \"#utility.yul\":9578:9597   */\n      and\n        /* \"#utility.yul\":9571:9576   */\n      dup5\n        /* \"#utility.yul\":9568:9598   */\n      or\n        /* \"#utility.yul\":9558:9598   */\n      swap3\n      pop\n        /* \"#utility.yul\":9287:9604   */\n      pop\n      pop\n        /* \"#utility.yul\":9211:9604   */\n      swap4\n      swap3\n      pop\n      pop\n      pop\n      jump\t// out\n        /* \"#utility.yul\":9610:9670   */\n    tag_96:\n        /* \"#utility.yul\":9638:9641   */\n      0x00\n        /* \"#utility.yul\":9659:9664   */\n      dup2\n        /* \"#utility.yul\":9652:9664   */\n      swap1\n      pop\n        /* \"#utility.yul\":9610:9670   */\n      swap2\n      swap1\n      pop\n      jump\t// out\n        /* \"#utility.yul\":9676:9818   */\n    tag_97:\n        /* \"#utility.yul\":9726:9735   */\n      0x00\n        /* \"#utility.yul\":9759:9812   */\n      tag_211\n        /* \"#utility.yul\":9777:9811   */\n      tag_212\n        /* \"#utility.yul\":9786:9810   */\n      tag_213\n        /* \"#utility.yul\":9804:9809   */\n      dup5\n        /* \"#utility.yul\":9786:9810   */\n      tag_80\n      jump\t// in\n    tag_213:\n        /* \"#utility.yul\":9777:9811   */\n      tag_96\n      jump\t// in\n    tag_212:\n        /* \"#utility.yul\":9759:9812   */\n      tag_80\n      jump\t// in\n    tag_211:\n        /* \"#utility.yul\":9746:9812   */\n      swap1\n      pop\n        /* \"#utility.yul\":9676:9818   */\n      swap2\n      swap1\n      pop\n      jump\t// out\n        /* \"#utility.yul\":9824:9899   */\n    tag_98:\n        /* \"#utility.yul\":9867:9870   */\n      0x00\n        /* \"#utility.yul\":9888:9893   */\n      dup2\n        /* \"#utility.yul\":9881:9893   */\n      swap1\n      pop\n        /* \"#utility.yul\":9824:9899   */\n      swap2\n      swap1\n      pop\n      jump\t// out\n        /* \"#utility.yul\":9905:10174   */\n    tag_99:\n        /* \"#utility.yul\":10015:10054   */\n      tag_216\n        /* \"#utility.yul\":10046:10053   */\n      dup4\n        /* \"#utility.yul\":10015:10054   */\n      tag_97\n      jump\t// in\n    tag_216:\n        /* \"#utility.yul\":10076:10167   */\n      tag_217\n        /* \"#utility.yul\":10125:10166   */\n      tag_218\n        /* \"#utility.yul\":10149:10165   */\n      dup3\n        /* \"#utility.yul\":10125:10166   */\n      tag_98\n      jump\t// in\n    tag_218:\n        /* \"#utility.yul\":10117:10123   */\n      dup5\n        /* \"#utility.yul\":10110:10114   */\n      dup5\n        /* \"#utility.yul\":10104:10115   */\n      sload\n        /* \"#utility.yul\":10076:10167   */\n      tag_95\n      jump\t// in\n    tag_217:\n        /* \"#utility.yul\":10070:10074   */\n      dup3\n        /* \"#utility.yul\":10063:10168   */\n      sstore\n        /* \"#utility.yul\":9981:10174   */\n      pop\n        /* \"#utility.yul\":9905:10174   */\n      pop\n      pop\n      pop\n      jump\t// out\n        /* \"#utility.yul\":10180:10253   */\n    tag_100:\n        /* \"#utility.yul\":10225:10228   */\n      0x00\n        /* \"#utility.yul\":10180:10253   */\n      swap1\n      jump\t// out\n        /* \"#utility.yul\":10259:10448   */\n    tag_101:\n        /* \"#utility.yul\":10336:10368   */\n      tag_221\n      tag_100\n      jump\t// in\n    tag_221:\n        /* \"#utility.yul\":10377:10442   */\n      tag_222\n        /* \"#utility.yul\":10435:10441   */\n      dup2\n        /* \"#utility.yul\":10427:10433   */\n      dup5\n        /* \"#utility.yul\":10421:10425   */\n      dup5\n        /* \"#utility.yul\":10377:10442   */\n      tag_99\n      jump\t// in\n    tag_222:\n        /* \"#utility.yul\":10312:10448   */\n      pop\n        /* \"#utility.yul\":10259:10448   */\n      pop\n      pop\n      jump\t// out\n        /* \"#utility.yul\":10454:10640   */\n    tag_102:\n        /* \"#utility.yul\":10514:10634   */\n    tag_224:\n        /* \"#utility.yul\":10531:10534   */\n      dup2\n        /* \"#utility.yul\":10524:10529   */\n      dup2\n        /* \"#utility.yul\":10521:10535   */\n      lt\n        /* \"#utility.yul\":10514:10634   */\n      iszero\n      tag_226\n      jumpi\n        /* \"#utility.yul\":10585:10624   */\n      tag_227\n        /* \"#utility.yul\":10622:10623   */\n      0x00\n        /* \"#utility.yul\":10615:10620   */\n      dup3\n        /* \"#utility.yul\":10585:10624   */\n      tag_101\n      jump\t// in\n    tag_227:\n        /* \"#utility.yul\":10558:10559   */\n      0x01\n        /* \"#utility.yul\":10551:10556   */\n      dup2\n        /* \"#utility.yul\":10547:10560   */\n      add\n        /* \"#utility.yul\":10538:10560   */\n      swap1\n      pop\n        /* \"#utility.yul\":10514:10634   */\n      jump(tag_224)\n    tag_226:\n        /* \"#utility.yul\":10454:10640   */\n      pop\n      pop\n      jump\t// out\n        /* \"#utility.yul\":10646:11189   */\n    tag_103:\n        /* \"#utility.yul\":10747:10749   */\n      0x1f\n        /* \"#utility.yul\":10742:10745   */\n      dup3\n        /* \"#utility.yul\":10739:10750   */\n      gt\n        /* \"#utility.yul\":10736:11182   */\n      iszero\n      tag_229\n      jumpi\n        /* \"#utility.yul\":10781:10819   */\n      tag_230\n        /* \"#utility.yul\":10813:10818   */\n      dup2\n        /* \"#utility.yul\":10781:10819   */\n      tag_92\n      jump\t// in\n    tag_230:\n        /* \"#utility.yul\":10865:10894   */\n      tag_231\n        /* \"#utility.yul\":10883:10893   */\n      dup5\n        /* \"#utility.yul\":10865:10894   */\n      tag_93\n      jump\t// in\n    tag_231:\n        /* \"#utility.yul\":10855:10863   */\n      dup2\n        /* \"#utility.yul\":10851:10895   */\n      add\n        /* \"#utility.yul\":11048:11050   */\n      0x20\n        /* \"#utility.yul\":11036:11046   */\n      dup6\n        /* \"#utility.yul\":11033:11051   */\n      lt\n        /* \"#utility.yul\":11030:11079   */\n      iszero\n      tag_232\n      jumpi\n        /* \"#utility.yul\":11069:11077   */\n      dup2\n        /* \"#utility.yul\":11054:11077   */\n      swap1\n      pop\n        /* \"#utility.yul\":11030:11079   */\n    tag_232:\n        /* \"#utility.yul\":11092:11172   */\n      tag_233\n        /* \"#utility.yul\":11148:11170   */\n      tag_234\n        /* \"#utility.yul\":11166:11169   */\n      dup6\n        /* \"#utility.yul\":11148:11170   */\n      tag_93\n      jump\t// in\n    tag_234:\n        /* \"#utility.yul\":11138:11146   */\n      dup4\n        /* \"#utility.yul\":11134:11171   */\n      add\n        /* \"#utility.yul\":11121:11132   */\n      dup3\n        /* \"#utility.yul\":11092:11172   */\n      tag_102\n      jump\t// in\n    tag_233:\n        /* \"#utility.yul\":10751:11182   */\n      pop\n      pop\n        /* \"#utility.yul\":10736:11182   */\n    tag_229:\n        /* \"#utility.yul\":10646:11189   */\n      pop\n      pop\n      pop\n      jump\t// out\n        /* \"#utility.yul\":11195:11312   */\n    tag_104:\n        /* \"#utility.yul\":11249:11257   */\n      0x00\n        /* \"#utility.yul\":11299:11304   */\n      dup3\n        /* \"#utility.yul\":11293:11297   */\n      dup3\n        /* \"#utility.yul\":11289:11305   */\n      shr\n        /* \"#utility.yul\":11268:11305   */\n      swap1\n      pop\n        /* \"#utility.yul\":11195:11312   */\n      swap3\n      swap2\n      pop\n      pop\n      jump\t// out\n        /* \"#utility.yul\":11318:11487   */\n    tag_105:\n        /* \"#utility.yul\":11362:11368   */\n      0x00\n        /* \"#utility.yul\":11395:11446   */\n      tag_237\n        /* \"#utility.yul\":11443:11444   */\n      0x00\n        /* \"#utility.yul\":11439:11445   */\n      not\n        /* \"#utility.yul\":11431:11436   */\n      dup5\n        /* \"#utility.yul\":11428:11429   */\n      0x08\n        /* \"#utility.yul\":11424:11437   */\n      mul\n        /* \"#utility.yul\":11395:11446   */\n      tag_104\n      jump\t// in\n    tag_237:\n        /* \"#utility.yul\":11391:11447   */\n      not\n        /* \"#utility.yul\":11476:11480   */\n      dup1\n        /* \"#utility.yul\":11470:11474   */\n      dup4\n        /* \"#utility.yul\":11466:11481   */\n      and\n        /* \"#utility.yul\":11456:11481   */\n      swap2\n      pop\n        /* \"#utility.yul\":11369:11487   */\n      pop\n        /* \"#utility.yul\":11318:11487   */\n      swap3\n      swap2\n      pop\n      pop\n      jump\t// out\n        /* \"#utility.yul\":11492:11787   */\n    tag_106:\n        /* \"#utility.yul\":11568:11572   */\n      0x00\n        /* \"#utility.yul\":11714:11743   */\n      tag_239\n        /* \"#utility.yul\":11739:11742   */\n      dup4\n        /* \"#utility.yul\":11733:11737   */\n      dup4\n        /* \"#utility.yul\":11714:11743   */\n      tag_105\n      jump\t// in\n    tag_239:\n        /* \"#utility.yul\":11706:11743   */\n      swap2\n      pop\n        /* \"#utility.yul\":11776:11779   */\n      dup3\n        /* \"#utility.yul\":11773:11774   */\n      0x02\n        /* \"#utility.yul\":11769:11780   */\n      mul\n        /* \"#utility.yul\":11763:11767   */\n      dup3\n        /* \"#utility.yul\":11760:11781   */\n      or\n        /* \"#utility.yul\":11752:11781   */\n      swap1\n      pop\n        /* \"#utility.yul\":11492:11787   */\n      swap3\n      swap2\n      pop\n      pop\n      jump\t// out\n        /* \"#utility.yul\":11792:13187   */\n    tag_31:\n        /* \"#utility.yul\":11909:11946   */\n      tag_241\n        /* \"#utility.yul\":11942:11945   */\n      dup3\n        /* \"#utility.yul\":11909:11946   */\n      tag_84\n      jump\t// in\n    tag_241:\n        /* \"#utility.yul\":12011:12029   */\n      0xffffffffffffffff\n        /* \"#utility.yul\":12003:12009   */\n      dup2\n        /* \"#utility.yul\":12000:12030   */\n      gt\n        /* \"#utility.yul\":11997:12053   */\n      iszero\n      tag_242\n      jumpi\n        /* \"#utility.yul\":12033:12051   */\n      tag_243\n      tag_70\n      jump\t// in\n    tag_243:\n        /* \"#utility.yul\":11997:12053   */\n    tag_242:\n        /* \"#utility.yul\":12077:12115   */\n      tag_244\n        /* \"#utility.yul\":12109:12113   */\n      dup3\n        /* \"#utility.yul\":12103:12114   */\n      sload\n        /* \"#utility.yul\":12077:12115   */\n      tag_36\n      jump\t// in\n    tag_244:\n        /* \"#utility.yul\":12162:12229   */\n      tag_245\n        /* \"#utility.yul\":12222:12228   */\n      dup3\n        /* \"#utility.yul\":12214:12220   */\n      dup3\n        /* \"#utility.yul\":12208:12212   */\n      dup6\n        /* \"#utility.yul\":12162:12229   */\n      tag_103\n      jump\t// in\n    tag_245:\n        /* \"#utility.yul\":12256:12257   */\n      0x00\n        /* \"#utility.yul\":12280:12284   */\n      0x20\n        /* \"#utility.yul\":12267:12284   */\n      swap1\n      pop\n        /* \"#utility.yul\":12312:12314   */\n      0x1f\n        /* \"#utility.yul\":12304:12310   */\n      dup4\n        /* \"#utility.yul\":12301:12315   */\n      gt\n        /* \"#utility.yul\":12329:12330   */\n      0x01\n        /* \"#utility.yul\":12324:12942   */\n      dup2\n      eq\n      tag_247\n      jumpi\n        /* \"#utility.yul\":12986:12987   */\n      0x00\n        /* \"#utility.yul\":13003:13009   */\n      dup5\n        /* \"#utility.yul\":13000:13077   */\n      iszero\n      tag_248\n      jumpi\n        /* \"#utility.yul\":13052:13061   */\n      dup3\n        /* \"#utility.yul\":13047:13050   */\n      dup8\n        /* \"#utility.yul\":13043:13062   */\n      add\n        /* \"#utility.yul\":13037:13063   */\n      mload\n        /* \"#utility.yul\":13028:13063   */\n      swap1\n      pop\n        /* \"#utility.yul\":13000:13077   */\n    tag_248:\n        /* \"#utility.yul\":13103:13170   */\n      tag_249\n        /* \"#utility.yul\":13163:13169   */\n      dup6\n        /* \"#utility.yul\":13156:13161   */\n      dup3\n        /* \"#utility.yul\":13103:13170   */\n      tag_106\n      jump\t// in\n    tag_249:\n        /* \"#utility.yul\":13097:13101   */\n      dup7\n        /* \"#utility.yul\":13090:13171   */\n      sstore\n        /* \"#utility.yul\":12959:13181   */\n      pop\n        /* \"#utility.yul\":12294:13181   */\n      jump(tag_246)\n        /* \"#utility.yul\":12324:12942   */\n    tag_247:\n        /* \"#utility.yul\":12376:12380   */\n      0x1f\n        /* \"#utility.yul\":12372:12381   */\n      not\n        /* \"#utility.yul\":12364:12370   */\n      dup5\n        /* \"#utility.yul\":12360:12382   */\n      and\n        /* \"#utility.yul\":12410:12447   */\n      tag_250\n        /* \"#utility.yul\":12442:12446   */\n      dup7\n        /* \"#utility.yul\":12410:12447   */\n      tag_92\n      jump\t// in\n    tag_250:\n        /* \"#utility.yul\":12469:12470   */\n      0x00\n        /* \"#utility.yul\":12483:12691   */\n    tag_251:\n        /* \"#utility.yul\":12497:12504   */\n      dup3\n        /* \"#utility.yul\":12494:12495   */\n      dup2\n        /* \"#utility.yul\":12491:12505   */\n      lt\n        /* \"#utility.yul\":12483:12691   */\n      iszero\n      tag_253\n      jumpi\n        /* \"#utility.yul\":12576:12585   */\n      dup5\n        /* \"#utility.yul\":12571:12574   */\n      dup10\n        /* \"#utility.yul\":12567:12586   */\n      add\n        /* \"#utility.yul\":12561:12587   */\n      mload\n        /* \"#utility.yul\":12553:12559   */\n      dup3\n        /* \"#utility.yul\":12546:12588   */\n      sstore\n        /* \"#utility.yul\":12627:12628   */\n      0x01\n        /* \"#utility.yul\":12619:12625   */\n      dup3\n        /* \"#utility.yul\":12615:12629   */\n      add\n        /* \"#utility.yul\":12605:12629   */\n      swap2\n      pop\n        /* \"#utility.yul\":12674:12676   */\n      0x20\n        /* \"#utility.yul\":12663:12672   */\n      dup6\n        /* \"#utility.yul\":12659:12677   */\n      add\n        /* \"#utility.yul\":12646:12677   */\n      swap5\n      pop\n        /* \"#utility.yul\":12520:12524   */\n      0x20\n        /* \"#utility.yul\":12517:12518   */\n      dup2\n        /* \"#utility.yul\":12513:12525   */\n      add\n        /* \"#utility.yul\":12508:12525   */\n      swap1\n      pop\n        /* \"#utility.yul\":12483:12691   */\n      jump(tag_251)\n    tag_253:\n        /* \"#utility.yul\":12719:12725   */\n      dup7\n        /* \"#utility.yul\":12710:12717   */\n      dup4\n        /* \"#utility.yul\":12707:12726   */\n      lt\n        /* \"#utility.yul\":12704:12883   */\n      iszero\n      tag_254\n      jumpi\n        /* \"#utility.yul\":12777:12786   */\n      dup5\n        /* \"#utility.yul\":12772:12775   */\n      dup10\n        /* \"#utility.yul\":12768:12787   */\n      add\n        /* \"#utility.yul\":12762:12788   */\n      mload\n        /* \"#utility.yul\":12820:12868   */\n      tag_255\n        /* \"#utility.yul\":12862:12866   */\n      0x1f\n        /* \"#utility.yul\":12854:12860   */\n      dup10\n        /* \"#utility.yul\":12850:12867   */\n      and\n        /* \"#utility.yul\":12839:12848   */\n      dup3\n        /* \"#utility.yul\":12820:12868   */\n      tag_105\n      jump\t// in\n    tag_255:\n        /* \"#utility.yul\":12812:12818   */\n      dup4\n        /* \"#utility.yul\":12805:12869   */\n      sstore\n        /* \"#utility.yul\":12727:12883   */\n      pop\n        /* \"#utility.yul\":12704:12883   */\n    tag_254:\n        /* \"#utility.yul\":12929:12930   */\n      0x01\n        /* \"#utility.yul\":12925:12926   */\n      0x02\n        /* \"#utility.yul\":12917:12923   */\n      dup9\n        /* \"#utility.yul\":12913:12927   */\n      mul\n        /* \"#utility.yul\":12909:12931   */\n      add\n        /* \"#utility.yul\":12903:12907   */\n      dup9\n        /* \"#utility.yul\":12896:12932   */\n      sstore\n        /* \"#utility.yul\":12331:12942   */\n      pop\n      pop\n      pop\n        /* \"#utility.yul\":12294:13181   */\n    tag_246:\n      pop\n        /* \"#utility.yul\":11884:13187   */\n      pop\n      pop\n      pop\n        /* \"#utility.yul\":11792:13187   */\n      pop\n      pop\n      jump\t// out\n        /* \"#utility.yul\":13193:13373   */\n    tag_107:\n        /* \"#utility.yul\":13241:13318   */\n      0x4e487b7100000000000000000000000000000000000000000000000000000000\n        /* \"#utility.yul\":13238:13239   */\n      0x00\n        /* \"#utility.yul\":13231:13319   */\n      mstore\n        /* \"#utility.yul\":13338:13342   */\n      0x11\n        /* \"#utility.yul\":13335:13336   */\n      0x04\n        /* \"#utility.yul\":13328:13343   */\n      mstore\n        /* \"#utility.yul\":13362:13366   */\n      0x24\n        /* \"#utility.yul\":13359:13360   */\n      0x00\n        /* \"#utility.yul\":13352:13367   */\n      revert\n        /* \"#utility.yul\":13379:13612   */\n    tag_34:\n        /* \"#utility.yul\":13418:13421   */\n      0x00\n        /* \"#utility.yul\":13441:13465   */\n      tag_258\n        /* \"#utility.yul\":13459:13464   */\n      dup3\n        /* \"#utility.yul\":13441:13465   */\n      tag_80\n      jump\t// in\n    tag_258:\n        /* \"#utility.yul\":13432:13465   */\n      swap2\n      pop\n        /* \"#utility.yul\":13487:13553   */\n      0xffffffffffffffffffffffffffffffffffffffffffffffffffffffffffffffff\n        /* \"#utility.yul\":13480:13485   */\n      dup3\n        /* \"#utility.yul\":13477:13554   */\n      sub\n        /* \"#utility.yul\":13474:13577   */\n      tag_259\n      jumpi\n        /* \"#utility.yul\":13557:13575   */\n      tag_260\n      tag_107\n      jump\t// in\n    tag_260:\n        /* \"#utility.yul\":13474:13577   */\n    tag_259:\n        /* \"#utility.yul\":13604:13605   */\n      0x01\n        /* \"#utility.yul\":13597:13602   */\n      dup3\n        /* \"#utility.yul\":13593:13606   */\n      add\n        /* \"#utility.yul\":13586:13606   */\n      swap1\n      pop\n        /* \"#utility.yul\":13379:13612   */\n      swap2\n      swap1\n      pop\n      jump\t// out\n        /* \"#utility.yul\":13618:13782   */\n    tag_108:\n        /* \"#utility.yul\":13758:13774   */\n      0x426f6f6b206e6f7420666f756e64000000000000000000000000000000000000\n        /* \"#utility.yul\":13754:13755   */\n      0x00\n        /* \"#utility.yul\":13746:13752   */\n      dup3\n        /* \"#utility.yul\":13742:13756   */\n      add\n        /* \"#utility.yul\":13735:13775   */\n      mstore\n        /* \"#utility.yul\":13618:13782   */\n      pop\n      jump\t// out\n        /* \"#utility.yul\":13788:14154   */\n    tag_109:\n        /* \"#utility.yul\":13930:13933   */\n      0x00\n        /* \"#utility.yul\":13951:14018   */\n      tag_263\n        /* \"#utility.yul\":14015:14017   */\n      0x0e\n        /* \"#utility.yul\":14010:14013   */\n      dup4\n        /* \"#utility.yul\":13951:14018   */\n      tag_85\n      jump\t// in\n    tag_263:\n        /* \"#utility.yul\":13944:14018   */\n      swap2\n      pop\n        /* \"#utility.yul\":14027:14120   */\n      tag_264\n        /* \"#utility.yul\":14116:14119   */\n      dup3\n        /* \"#utility.yul\":14027:14120   */\n      tag_108\n      jump\t// in\n    tag_264:\n        /* \"#utility.yul\":14145:14147   */\n      0x20\n        /* \"#utility.yul\":14140:14143   */\n      dup3\n        /* \"#utility.yul\":14136:14148   */\n      add\n        /* \"#utility.yul\":14129:14148   */\n      swap1\n      pop\n        /* \"#utility.yul\":13788:14154   */\n      swap2\n      swap1\n      pop\n      jump\t// out\n        /* \"#utility.yul\":14160:14579   */\n    tag_59:\n        /* \"#utility.yul\":14326:14330   */\n      0x00\n        /* \"#utility.yul\":14364:14366   */\n      0x20\n        /* \"#utility.yul\":14353:14362   */\n      dup3\n        /* \"#utility.yul\":14349:14367   */\n      add\n        /* \"#utility.yul\":14341:14367   */\n      swap1\n      pop\n        /* \"#utility.yul\":14413:14422   */\n      dup2\n        /* \"#utility.yul\":14407:14411   */\n      dup2\n        /* \"#utility.yul\":14403:14423   */\n      sub\n        /* \"#utility.yul\":14399:14400   */\n      0x00\n        /* \"#utility.yul\":14388:14397   */\n      dup4\n        /* \"#utility.yul\":14384:14401   */\n      add\n        /* \"#utility.yul\":14377:14424   */\n      mstore\n        /* \"#utility.yul\":14441:14572   */\n      tag_266\n        /* \"#utility.yul\":14567:14571   */\n      dup2\n        /* \"#utility.yul\":14441:14572   */\n      tag_109\n      jump\t// in\n    tag_266:\n        /* \"#utility.yul\":14433:14572   */\n      swap1\n      pop\n        /* \"#utility.yul\":14160:14579   */\n      swap2\n      swap1\n      pop\n      jump\t// out\n        /* \"#utility.yul\":14585:14756   */\n    tag_110:\n        /* \"#utility.yul\":14725:14748   */\n      0x5072656d69756d20706c616e2072657175697265640000000000000000000000\n        /* \"#utility.yul\":14721:14722   */\n      0x00\n        /* \"#utility.yul\":14713:14719   */\n      dup3\n        /* \"#utility.yul\":14709:14723   */\n      add\n        /* \"#utility.yul\":14702:14749   */\n      mstore\n        /* \"#utility.yul\":14585:14756   */\n      pop\n      jump\t// out\n        /* \"#utility.yul\":14762:15128   */\n    tag_111:\n        /* \"#utility.yul\":14904:14907   */\n      0x00\n        /* \"#utility.yul\":14925:14992   */\n      tag_269\n        /* \"#utility.yul\":14989:14991   */\n      0x15\n        /* \"#utility.yul\":14984:14987   */\n      dup4\n        /* \"#utility.yul\":14925:14992   */\n      tag_85\n      jump\t// in\n    tag_269:\n        /* \"#utility.yul\":14918:14992   */\n      swap2\n      pop\n        /* \"#utility.yul\":15001:15094   */\n      tag_270\n        /* \"#utility.yul\":15090:15093   */\n      dup3\n        /* \"#utility.yul\":15001:15094   */\n      tag_110\n      jump\t// in\n    tag_270:\n        /* \"#utility.yul\":15119:15121   */\n      0x20\n        /* \"#utility.yul\":15114:15117   */\n      dup3\n        /* \"#utility.yul\":15110:15122   */\n      add\n        /* \"#utility.yul\":15103:15122   */\n      swap1\n      pop\n        /* \"#utility.yul\":14762:15128   */\n      swap2\n      swap1\n      pop\n      jump\t// out\n        /* \"#utility.yul\":15134:15553   */\n    tag_63:\n        /* \"#utility.yul\":15300:15304   */\n      0x00\n        /* \"#utility.yul\":15338:15340   */\n      0x20\n        /* \"#utility.yul\":15327:15336   */\n      dup3\n        /* \"#utility.yul\":15323:15341   */\n      add\n        /* \"#utility.yul\":15315:15341   */\n      swap1\n      pop\n        /* \"#utility.yul\":15387:15396   */\n      dup2\n        /* \"#utility.yul\":15381:15385   */\n      dup2\n        /* \"#utility.yul\":15377:15397   */\n      sub\n        /* \"#utility.yul\":15373:15374   */\n      0x00\n        /* \"#utility.yul\":15362:15371   */\n      dup4\n        /* \"#utility.yul\":15358:15375   */\n      add\n        /* \"#utility.yul\":15351:15398   */\n      mstore\n        /* \"#utility.yul\":15415:15546   */\n      tag_272\n        /* \"#utility.yul\":15541:15545   */\n      dup2\n        /* \"#utility.yul\":15415:15546   */\n      tag_111\n      jump\t// in\n    tag_272:\n        /* \"#utility.yul\":15407:15546   */\n      swap1\n      pop\n        /* \"#utility.yul\":15134:15553   */\n      swap2\n      swap1\n      pop\n      jump\t// out\n\n    auxdata: 0xa26469706673582212203ad24a57e1be9d994c2151c8d0dac44ff7f3c95934b8f3e7d88baa9fe5867eb364736f6c63430008190033\n}\n",
				"bytecode": {
					"linkReferences": {},
					"object": "608060405234801561000f575f80fd5b506040518060a00160405280600181526020016040518060400160405280600b81526020017f4672656520426f6f6b203100000000000000000000000000000000000000000081525081526020016040518060400160405280600881526020017f417574686f72203100000000000000000000000000000000000000000000000081525081526020015f151581526020015f8152505f80600181526020019081526020015f205f820151815f015560208201518160010190816100d29190610459565b5060408201518160020190816100e89190610459565b506060820151816003015f6101000a81548160ff021916908315150217905550608082015181600401559050506040518060a00160405280600281526020016040518060400160405280600b81526020017f4672656520426f6f6b203200000000000000000000000000000000000000000081525081526020016040518060400160405280600881526020017f417574686f72203200000000000000000000000000000000000000000000000081525081526020015f151581526020015f8152505f80600281526020019081526020015f205f820151815f015560208201518160010190816101d79190610459565b5060408201518160020190816101ed9190610459565b506060820151816003015f6101000a81548160ff02191690831515021790555060808201518160040155905050610528565b5f81519050919050565b7f4e487b71000000000000000000000000000000000000000000000000000000005f52604160045260245ffd5b7f4e487b71000000000000000000000000000000000000000000000000000000005f52602260045260245ffd5b5f600282049050600182168061029a57607f821691505b6020821081036102ad576102ac610256565b5b50919050565b5f819050815f5260205f209050919050565b5f6020601f8301049050919050565b5f82821b905092915050565b5f6008830261030f7fffffffffffffffffffffffffffffffffffffffffffffffffffffffffffffffff826102d4565b61031986836102d4565b95508019841693508086168417925050509392505050565b5f819050919050565b5f819050919050565b5f61035d61035861035384610331565b61033a565b610331565b9050919050565b5f819050919050565b61037683610343565b61038a61038282610364565b8484546102e0565b825550505050565b5f90565b61039e610392565b6103a981848461036d565b505050565b5b818110156103cc576103c15f82610396565b6001810190506103af565b5050565b601f821115610411576103e2816102b3565b6103eb846102c5565b810160208510156103fa578190505b61040e610406856102c5565b8301826103ae565b50505b505050565b5f82821c905092915050565b5f6104315f1984600802610416565b1980831691505092915050565b5f6104498383610422565b9150826002028217905092915050565b6104628261021f565b67ffffffffffffffff81111561047b5761047a610229565b5b6104858254610283565b6104908282856103d0565b5f60209050601f8311600181146104c1575f84156104af578287015190505b6104b9858261043e565b865550610520565b601f1984166104cf866102b3565b5f5b828110156104f6578489015182556001820191506020850194506020810190506104d1565b86831015610513578489015161050f601f891682610422565b8355505b6001600288020188555050505b505050505050565b610dc6806105355f395ff3fe608060405234801561000f575f80fd5b506004361061004a575f3560e01c8063599ebf081461004e578063687440461461006a5780637cf52d961461009e578063e0ff5b8b146100bc575b5f80fd5b61006860048036038101906100639190610729565b6100ed565b005b610084600480360381019061007f91906107c5565b610215565b60405161009595949392919061086e565b60405180910390f35b6100a661035e565b6040516100b391906108cd565b60405180910390f35b6100d660048036038101906100d191906107c5565b610364565b6040516100e49291906108e6565b60405180910390f35b3273ffffffffffffffffffffffffffffffffffffffff163373ffffffffffffffffffffffffffffffffffffffff161461015b576040517f08c379a000000000000000000000000000000000000000000000000000000000815260040161015290610965565b60405180910390fd5b6040518060a0016040528060015481526020018581526020018481526020018315158152602001828152505f8060015481526020019081526020015f205f820151815f015560208201518160010190816101b59190610b7d565b5060408201518160020190816101cb9190610b7d565b506060820151816003015f6101000a81548160ff0219169083151502179055506080820151816004015590505060015f81548092919061020a90610c79565b919050555050505050565b5f602052805f5260405f205f91509050805f015490806001018054610239906109b0565b80601f0160208091040260200160405190810160405280929190818152602001828054610265906109b0565b80156102b05780601f10610287576101008083540402835291602001916102b0565b820191905f5260205f20905b81548152906001019060200180831161029357829003601f168201915b5050505050908060020180546102c5906109b0565b80601f01602080910402602001604051908101604052809291908181526020018280546102f1906109b0565b801561033c5780601f106103135761010080835404028352916020019161033c565b820191905f5260205f20905b81548152906001019060200180831161031f57829003601f168201915b505050505090806003015f9054906101000a900460ff16908060040154905085565b60015481565b6060805f805f8581526020019081526020015f206040518060a00160405290815f820154815260200160018201805461039c906109b0565b80601f01602080910402602001604051908101604052809291908181526020018280546103c8906109b0565b80156104135780601f106103ea57610100808354040283529160200191610413565b820191905f5260205f20905b8154815290600101906020018083116103f657829003601f168201915b5050505050815260200160028201805461042c906109b0565b80601f0160208091040260200160405190810160405280929190818152602001828054610458906109b0565b80156104a35780601f1061047a576101008083540402835291602001916104a3565b820191905f5260205f20905b81548152906001019060200180831161048657829003601f168201915b50505050508152602001600382015f9054906101000a900460ff1615151515815260200160048201548152505090505f815f015111610517576040517f08c379a000000000000000000000000000000000000000000000000000000000815260040161050e90610d0a565b60405180910390fd5b80606001516105345780602001518160400151925092505061056f565b6040517f08c379a000000000000000000000000000000000000000000000000000000000815260040161056690610d72565b60405180910390fd5b915091565b5f604051905090565b5f80fd5b5f80fd5b5f80fd5b5f80fd5b5f601f19601f8301169050919050565b7f4e487b71000000000000000000000000000000000000000000000000000000005f52604160045260245ffd5b6105d38261058d565b810181811067ffffffffffffffff821117156105f2576105f161059d565b5b80604052505050565b5f610604610574565b905061061082826105ca565b919050565b5f67ffffffffffffffff82111561062f5761062e61059d565b5b6106388261058d565b9050602081019050919050565b828183375f83830152505050565b5f61066561066084610615565b6105fb565b90508281526020810184848401111561068157610680610589565b5b61068c848285610645565b509392505050565b5f82601f8301126106a8576106a7610585565b5b81356106b8848260208601610653565b91505092915050565b5f8115159050919050565b6106d5816106c1565b81146106df575f80fd5b50565b5f813590506106f0816106cc565b92915050565b5f819050919050565b610708816106f6565b8114610712575f80fd5b50565b5f81359050610723816106ff565b92915050565b5f805f80608085870312156107415761074061057d565b5b5f85013567ffffffffffffffff81111561075e5761075d610581565b5b61076a87828801610694565b945050602085013567ffffffffffffffff81111561078b5761078a610581565b5b61079787828801610694565b93505060406107a8878288016106e2565b92505060606107b987828801610715565b91505092959194509250565b5f602082840312156107da576107d961057d565b5b5f6107e784828501610715565b91505092915050565b6107f9816106f6565b82525050565b5f81519050919050565b5f82825260208201905092915050565b8281835e5f83830152505050565b5f610831826107ff565b61083b8185610809565b935061084b818560208601610819565b6108548161058d565b840191505092915050565b610868816106c1565b82525050565b5f60a0820190506108815f8301886107f0565b81810360208301526108938187610827565b905081810360408301526108a78186610827565b90506108b6606083018561085f565b6108c360808301846107f0565b9695505050505050565b5f6020820190506108e05f8301846107f0565b92915050565b5f6040820190508181035f8301526108fe8185610827565b905081810360208301526109128184610827565b90509392505050565b7f4f6e6c79206f776e65722063616e2061646420626f6f6b7300000000000000005f82015250565b5f61094f601883610809565b915061095a8261091b565b602082019050919050565b5f6020820190508181035f83015261097c81610943565b9050919050565b7f4e487b71000000000000000000000000000000000000000000000000000000005f52602260045260245ffd5b5f60028204905060018216806109c757607f821691505b6020821081036109da576109d9610983565b5b50919050565b5f819050815f5260205f209050919050565b5f6020601f8301049050919050565b5f82821b905092915050565b5f60088302610a3c7fffffffffffffffffffffffffffffffffffffffffffffffffffffffffffffffff82610a01565b610a468683610a01565b95508019841693508086168417925050509392505050565b5f819050919050565b5f610a81610a7c610a77846106f6565b610a5e565b6106f6565b9050919050565b5f819050919050565b610a9a83610a67565b610aae610aa682610a88565b848454610a0d565b825550505050565b5f90565b610ac2610ab6565b610acd818484610a91565b505050565b5b81811015610af057610ae55f82610aba565b600181019050610ad3565b5050565b601f821115610b3557610b06816109e0565b610b0f846109f2565b81016020851015610b1e578190505b610b32610b2a856109f2565b830182610ad2565b50505b505050565b5f82821c905092915050565b5f610b555f1984600802610b3a565b1980831691505092915050565b5f610b6d8383610b46565b9150826002028217905092915050565b610b86826107ff565b67ffffffffffffffff811115610b9f57610b9e61059d565b5b610ba982546109b0565b610bb4828285610af4565b5f60209050601f831160018114610be5575f8415610bd3578287015190505b610bdd8582610b62565b865550610c44565b601f198416610bf3866109e0565b5f5b82811015610c1a57848901518255600182019150602085019450602081019050610bf5565b86831015610c375784890151610c33601f891682610b46565b8355505b6001600288020188555050505b505050505050565b7f4e487b71000000000000000000000000000000000000000000000000000000005f52601160045260245ffd5b5f610c83826106f6565b91507fffffffffffffffffffffffffffffffffffffffffffffffffffffffffffffffff8203610cb557610cb4610c4c565b5b600182019050919050565b7f426f6f6b206e6f7420666f756e640000000000000000000000000000000000005f82015250565b5f610cf4600e83610809565b9150610cff82610cc0565b602082019050919050565b5f6020820190508181035f830152610d2181610ce8565b9050919050565b7f5072656d69756d20706c616e20726571756972656400000000000000000000005f82015250565b5f610d5c601583610809565b9150610d6782610d28565b602082019050919050565b5f6020820190508181035f830152610d8981610d50565b905091905056fea26469706673582212203ad24a57e1be9d994c2151c8d0dac44ff7f3c95934b8f3e7d88baa9fe5867eb364736f6c63430008190033",
					"opcodes": "PUSH1 0x80 PUSH1 0x40 MSTORE CALLVALUE DUP1 ISZERO PUSH2 0xF JUMPI PUSH0 DUP1 REVERT JUMPDEST POP PUSH1 0x40 MLOAD DUP1 PUSH1 0xA0 ADD PUSH1 0x40 MSTORE DUP1 PUSH1 0x1 DUP2 MSTORE PUSH1 0x20 ADD PUSH1 0x40 MLOAD DUP1 PUSH1 0x40 ADD PUSH1 0x40 MSTORE DUP1 PUSH1 0xB DUP2 MSTORE PUSH1 0x20 ADD PUSH32 0x4672656520426F6F6B2031000000000000000000000000000000000000000000 DUP2 MSTORE POP DUP2 MSTORE PUSH1 0x20 ADD PUSH1 0x40 MLOAD DUP1 PUSH1 0x40 ADD PUSH1 0x40 MSTORE DUP1 PUSH1 0x8 DUP2 MSTORE PUSH1 0x20 ADD PUSH32 0x417574686F722031000000000000000000000000000000000000000000000000 DUP2 MSTORE POP DUP2 MSTORE PUSH1 0x20 ADD PUSH0 ISZERO ISZERO DUP2 MSTORE PUSH1 0x20 ADD PUSH0 DUP2 MSTORE POP PUSH0 DUP1 PUSH1 0x1 DUP2 MSTORE PUSH1 0x20 ADD SWAP1 DUP2 MSTORE PUSH1 0x20 ADD PUSH0 KECCAK256 PUSH0 DUP3 ADD MLOAD DUP2 PUSH0 ADD SSTORE PUSH1 0x20 DUP3 ADD MLOAD DUP2 PUSH1 0x1 ADD SWAP1 DUP2 PUSH2 0xD2 SWAP2 SWAP1 PUSH2 0x459 JUMP JUMPDEST POP PUSH1 0x40 DUP3 ADD MLOAD DUP2 PUSH1 0x2 ADD SWAP1 DUP2 PUSH2 0xE8 SWAP2 SWAP1 PUSH2 0x459 JUMP JUMPDEST POP PUSH1 0x60 DUP3 ADD MLOAD DUP2 PUSH1 0x3 ADD PUSH0 PUSH2 0x100 EXP DUP2 SLOAD DUP2 PUSH1 0xFF MUL NOT AND SWAP1 DUP4 ISZERO ISZERO MUL OR SWAP1 SSTORE POP PUSH1 0x80 DUP3 ADD MLOAD DUP2 PUSH1 0x4 ADD SSTORE SWAP1 POP POP PUSH1 0x40 MLOAD DUP1 PUSH1 0xA0 ADD PUSH1 0x40 MSTORE DUP1 PUSH1 0x2 DUP2 MSTORE PUSH1 0x20 ADD PUSH1 0x40 MLOAD DUP1 PUSH1 0x40 ADD PUSH1 0x40 MSTORE DUP1 PUSH1 0xB DUP2 MSTORE PUSH1 0x20 ADD PUSH32 0x4672656520426F6F6B2032000000000000000000000000000000000000000000 DUP2 MSTORE POP DUP2 MSTORE PUSH1 0x20 ADD PUSH1 0x40 MLOAD DUP1 PUSH1 0x40 ADD PUSH1 0x40 MSTORE DUP1 PUSH1 0x8 DUP2 MSTORE PUSH1 0x20 ADD PUSH32 0x417574686F722032000000000000000000000000000000000000000000000000 DUP2 MSTORE POP DUP2 MSTORE PUSH1 0x20 ADD PUSH0 ISZERO ISZERO DUP2 MSTORE PUSH1 0x20 ADD PUSH0 DUP2 MSTORE POP PUSH0 DUP1 PUSH1 0x2 DUP2 MSTORE PUSH1 0x20 ADD SWAP1 DUP2 MSTORE PUSH1 0x20 ADD PUSH0 KECCAK256 PUSH0 DUP3 ADD MLOAD DUP2 PUSH0 ADD SSTORE PUSH1 0x20 DUP3 ADD MLOAD DUP2 PUSH1 0x1 ADD SWAP1 DUP2 PUSH2 0x1D7 SWAP2 SWAP1 PUSH2 0x459 JUMP JUMPDEST POP PUSH1 0x40 DUP3 ADD MLOAD DUP2 PUSH1 0x2 ADD SWAP1 DUP2 PUSH2 0x1ED SWAP2 SWAP1 PUSH2 0x459 JUMP JUMPDEST POP PUSH1 0x60 DUP3 ADD MLOAD DUP2 PUSH1 0x3 ADD PUSH0 PUSH2 0x100 EXP DUP2 SLOAD DUP2 PUSH1 0xFF MUL NOT AND SWAP1 DUP4 ISZERO ISZERO MUL OR SWAP1 SSTORE POP PUSH1 0x80 DUP3 ADD MLOAD DUP2 PUSH1 0x4 ADD SSTORE SWAP1 POP POP PUSH2 0x528 JUMP JUMPDEST PUSH0 DUP2 MLOAD SWAP1 POP SWAP2 SWAP1 POP JUMP JUMPDEST PUSH32 0x4E487B7100000000000000000000000000000000000000000000000000000000 PUSH0 MSTORE PUSH1 0x41 PUSH1 0x4 MSTORE PUSH1 0x24 PUSH0 REVERT JUMPDEST PUSH32 0x4E487B7100000000000000000000000000000000000000000000000000000000 PUSH0 MSTORE PUSH1 0x22 PUSH1 0x4 MSTORE PUSH1 0x24 PUSH0 REVERT JUMPDEST PUSH0 PUSH1 0x2 DUP3 DIV SWAP1 POP PUSH1 0x1 DUP3 AND DUP1 PUSH2 0x29A JUMPI PUSH1 0x7F DUP3 AND SWAP2 POP JUMPDEST PUSH1 0x20 DUP3 LT DUP2 SUB PUSH2 0x2AD JUMPI PUSH2 0x2AC PUSH2 0x256 JUMP JUMPDEST JUMPDEST POP SWAP2 SWAP1 POP JUMP JUMPDEST PUSH0 DUP2 SWAP1 POP DUP2 PUSH0 MSTORE PUSH1 0x20 PUSH0 KECCAK256 SWAP1 POP SWAP2 SWAP1 POP JUMP JUMPDEST PUSH0 PUSH1 0x20 PUSH1 0x1F DUP4 ADD DIV SWAP1 POP SWAP2 SWAP1 POP JUMP JUMPDEST PUSH0 DUP3 DUP3 SHL SWAP1 POP SWAP3 SWAP2 POP POP JUMP JUMPDEST PUSH0 PUSH1 0x8 DUP4 MUL PUSH2 0x30F PUSH32 0xFFFFFFFFFFFFFFFFFFFFFFFFFFFFFFFFFFFFFFFFFFFFFFFFFFFFFFFFFFFFFFFF DUP3 PUSH2 0x2D4 JUMP JUMPDEST PUSH2 0x319 DUP7 DUP4 PUSH2 0x2D4 JUMP JUMPDEST SWAP6 POP DUP1 NOT DUP5 AND SWAP4 POP DUP1 DUP7 AND DUP5 OR SWAP3 POP POP POP SWAP4 SWAP3 POP POP POP JUMP JUMPDEST PUSH0 DUP2 SWAP1 POP SWAP2 SWAP1 POP JUMP JUMPDEST PUSH0 DUP2 SWAP1 POP SWAP2 SWAP1 POP JUMP JUMPDEST PUSH0 PUSH2 0x35D PUSH2 0x358 PUSH2 0x353 DUP5 PUSH2 0x331 JUMP JUMPDEST PUSH2 0x33A JUMP JUMPDEST PUSH2 0x331 JUMP JUMPDEST SWAP1 POP SWAP2 SWAP1 POP JUMP JUMPDEST PUSH0 DUP2 SWAP1 POP SWAP2 SWAP1 POP JUMP JUMPDEST PUSH2 0x376 DUP4 PUSH2 0x343 JUMP JUMPDEST PUSH2 0x38A PUSH2 0x382 DUP3 PUSH2 0x364 JUMP JUMPDEST DUP5 DUP5 SLOAD PUSH2 0x2E0 JUMP JUMPDEST DUP3 SSTORE POP POP POP POP JUMP JUMPDEST PUSH0 SWAP1 JUMP JUMPDEST PUSH2 0x39E PUSH2 0x392 JUMP JUMPDEST PUSH2 0x3A9 DUP2 DUP5 DUP5 PUSH2 0x36D JUMP JUMPDEST POP POP POP JUMP JUMPDEST JUMPDEST DUP2 DUP2 LT ISZERO PUSH2 0x3CC JUMPI PUSH2 0x3C1 PUSH0 DUP3 PUSH2 0x396 JUMP JUMPDEST PUSH1 0x1 DUP2 ADD SWAP1 POP PUSH2 0x3AF JUMP JUMPDEST POP POP JUMP JUMPDEST PUSH1 0x1F DUP3 GT ISZERO PUSH2 0x411 JUMPI PUSH2 0x3E2 DUP2 PUSH2 0x2B3 JUMP JUMPDEST PUSH2 0x3EB DUP5 PUSH2 0x2C5 JUMP JUMPDEST DUP2 ADD PUSH1 0x20 DUP6 LT ISZERO PUSH2 0x3FA JUMPI DUP2 SWAP1 POP JUMPDEST PUSH2 0x40E PUSH2 0x406 DUP6 PUSH2 0x2C5 JUMP JUMPDEST DUP4 ADD DUP3 PUSH2 0x3AE JUMP JUMPDEST POP POP JUMPDEST POP POP POP JUMP JUMPDEST PUSH0 DUP3 DUP3 SHR SWAP1 POP SWAP3 SWAP2 POP POP JUMP JUMPDEST PUSH0 PUSH2 0x431 PUSH0 NOT DUP5 PUSH1 0x8 MUL PUSH2 0x416 JUMP JUMPDEST NOT DUP1 DUP4 AND SWAP2 POP POP SWAP3 SWAP2 POP POP JUMP JUMPDEST PUSH0 PUSH2 0x449 DUP4 DUP4 PUSH2 0x422 JUMP JUMPDEST SWAP2 POP DUP3 PUSH1 0x2 MUL DUP3 OR SWAP1 POP SWAP3 SWAP2 POP POP JUMP JUMPDEST PUSH2 0x462 DUP3 PUSH2 0x21F JUMP JUMPDEST PUSH8 0xFFFFFFFFFFFFFFFF DUP2 GT ISZERO PUSH2 0x47B JUMPI PUSH2 0x47A PUSH2 0x229 JUMP JUMPDEST JUMPDEST PUSH2 0x485 DUP3 SLOAD PUSH2 0x283 JUMP JUMPDEST PUSH2 0x490 DUP3 DUP3 DUP6 PUSH2 0x3D0 JUMP JUMPDEST PUSH0 PUSH1 0x20 SWAP1 POP PUSH1 0x1F DUP4 GT PUSH1 0x1 DUP2 EQ PUSH2 0x4C1 JUMPI PUSH0 DUP5 ISZERO PUSH2 0x4AF JUMPI DUP3 DUP8 ADD MLOAD SWAP1 POP JUMPDEST PUSH2 0x4B9 DUP6 DUP3 PUSH2 0x43E JUMP JUMPDEST DUP7 SSTORE POP PUSH2 0x520 JUMP JUMPDEST PUSH1 0x1F NOT DUP5 AND PUSH2 0x4CF DUP7 PUSH2 0x2B3 JUMP JUMPDEST PUSH0 JUMPDEST DUP3 DUP2 LT ISZERO PUSH2 0x4F6 JUMPI DUP5 DUP10 ADD MLOAD DUP3 SSTORE PUSH1 0x1 DUP3 ADD SWAP2 POP PUSH1 0x20 DUP6 ADD SWAP5 POP PUSH1 0x20 DUP2 ADD SWAP1 POP PUSH2 0x4D1 JUMP JUMPDEST DUP7 DUP4 LT ISZERO PUSH2 0x513 JUMPI DUP5 DUP10 ADD MLOAD PUSH2 0x50F PUSH1 0x1F DUP10 AND DUP3 PUSH2 0x422 JUMP JUMPDEST DUP4 SSTORE POP JUMPDEST PUSH1 0x1 PUSH1 0x2 DUP9 MUL ADD DUP9 SSTORE POP POP POP JUMPDEST POP POP POP POP POP POP JUMP JUMPDEST PUSH2 0xDC6 DUP1 PUSH2 0x535 PUSH0 CODECOPY PUSH0 RETURN INVALID PUSH1 0x80 PUSH1 0x40 MSTORE CALLVALUE DUP1 ISZERO PUSH2 0xF JUMPI PUSH0 DUP1 REVERT JUMPDEST POP PUSH1 0x4 CALLDATASIZE LT PUSH2 0x4A JUMPI PUSH0 CALLDATALOAD PUSH1 0xE0 SHR DUP1 PUSH4 0x599EBF08 EQ PUSH2 0x4E JUMPI DUP1 PUSH4 0x68744046 EQ PUSH2 0x6A JUMPI DUP1 PUSH4 0x7CF52D96 EQ PUSH2 0x9E JUMPI DUP1 PUSH4 0xE0FF5B8B EQ PUSH2 0xBC JUMPI JUMPDEST PUSH0 DUP1 REVERT JUMPDEST PUSH2 0x68 PUSH1 0x4 DUP1 CALLDATASIZE SUB DUP2 ADD SWAP1 PUSH2 0x63 SWAP2 SWAP1 PUSH2 0x729 JUMP JUMPDEST PUSH2 0xED JUMP JUMPDEST STOP JUMPDEST PUSH2 0x84 PUSH1 0x4 DUP1 CALLDATASIZE SUB DUP2 ADD SWAP1 PUSH2 0x7F SWAP2 SWAP1 PUSH2 0x7C5 JUMP JUMPDEST PUSH2 0x215 JUMP JUMPDEST PUSH1 0x40 MLOAD PUSH2 0x95 SWAP6 SWAP5 SWAP4 SWAP3 SWAP2 SWAP1 PUSH2 0x86E JUMP JUMPDEST PUSH1 0x40 MLOAD DUP1 SWAP2 SUB SWAP1 RETURN JUMPDEST PUSH2 0xA6 PUSH2 0x35E JUMP JUMPDEST PUSH1 0x40 MLOAD PUSH2 0xB3 SWAP2 SWAP1 PUSH2 0x8CD JUMP JUMPDEST PUSH1 0x40 MLOAD DUP1 SWAP2 SUB SWAP1 RETURN JUMPDEST PUSH2 0xD6 PUSH1 0x4 DUP1 CALLDATASIZE SUB DUP2 ADD SWAP1 PUSH2 0xD1 SWAP2 SWAP1 PUSH2 0x7C5 JUMP JUMPDEST PUSH2 0x364 JUMP JUMPDEST PUSH1 0x40 MLOAD PUSH2 0xE4 SWAP3 SWAP2 SWAP1 PUSH2 0x8E6 JUMP JUMPDEST PUSH1 0x40 MLOAD DUP1 SWAP2 SUB SWAP1 RETURN JUMPDEST ORIGIN PUSH20 0xFFFFFFFFFFFFFFFFFFFFFFFFFFFFFFFFFFFFFFFF AND CALLER PUSH20 0xFFFFFFFFFFFFFFFFFFFFFFFFFFFFFFFFFFFFFFFF AND EQ PUSH2 0x15B JUMPI PUSH1 0x40 MLOAD PUSH32 0x8C379A000000000000000000000000000000000000000000000000000000000 DUP2 MSTORE PUSH1 0x4 ADD PUSH2 0x152 SWAP1 PUSH2 0x965 JUMP JUMPDEST PUSH1 0x40 MLOAD DUP1 SWAP2 SUB SWAP1 REVERT JUMPDEST PUSH1 0x40 MLOAD DUP1 PUSH1 0xA0 ADD PUSH1 0x40 MSTORE DUP1 PUSH1 0x1 SLOAD DUP2 MSTORE PUSH1 0x20 ADD DUP6 DUP2 MSTORE PUSH1 0x20 ADD DUP5 DUP2 MSTORE PUSH1 0x20 ADD DUP4 ISZERO ISZERO DUP2 MSTORE PUSH1 0x20 ADD DUP3 DUP2 MSTORE POP PUSH0 DUP1 PUSH1 0x1 SLOAD DUP2 MSTORE PUSH1 0x20 ADD SWAP1 DUP2 MSTORE PUSH1 0x20 ADD PUSH0 KECCAK256 PUSH0 DUP3 ADD MLOAD DUP2 PUSH0 ADD SSTORE PUSH1 0x20 DUP3 ADD MLOAD DUP2 PUSH1 0x1 ADD SWAP1 DUP2 PUSH2 0x1B5 SWAP2 SWAP1 PUSH2 0xB7D JUMP JUMPDEST POP PUSH1 0x40 DUP3 ADD MLOAD DUP2 PUSH1 0x2 ADD SWAP1 DUP2 PUSH2 0x1CB SWAP2 SWAP1 PUSH2 0xB7D JUMP JUMPDEST POP PUSH1 0x60 DUP3 ADD MLOAD DUP2 PUSH1 0x3 ADD PUSH0 PUSH2 0x100 EXP DUP2 SLOAD DUP2 PUSH1 0xFF MUL NOT AND SWAP1 DUP4 ISZERO ISZERO MUL OR SWAP1 SSTORE POP PUSH1 0x80 DUP3 ADD MLOAD DUP2 PUSH1 0x4 ADD SSTORE SWAP1 POP POP PUSH1 0x1 PUSH0 DUP2 SLOAD DUP1 SWAP3 SWAP2 SWAP1 PUSH2 0x20A SWAP1 PUSH2 0xC79 JUMP JUMPDEST SWAP2 SWAP1 POP SSTORE POP POP POP POP POP JUMP JUMPDEST PUSH0 PUSH1 0x20 MSTORE DUP1 PUSH0 MSTORE PUSH1 0x40 PUSH0 KECCAK256 PUSH0 SWAP2 POP SWAP1 POP DUP1 PUSH0 ADD SLOAD SWAP1 DUP1 PUSH1 0x1 ADD DUP1 SLOAD PUSH2 0x239 SWAP1 PUSH2 0x9B0 JUMP JUMPDEST DUP1 PUSH1 0x1F ADD PUSH1 0x20 DUP1 SWAP2 DIV MUL PUSH1 0x20 ADD PUSH1 0x40 MLOAD SWAP1 DUP2 ADD PUSH1 0x40 MSTORE DUP1 SWAP3 SWAP2 SWAP1 DUP2 DUP2 MSTORE PUSH1 0x20 ADD DUP3 DUP1 SLOAD PUSH2 0x265 SWAP1 PUSH2 0x9B0 JUMP JUMPDEST DUP1 ISZERO PUSH2 0x2B0 JUMPI DUP1 PUSH1 0x1F LT PUSH2 0x287 JUMPI PUSH2 0x100 DUP1 DUP4 SLOAD DIV MUL DUP4 MSTORE SWAP2 PUSH1 0x20 ADD SWAP2 PUSH2 0x2B0 JUMP JUMPDEST DUP3 ADD SWAP2 SWAP1 PUSH0 MSTORE PUSH1 0x20 PUSH0 KECCAK256 SWAP1 JUMPDEST DUP2 SLOAD DUP2 MSTORE SWAP1 PUSH1 0x1 ADD SWAP1 PUSH1 0x20 ADD DUP1 DUP4 GT PUSH2 0x293 JUMPI DUP3 SWAP1 SUB PUSH1 0x1F AND DUP3 ADD SWAP2 JUMPDEST POP POP POP POP POP SWAP1 DUP1 PUSH1 0x2 ADD DUP1 SLOAD PUSH2 0x2C5 SWAP1 PUSH2 0x9B0 JUMP JUMPDEST DUP1 PUSH1 0x1F ADD PUSH1 0x20 DUP1 SWAP2 DIV MUL PUSH1 0x20 ADD PUSH1 0x40 MLOAD SWAP1 DUP2 ADD PUSH1 0x40 MSTORE DUP1 SWAP3 SWAP2 SWAP1 DUP2 DUP2 MSTORE PUSH1 0x20 ADD DUP3 DUP1 SLOAD PUSH2 0x2F1 SWAP1 PUSH2 0x9B0 JUMP JUMPDEST DUP1 ISZERO PUSH2 0x33C JUMPI DUP1 PUSH1 0x1F LT PUSH2 0x313 JUMPI PUSH2 0x100 DUP1 DUP4 SLOAD DIV MUL DUP4 MSTORE SWAP2 PUSH1 0x20 ADD SWAP2 PUSH2 0x33C JUMP JUMPDEST DUP3 ADD SWAP2 SWAP1 PUSH0 MSTORE PUSH1 0x20 PUSH0 KECCAK256 SWAP1 JUMPDEST DUP2 SLOAD DUP2 MSTORE SWAP1 PUSH1 0x1 ADD SWAP1 PUSH1 0x20 ADD DUP1 DUP4 GT PUSH2 0x31F JUMPI DUP3 SWAP1 SUB PUSH1 0x1F AND DUP3 ADD SWAP2 JUMPDEST POP POP POP POP POP SWAP1 DUP1 PUSH1 0x3 ADD PUSH0 SWAP1 SLOAD SWAP1 PUSH2 0x100 EXP SWAP1 DIV PUSH1 0xFF AND SWAP1 DUP1 PUSH1 0x4 ADD SLOAD SWAP1 POP DUP6 JUMP JUMPDEST PUSH1 0x1 SLOAD DUP2 JUMP JUMPDEST PUSH1 0x60 DUP1 PUSH0 DUP1 PUSH0 DUP6 DUP2 MSTORE PUSH1 0x20 ADD SWAP1 DUP2 MSTORE PUSH1 0x20 ADD PUSH0 KECCAK256 PUSH1 0x40 MLOAD DUP1 PUSH1 0xA0 ADD PUSH1 0x40 MSTORE SWAP1 DUP2 PUSH0 DUP3 ADD SLOAD DUP2 MSTORE PUSH1 0x20 ADD PUSH1 0x1 DUP3 ADD DUP1 SLOAD PUSH2 0x39C SWAP1 PUSH2 0x9B0 JUMP JUMPDEST DUP1 PUSH1 0x1F ADD PUSH1 0x20 DUP1 SWAP2 DIV MUL PUSH1 0x20 ADD PUSH1 0x40 MLOAD SWAP1 DUP2 ADD PUSH1 0x40 MSTORE DUP1 SWAP3 SWAP2 SWAP1 DUP2 DUP2 MSTORE PUSH1 0x20 ADD DUP3 DUP1 SLOAD PUSH2 0x3C8 SWAP1 PUSH2 0x9B0 JUMP JUMPDEST DUP1 ISZERO PUSH2 0x413 JUMPI DUP1 PUSH1 0x1F LT PUSH2 0x3EA JUMPI PUSH2 0x100 DUP1 DUP4 SLOAD DIV MUL DUP4 MSTORE SWAP2 PUSH1 0x20 ADD SWAP2 PUSH2 0x413 JUMP JUMPDEST DUP3 ADD SWAP2 SWAP1 PUSH0 MSTORE PUSH1 0x20 PUSH0 KECCAK256 SWAP1 JUMPDEST DUP2 SLOAD DUP2 MSTORE SWAP1 PUSH1 0x1 ADD SWAP1 PUSH1 0x20 ADD DUP1 DUP4 GT PUSH2 0x3F6 JUMPI DUP3 SWAP1 SUB PUSH1 0x1F AND DUP3 ADD SWAP2 JUMPDEST POP POP POP POP POP DUP2 MSTORE PUSH1 0x20 ADD PUSH1 0x2 DUP3 ADD DUP1 SLOAD PUSH2 0x42C SWAP1 PUSH2 0x9B0 JUMP JUMPDEST DUP1 PUSH1 0x1F ADD PUSH1 0x20 DUP1 SWAP2 DIV MUL PUSH1 0x20 ADD PUSH1 0x40 MLOAD SWAP1 DUP2 ADD PUSH1 0x40 MSTORE DUP1 SWAP3 SWAP2 SWAP1 DUP2 DUP2 MSTORE PUSH1 0x20 ADD DUP3 DUP1 SLOAD PUSH2 0x458 SWAP1 PUSH2 0x9B0 JUMP JUMPDEST DUP1 ISZERO PUSH2 0x4A3 JUMPI DUP1 PUSH1 0x1F LT PUSH2 0x47A JUMPI PUSH2 0x100 DUP1 DUP4 SLOAD DIV MUL DUP4 MSTORE SWAP2 PUSH1 0x20 ADD SWAP2 PUSH2 0x4A3 JUMP JUMPDEST DUP3 ADD SWAP2 SWAP1 PUSH0 MSTORE PUSH1 0x20 PUSH0 KECCAK256 SWAP1 JUMPDEST DUP2 SLOAD DUP2 MSTORE SWAP1 PUSH1 0x1 ADD SWAP1 PUSH1 0x20 ADD DUP1 DUP4 GT PUSH2 0x486 JUMPI DUP3 SWAP1 SUB PUSH1 0x1F AND DUP3 ADD SWAP2 JUMPDEST POP POP POP POP POP DUP2 MSTORE PUSH1 0x20 ADD PUSH1 0x3 DUP3 ADD PUSH0 SWAP1 SLOAD SWAP1 PUSH2 0x100 EXP SWAP1 DIV PUSH1 0xFF AND ISZERO ISZERO ISZERO ISZERO DUP2 MSTORE PUSH1 0x20 ADD PUSH1 0x4 DUP3 ADD SLOAD DUP2 MSTORE POP POP SWAP1 POP PUSH0 DUP2 PUSH0 ADD MLOAD GT PUSH2 0x517 JUMPI PUSH1 0x40 MLOAD PUSH32 0x8C379A000000000000000000000000000000000000000000000000000000000 DUP2 MSTORE PUSH1 0x4 ADD PUSH2 0x50E SWAP1 PUSH2 0xD0A JUMP JUMPDEST PUSH1 0x40 MLOAD DUP1 SWAP2 SUB SWAP1 REVERT JUMPDEST DUP1 PUSH1 0x60 ADD MLOAD PUSH2 0x534 JUMPI DUP1 PUSH1 0x20 ADD MLOAD DUP2 PUSH1 0x40 ADD MLOAD SWAP3 POP SWAP3 POP POP PUSH2 0x56F JUMP JUMPDEST PUSH1 0x40 MLOAD PUSH32 0x8C379A000000000000000000000000000000000000000000000000000000000 DUP2 MSTORE PUSH1 0x4 ADD PUSH2 0x566 SWAP1 PUSH2 0xD72 JUMP JUMPDEST PUSH1 0x40 MLOAD DUP1 SWAP2 SUB SWAP1 REVERT JUMPDEST SWAP2 POP SWAP2 JUMP JUMPDEST PUSH0 PUSH1 0x40 MLOAD SWAP1 POP SWAP1 JUMP JUMPDEST PUSH0 DUP1 REVERT JUMPDEST PUSH0 DUP1 REVERT JUMPDEST PUSH0 DUP1 REVERT JUMPDEST PUSH0 DUP1 REVERT JUMPDEST PUSH0 PUSH1 0x1F NOT PUSH1 0x1F DUP4 ADD AND SWAP1 POP SWAP2 SWAP1 POP JUMP JUMPDEST PUSH32 0x4E487B7100000000000000000000000000000000000000000000000000000000 PUSH0 MSTORE PUSH1 0x41 PUSH1 0x4 MSTORE PUSH1 0x24 PUSH0 REVERT JUMPDEST PUSH2 0x5D3 DUP3 PUSH2 0x58D JUMP JUMPDEST DUP2 ADD DUP2 DUP2 LT PUSH8 0xFFFFFFFFFFFFFFFF DUP3 GT OR ISZERO PUSH2 0x5F2 JUMPI PUSH2 0x5F1 PUSH2 0x59D JUMP JUMPDEST JUMPDEST DUP1 PUSH1 0x40 MSTORE POP POP POP JUMP JUMPDEST PUSH0 PUSH2 0x604 PUSH2 0x574 JUMP JUMPDEST SWAP1 POP PUSH2 0x610 DUP3 DUP3 PUSH2 0x5CA JUMP JUMPDEST SWAP2 SWAP1 POP JUMP JUMPDEST PUSH0 PUSH8 0xFFFFFFFFFFFFFFFF DUP3 GT ISZERO PUSH2 0x62F JUMPI PUSH2 0x62E PUSH2 0x59D JUMP JUMPDEST JUMPDEST PUSH2 0x638 DUP3 PUSH2 0x58D JUMP JUMPDEST SWAP1 POP PUSH1 0x20 DUP2 ADD SWAP1 POP SWAP2 SWAP1 POP JUMP JUMPDEST DUP3 DUP2 DUP4 CALLDATACOPY PUSH0 DUP4 DUP4 ADD MSTORE POP POP POP JUMP JUMPDEST PUSH0 PUSH2 0x665 PUSH2 0x660 DUP5 PUSH2 0x615 JUMP JUMPDEST PUSH2 0x5FB JUMP JUMPDEST SWAP1 POP DUP3 DUP2 MSTORE PUSH1 0x20 DUP2 ADD DUP5 DUP5 DUP5 ADD GT ISZERO PUSH2 0x681 JUMPI PUSH2 0x680 PUSH2 0x589 JUMP JUMPDEST JUMPDEST PUSH2 0x68C DUP5 DUP3 DUP6 PUSH2 0x645 JUMP JUMPDEST POP SWAP4 SWAP3 POP POP POP JUMP JUMPDEST PUSH0 DUP3 PUSH1 0x1F DUP4 ADD SLT PUSH2 0x6A8 JUMPI PUSH2 0x6A7 PUSH2 0x585 JUMP JUMPDEST JUMPDEST DUP2 CALLDATALOAD PUSH2 0x6B8 DUP5 DUP3 PUSH1 0x20 DUP7 ADD PUSH2 0x653 JUMP JUMPDEST SWAP2 POP POP SWAP3 SWAP2 POP POP JUMP JUMPDEST PUSH0 DUP2 ISZERO ISZERO SWAP1 POP SWAP2 SWAP1 POP JUMP JUMPDEST PUSH2 0x6D5 DUP2 PUSH2 0x6C1 JUMP JUMPDEST DUP2 EQ PUSH2 0x6DF JUMPI PUSH0 DUP1 REVERT JUMPDEST POP JUMP JUMPDEST PUSH0 DUP2 CALLDATALOAD SWAP1 POP PUSH2 0x6F0 DUP2 PUSH2 0x6CC JUMP JUMPDEST SWAP3 SWAP2 POP POP JUMP JUMPDEST PUSH0 DUP2 SWAP1 POP SWAP2 SWAP1 POP JUMP JUMPDEST PUSH2 0x708 DUP2 PUSH2 0x6F6 JUMP JUMPDEST DUP2 EQ PUSH2 0x712 JUMPI PUSH0 DUP1 REVERT JUMPDEST POP JUMP JUMPDEST PUSH0 DUP2 CALLDATALOAD SWAP1 POP PUSH2 0x723 DUP2 PUSH2 0x6FF JUMP JUMPDEST SWAP3 SWAP2 POP POP JUMP JUMPDEST PUSH0 DUP1 PUSH0 DUP1 PUSH1 0x80 DUP6 DUP8 SUB SLT ISZERO PUSH2 0x741 JUMPI PUSH2 0x740 PUSH2 0x57D JUMP JUMPDEST JUMPDEST PUSH0 DUP6 ADD CALLDATALOAD PUSH8 0xFFFFFFFFFFFFFFFF DUP2 GT ISZERO PUSH2 0x75E JUMPI PUSH2 0x75D PUSH2 0x581 JUMP JUMPDEST JUMPDEST PUSH2 0x76A DUP8 DUP3 DUP9 ADD PUSH2 0x694 JUMP JUMPDEST SWAP5 POP POP PUSH1 0x20 DUP6 ADD CALLDATALOAD PUSH8 0xFFFFFFFFFFFFFFFF DUP2 GT ISZERO PUSH2 0x78B JUMPI PUSH2 0x78A PUSH2 0x581 JUMP JUMPDEST JUMPDEST PUSH2 0x797 DUP8 DUP3 DUP9 ADD PUSH2 0x694 JUMP JUMPDEST SWAP4 POP POP PUSH1 0x40 PUSH2 0x7A8 DUP8 DUP3 DUP9 ADD PUSH2 0x6E2 JUMP JUMPDEST SWAP3 POP POP PUSH1 0x60 PUSH2 0x7B9 DUP8 DUP3 DUP9 ADD PUSH2 0x715 JUMP JUMPDEST SWAP2 POP POP SWAP3 SWAP6 SWAP2 SWAP5 POP SWAP3 POP JUMP JUMPDEST PUSH0 PUSH1 0x20 DUP3 DUP5 SUB SLT ISZERO PUSH2 0x7DA JUMPI PUSH2 0x7D9 PUSH2 0x57D JUMP JUMPDEST JUMPDEST PUSH0 PUSH2 0x7E7 DUP5 DUP3 DUP6 ADD PUSH2 0x715 JUMP JUMPDEST SWAP2 POP POP SWAP3 SWAP2 POP POP JUMP JUMPDEST PUSH2 0x7F9 DUP2 PUSH2 0x6F6 JUMP JUMPDEST DUP3 MSTORE POP POP JUMP JUMPDEST PUSH0 DUP2 MLOAD SWAP1 POP SWAP2 SWAP1 POP JUMP JUMPDEST PUSH0 DUP3 DUP3 MSTORE PUSH1 0x20 DUP3 ADD SWAP1 POP SWAP3 SWAP2 POP POP JUMP JUMPDEST DUP3 DUP2 DUP4 MCOPY PUSH0 DUP4 DUP4 ADD MSTORE POP POP POP JUMP JUMPDEST PUSH0 PUSH2 0x831 DUP3 PUSH2 0x7FF JUMP JUMPDEST PUSH2 0x83B DUP2 DUP6 PUSH2 0x809 JUMP JUMPDEST SWAP4 POP PUSH2 0x84B DUP2 DUP6 PUSH1 0x20 DUP7 ADD PUSH2 0x819 JUMP JUMPDEST PUSH2 0x854 DUP2 PUSH2 0x58D JUMP JUMPDEST DUP5 ADD SWAP2 POP POP SWAP3 SWAP2 POP POP JUMP JUMPDEST PUSH2 0x868 DUP2 PUSH2 0x6C1 JUMP JUMPDEST DUP3 MSTORE POP POP JUMP JUMPDEST PUSH0 PUSH1 0xA0 DUP3 ADD SWAP1 POP PUSH2 0x881 PUSH0 DUP4 ADD DUP9 PUSH2 0x7F0 JUMP JUMPDEST DUP2 DUP2 SUB PUSH1 0x20 DUP4 ADD MSTORE PUSH2 0x893 DUP2 DUP8 PUSH2 0x827 JUMP JUMPDEST SWAP1 POP DUP2 DUP2 SUB PUSH1 0x40 DUP4 ADD MSTORE PUSH2 0x8A7 DUP2 DUP7 PUSH2 0x827 JUMP JUMPDEST SWAP1 POP PUSH2 0x8B6 PUSH1 0x60 DUP4 ADD DUP6 PUSH2 0x85F JUMP JUMPDEST PUSH2 0x8C3 PUSH1 0x80 DUP4 ADD DUP5 PUSH2 0x7F0 JUMP JUMPDEST SWAP7 SWAP6 POP POP POP POP POP POP JUMP JUMPDEST PUSH0 PUSH1 0x20 DUP3 ADD SWAP1 POP PUSH2 0x8E0 PUSH0 DUP4 ADD DUP5 PUSH2 0x7F0 JUMP JUMPDEST SWAP3 SWAP2 POP POP JUMP JUMPDEST PUSH0 PUSH1 0x40 DUP3 ADD SWAP1 POP DUP2 DUP2 SUB PUSH0 DUP4 ADD MSTORE PUSH2 0x8FE DUP2 DUP6 PUSH2 0x827 JUMP JUMPDEST SWAP1 POP DUP2 DUP2 SUB PUSH1 0x20 DUP4 ADD MSTORE PUSH2 0x912 DUP2 DUP5 PUSH2 0x827 JUMP JUMPDEST SWAP1 POP SWAP4 SWAP3 POP POP POP JUMP JUMPDEST PUSH32 0x4F6E6C79206F776E65722063616E2061646420626F6F6B730000000000000000 PUSH0 DUP3 ADD MSTORE POP JUMP JUMPDEST PUSH0 PUSH2 0x94F PUSH1 0x18 DUP4 PUSH2 0x809 JUMP JUMPDEST SWAP2 POP PUSH2 0x95A DUP3 PUSH2 0x91B JUMP JUMPDEST PUSH1 0x20 DUP3 ADD SWAP1 POP SWAP2 SWAP1 POP JUMP JUMPDEST PUSH0 PUSH1 0x20 DUP3 ADD SWAP1 POP DUP2 DUP2 SUB PUSH0 DUP4 ADD MSTORE PUSH2 0x97C DUP2 PUSH2 0x943 JUMP JUMPDEST SWAP1 POP SWAP2 SWAP1 POP JUMP JUMPDEST PUSH32 0x4E487B7100000000000000000000000000000000000000000000000000000000 PUSH0 MSTORE PUSH1 0x22 PUSH1 0x4 MSTORE PUSH1 0x24 PUSH0 REVERT JUMPDEST PUSH0 PUSH1 0x2 DUP3 DIV SWAP1 POP PUSH1 0x1 DUP3 AND DUP1 PUSH2 0x9C7 JUMPI PUSH1 0x7F DUP3 AND SWAP2 POP JUMPDEST PUSH1 0x20 DUP3 LT DUP2 SUB PUSH2 0x9DA JUMPI PUSH2 0x9D9 PUSH2 0x983 JUMP JUMPDEST JUMPDEST POP SWAP2 SWAP1 POP JUMP JUMPDEST PUSH0 DUP2 SWAP1 POP DUP2 PUSH0 MSTORE PUSH1 0x20 PUSH0 KECCAK256 SWAP1 POP SWAP2 SWAP1 POP JUMP JUMPDEST PUSH0 PUSH1 0x20 PUSH1 0x1F DUP4 ADD DIV SWAP1 POP SWAP2 SWAP1 POP JUMP JUMPDEST PUSH0 DUP3 DUP3 SHL SWAP1 POP SWAP3 SWAP2 POP POP JUMP JUMPDEST PUSH0 PUSH1 0x8 DUP4 MUL PUSH2 0xA3C PUSH32 0xFFFFFFFFFFFFFFFFFFFFFFFFFFFFFFFFFFFFFFFFFFFFFFFFFFFFFFFFFFFFFFFF DUP3 PUSH2 0xA01 JUMP JUMPDEST PUSH2 0xA46 DUP7 DUP4 PUSH2 0xA01 JUMP JUMPDEST SWAP6 POP DUP1 NOT DUP5 AND SWAP4 POP DUP1 DUP7 AND DUP5 OR SWAP3 POP POP POP SWAP4 SWAP3 POP POP POP JUMP JUMPDEST PUSH0 DUP2 SWAP1 POP SWAP2 SWAP1 POP JUMP JUMPDEST PUSH0 PUSH2 0xA81 PUSH2 0xA7C PUSH2 0xA77 DUP5 PUSH2 0x6F6 JUMP JUMPDEST PUSH2 0xA5E JUMP JUMPDEST PUSH2 0x6F6 JUMP JUMPDEST SWAP1 POP SWAP2 SWAP1 POP JUMP JUMPDEST PUSH0 DUP2 SWAP1 POP SWAP2 SWAP1 POP JUMP JUMPDEST PUSH2 0xA9A DUP4 PUSH2 0xA67 JUMP JUMPDEST PUSH2 0xAAE PUSH2 0xAA6 DUP3 PUSH2 0xA88 JUMP JUMPDEST DUP5 DUP5 SLOAD PUSH2 0xA0D JUMP JUMPDEST DUP3 SSTORE POP POP POP POP JUMP JUMPDEST PUSH0 SWAP1 JUMP JUMPDEST PUSH2 0xAC2 PUSH2 0xAB6 JUMP JUMPDEST PUSH2 0xACD DUP2 DUP5 DUP5 PUSH2 0xA91 JUMP JUMPDEST POP POP POP JUMP JUMPDEST JUMPDEST DUP2 DUP2 LT ISZERO PUSH2 0xAF0 JUMPI PUSH2 0xAE5 PUSH0 DUP3 PUSH2 0xABA JUMP JUMPDEST PUSH1 0x1 DUP2 ADD SWAP1 POP PUSH2 0xAD3 JUMP JUMPDEST POP POP JUMP JUMPDEST PUSH1 0x1F DUP3 GT ISZERO PUSH2 0xB35 JUMPI PUSH2 0xB06 DUP2 PUSH2 0x9E0 JUMP JUMPDEST PUSH2 0xB0F DUP5 PUSH2 0x9F2 JUMP JUMPDEST DUP2 ADD PUSH1 0x20 DUP6 LT ISZERO PUSH2 0xB1E JUMPI DUP2 SWAP1 POP JUMPDEST PUSH2 0xB32 PUSH2 0xB2A DUP6 PUSH2 0x9F2 JUMP JUMPDEST DUP4 ADD DUP3 PUSH2 0xAD2 JUMP JUMPDEST POP POP JUMPDEST POP POP POP JUMP JUMPDEST PUSH0 DUP3 DUP3 SHR SWAP1 POP SWAP3 SWAP2 POP POP JUMP JUMPDEST PUSH0 PUSH2 0xB55 PUSH0 NOT DUP5 PUSH1 0x8 MUL PUSH2 0xB3A JUMP JUMPDEST NOT DUP1 DUP4 AND SWAP2 POP POP SWAP3 SWAP2 POP POP JUMP JUMPDEST PUSH0 PUSH2 0xB6D DUP4 DUP4 PUSH2 0xB46 JUMP JUMPDEST SWAP2 POP DUP3 PUSH1 0x2 MUL DUP3 OR SWAP1 POP SWAP3 SWAP2 POP POP JUMP JUMPDEST PUSH2 0xB86 DUP3 PUSH2 0x7FF JUMP JUMPDEST PUSH8 0xFFFFFFFFFFFFFFFF DUP2 GT ISZERO PUSH2 0xB9F JUMPI PUSH2 0xB9E PUSH2 0x59D JUMP JUMPDEST JUMPDEST PUSH2 0xBA9 DUP3 SLOAD PUSH2 0x9B0 JUMP JUMPDEST PUSH2 0xBB4 DUP3 DUP3 DUP6 PUSH2 0xAF4 JUMP JUMPDEST PUSH0 PUSH1 0x20 SWAP1 POP PUSH1 0x1F DUP4 GT PUSH1 0x1 DUP2 EQ PUSH2 0xBE5 JUMPI PUSH0 DUP5 ISZERO PUSH2 0xBD3 JUMPI DUP3 DUP8 ADD MLOAD SWAP1 POP JUMPDEST PUSH2 0xBDD DUP6 DUP3 PUSH2 0xB62 JUMP JUMPDEST DUP7 SSTORE POP PUSH2 0xC44 JUMP JUMPDEST PUSH1 0x1F NOT DUP5 AND PUSH2 0xBF3 DUP7 PUSH2 0x9E0 JUMP JUMPDEST PUSH0 JUMPDEST DUP3 DUP2 LT ISZERO PUSH2 0xC1A JUMPI DUP5 DUP10 ADD MLOAD DUP3 SSTORE PUSH1 0x1 DUP3 ADD SWAP2 POP PUSH1 0x20 DUP6 ADD SWAP5 POP PUSH1 0x20 DUP2 ADD SWAP1 POP PUSH2 0xBF5 JUMP JUMPDEST DUP7 DUP4 LT ISZERO PUSH2 0xC37 JUMPI DUP5 DUP10 ADD MLOAD PUSH2 0xC33 PUSH1 0x1F DUP10 AND DUP3 PUSH2 0xB46 JUMP JUMPDEST DUP4 SSTORE POP JUMPDEST PUSH1 0x1 PUSH1 0x2 DUP9 MUL ADD DUP9 SSTORE POP POP POP JUMPDEST POP POP POP POP POP POP JUMP JUMPDEST PUSH32 0x4E487B7100000000000000000000000000000000000000000000000000000000 PUSH0 MSTORE PUSH1 0x11 PUSH1 0x4 MSTORE PUSH1 0x24 PUSH0 REVERT JUMPDEST PUSH0 PUSH2 0xC83 DUP3 PUSH2 0x6F6 JUMP JUMPDEST SWAP2 POP PUSH32 0xFFFFFFFFFFFFFFFFFFFFFFFFFFFFFFFFFFFFFFFFFFFFFFFFFFFFFFFFFFFFFFFF DUP3 SUB PUSH2 0xCB5 JUMPI PUSH2 0xCB4 PUSH2 0xC4C JUMP JUMPDEST JUMPDEST PUSH1 0x1 DUP3 ADD SWAP1 POP SWAP2 SWAP1 POP JUMP JUMPDEST PUSH32 0x426F6F6B206E6F7420666F756E64000000000000000000000000000000000000 PUSH0 DUP3 ADD MSTORE POP JUMP JUMPDEST PUSH0 PUSH2 0xCF4 PUSH1 0xE DUP4 PUSH2 0x809 JUMP JUMPDEST SWAP2 POP PUSH2 0xCFF DUP3 PUSH2 0xCC0 JUMP JUMPDEST PUSH1 0x20 DUP3 ADD SWAP1 POP SWAP2 SWAP1 POP JUMP JUMPDEST PUSH0 PUSH1 0x20 DUP3 ADD SWAP1 POP DUP2 DUP2 SUB PUSH0 DUP4 ADD MSTORE PUSH2 0xD21 DUP2 PUSH2 0xCE8 JUMP JUMPDEST SWAP1 POP SWAP2 SWAP1 POP JUMP JUMPDEST PUSH32 0x5072656D69756D20706C616E2072657175697265640000000000000000000000 PUSH0 DUP3 ADD MSTORE POP JUMP JUMPDEST PUSH0 PUSH2 0xD5C PUSH1 0x15 DUP4 PUSH2 0x809 JUMP JUMPDEST SWAP2 POP PUSH2 0xD67 DUP3 PUSH2 0xD28 JUMP JUMPDEST PUSH1 0x20 DUP3 ADD SWAP1 POP SWAP2 SWAP1 POP JUMP JUMPDEST PUSH0 PUSH1 0x20 DUP3 ADD SWAP1 POP DUP2 DUP2 SUB PUSH0 DUP4 ADD MSTORE PUSH2 0xD89 DUP2 PUSH2 0xD50 JUMP JUMPDEST SWAP1 POP SWAP2 SWAP1 POP JUMP INVALID LOG2 PUSH5 0x6970667358 0x22 SLT KECCAK256 GASPRICE 0xD2 BLOBBASEFEE JUMPI 0xE1 0xBE SWAP14 SWAP10 0x4C 0x21 MLOAD 0xC8 0xD0 0xDA 0xC4 0x4F 0xF7 RETURN 0xC9 MSIZE CALLVALUE 0xB8 RETURN 0xE7 0xD8 DUP12 0xAA SWAP16 0xE5 DUP7 PUSH31 0xB364736F6C6343000819003300000000000000000000000000000000000000 "
				},
				"gasEstimates": {
					"creation": {
						"codeDepositCost": "705200",
						"executionCost": "infinite",
						"totalCost": "infinite"
					},
					"external": {
						"addBook(string,string,bool,uint256)": "infinite",
						"books(uint256)": "infinite",
						"getBook(uint256)": "infinite",
						"nextBookId()": "2447"
					}
				},
				"methodIdentifiers": {
					"addBook(string,string,bool,uint256)": "599ebf08",
					"books(uint256)": "68744046",
					"getBook(uint256)": "e0ff5b8b",
					"nextBookId()": "7cf52d96"
				}
			},
			"storageLayout": {
				"storage": [
					{
						"astId": 17,
						"contract": "contracts/Bookstore.sol:Bookstore",
						"label": "books",
						"offset": 0,
						"slot": "0",
						"type": "t_mapping(t_uint256,t_struct(Book)12_storage)"
					},
					{
						"astId": 19,
						"contract": "contracts/Bookstore.sol:Bookstore",
						"label": "nextBookId",
						"offset": 0,
						"slot": "1",
						"type": "t_uint256"
					}
				],
				"types": {
					"t_bool": {
						"encoding": "inplace",
						"label": "bool",
						"numberOfBytes": "1"
					},
					"t_mapping(t_uint256,t_struct(Book)12_storage)": {
						"encoding": "mapping",
						"key": "t_uint256",
						"label": "mapping(uint256 => struct Bookstore.Book)",
						"numberOfBytes": "32",
						"value": "t_struct(Book)12_storage"
					},
					"t_string_storage": {
						"encoding": "bytes",
						"label": "string",
						"numberOfBytes": "32"
					},
					"t_struct(Book)12_storage": {
						"encoding": "inplace",
						"label": "struct Bookstore.Book",
						"members": [
							{
								"astId": 3,
								"contract": "contracts/Bookstore.sol:Bookstore",
								"label": "bookId",
								"offset": 0,
								"slot": "0",
								"type": "t_uint256"
							},
							{
								"astId": 5,
								"contract": "contracts/Bookstore.sol:Bookstore",
								"label": "title",
								"offset": 0,
								"slot": "1",
								"type": "t_string_storage"
							},
							{
								"astId": 7,
								"contract": "contracts/Bookstore.sol:Bookstore",
								"label": "author",
								"offset": 0,
								"slot": "2",
								"type": "t_string_storage"
							},
							{
								"astId": 9,
								"contract": "contracts/Bookstore.sol:Bookstore",
								"label": "isPremium",
								"offset": 0,
								"slot": "3",
								"type": "t_bool"
							},
							{
								"astId": 11,
								"contract": "contracts/Bookstore.sol:Bookstore",
								"label": "price",
								"offset": 0,
								"slot": "4",
								"type": "t_uint256"
							}
						],
						"numberOfBytes": "160"
					},
					"t_uint256": {
						"encoding": "inplace",
						"label": "uint256",
						"numberOfBytes": "32"
					}
				}
			},
			"userdoc": {
				"kind": "user",
				"methods": {},
				"version": 1
			}
		}
	}
}