{
	"contracts/HelloWorld.sol": {
		"Bookstore": {
			"abi": [
				{
					"inputs": [],
					"stateMutability": "nonpayable",
					"type": "constructor"
				},
				{
					"inputs": [
						{
							"internalType": "string",
							"name": "_title",
							"type": "string"
						},
						{
							"internalType": "string",
							"name": "_author",
							"type": "string"
						},
						{
							"internalType": "bool",
							"name": "_isPremium",
							"type": "bool"
						},
						{
							"internalType": "uint256",
							"name": "_price",
							"type": "uint256"
						}
					],
					"name": "addBook",
					"outputs": [],
					"stateMutability": "nonpayable",
					"type": "function"
				},
				{
					"inputs": [
						{
							"internalType": "uint256",
							"name": "",
							"type": "uint256"
						}
					],
					"name": "books",
					"outputs": [
						{
							"internalType": "uint256",
							"name": "bookId",
							"type": "uint256"
						},
						{
							"internalType": "string",
							"name": "title",
							"type": "string"
						},
						{
							"internalType": "string",
							"name": "author",
							"type": "string"
						},
						{
							"internalType": "bool",
							"name": "isPremium",
							"type": "bool"
						},
						{
							"internalType": "uint256",
							"name": "price",
							"type": "uint256"
						}
					],
					"stateMutability": "view",
					"type": "function"
				},
				{
					"inputs": [],
					"name": "buyPremiumPlan",
					"outputs": [],
					"stateMutability": "payable",
					"type": "function"
				},
				{
					"inputs": [
						{
							"internalType": "uint256",
							"name": "_bookId",
							"type": "uint256"
						}
					],
					"name": "getBook",
					"outputs": [
						{
							"internalType": "string",
							"name": "title",
							"type": "string"
						},
						{
							"internalType": "string",
							"name": "author",
							"type": "string"
						}
					],
					"stateMutability": "view",
					"type": "function"
				},
				{
					"inputs": [
						{
							"internalType": "address",
							"name": "",
							"type": "address"
						}
					],
					"name": "isActive",
					"outputs": [
						{
							"internalType": "bool",
							"name": "",
							"type": "bool"
						}
					],
					"stateMutability": "view",
					"type": "function"
				},
				{
					"inputs": [],
					"name": "nextBookId",
					"outputs": [
						{
							"internalType": "uint256",
							"name": "",
							"type": "uint256"
						}
					],
					"stateMutability": "view",
					"type": "function"
				}
			],
			"devdoc": {
				"kind": "dev",
				"methods": {},
				"version": 1
			},
			"evm": {
				"assembly": "    /* \"contracts/HelloWorld.sol\":94:1328  contract Bookstore {... */\n  mstore(0x40, 0x80)\n    /* \"contracts/HelloWorld.sol\":370:415  constructor() {... */\n  callvalue\n  dup1\n  iszero\n  tag_1\n  jumpi\n  0x00\n  dup1\n  revert\ntag_1:\n  pop\n    /* \"contracts/HelloWorld.sol\":407:408  1 */\n  0x01\n    /* \"contracts/HelloWorld.sol\":394:404  nextBookId */\n  0x02\n    /* \"contracts/HelloWorld.sol\":394:408  nextBookId = 1 */\n  dup2\n  swap1\n  sstore\n  pop\n    /* \"contracts/HelloWorld.sol\":94:1328  contract Bookstore {... */\n  dataSize(sub_0)\n  dup1\n  dataOffset(sub_0)\n  0x00\n  codecopy\n  0x00\n  return\nstop\n\nsub_0: assembly {\n        /* \"contracts/HelloWorld.sol\":94:1328  contract Bookstore {... */\n      mstore(0x40, 0x80)\n      jumpi(tag_1, lt(calldatasize, 0x04))\n      shr(0xe0, calldataload(0x00))\n      dup1\n      0x08a5302b\n      eq\n      tag_2\n      jumpi\n      dup1\n      0x599ebf08\n      eq\n      tag_3\n      jumpi\n      dup1\n      0x68744046\n      eq\n      tag_4\n      jumpi\n      dup1\n      0x7cf52d96\n      eq\n      tag_5\n      jumpi\n      dup1\n      0x9f8a13d7\n      eq\n      tag_6\n      jumpi\n      dup1\n      0xe0ff5b8b\n      eq\n      tag_7\n      jumpi\n    tag_1:\n      0x00\n      dup1\n      revert\n        /* \"contracts/HelloWorld.sol\":769:947  function buyPremiumPlan() public payable {... */\n    tag_2:\n      tag_8\n      tag_9\n      jump\t// in\n    tag_8:\n      stop\n        /* \"contracts/HelloWorld.sol\":421:763  function addBook(string memory _title, string memory _author, bool _isPremium, uint _price) public {... */\n    tag_3:\n      callvalue\n      dup1\n      iszero\n      tag_10\n      jumpi\n      0x00\n      dup1\n      revert\n    tag_10:\n      pop\n      tag_11\n      0x04\n      dup1\n      calldatasize\n      sub\n      dup2\n      add\n      swap1\n      tag_12\n      swap2\n      swap1\n      tag_13\n      jump\t// in\n    tag_12:\n      tag_14\n      jump\t// in\n    tag_11:\n      stop\n        /* \"contracts/HelloWorld.sol\":255:289  mapping(uint => Book) public books */\n    tag_4:\n      callvalue\n      dup1\n      iszero\n      tag_15\n      jumpi\n      0x00\n      dup1\n      revert\n    tag_15:\n      pop\n      tag_16\n      0x04\n      dup1\n      calldatasize\n      sub\n      dup2\n      add\n      swap1\n      tag_17\n      swap2\n      swap1\n      tag_18\n      jump\t// in\n    tag_17:\n      tag_19\n      jump\t// in\n    tag_16:\n      mload(0x40)\n      tag_20\n      swap6\n      swap5\n      swap4\n      swap3\n      swap2\n      swap1\n      tag_21\n      jump\t// in\n    tag_20:\n      mload(0x40)\n      dup1\n      swap2\n      sub\n      swap1\n      return\n        /* \"contracts/HelloWorld.sol\":341:363  uint public nextBookId */\n    tag_5:\n      callvalue\n      dup1\n      iszero\n      tag_22\n      jumpi\n      0x00\n      dup1\n      revert\n    tag_22:\n      pop\n      tag_23\n      tag_24\n      jump\t// in\n    tag_23:\n      mload(0x40)\n      tag_25\n      swap2\n      swap1\n      tag_26\n      jump\t// in\n    tag_25:\n      mload(0x40)\n      dup1\n      swap2\n      sub\n      swap1\n      return\n        /* \"contracts/HelloWorld.sol\":295:335  mapping(address => bool) public isActive */\n    tag_6:\n      callvalue\n      dup1\n      iszero\n      tag_27\n      jumpi\n      0x00\n      dup1\n      revert\n    tag_27:\n      pop\n      tag_28\n      0x04\n      dup1\n      calldatasize\n      sub\n      dup2\n      add\n      swap1\n      tag_29\n      swap2\n      swap1\n      tag_30\n      jump\t// in\n    tag_29:\n      tag_31\n      jump\t// in\n    tag_28:\n      mload(0x40)\n      tag_32\n      swap2\n      swap1\n      tag_33\n      jump\t// in\n    tag_32:\n      mload(0x40)\n      dup1\n      swap2\n      sub\n      swap1\n      return\n        /* \"contracts/HelloWorld.sol\":953:1324  function getBook(uint _bookId) public view returns (string memory title, string memory author) {... */\n    tag_7:\n      callvalue\n      dup1\n      iszero\n      tag_34\n      jumpi\n      0x00\n      dup1\n      revert\n    tag_34:\n      pop\n      tag_35\n      0x04\n      dup1\n      calldatasize\n      sub\n      dup2\n      add\n      swap1\n      tag_36\n      swap2\n      swap1\n      tag_18\n      jump\t// in\n    tag_36:\n      tag_37\n      jump\t// in\n    tag_35:\n      mload(0x40)\n      tag_38\n      swap3\n      swap2\n      swap1\n      tag_39\n      jump\t// in\n    tag_38:\n      mload(0x40)\n      dup1\n      swap2\n      sub\n      swap1\n      return\n        /* \"contracts/HelloWorld.sol\":769:947  function buyPremiumPlan() public payable {... */\n    tag_9:\n        /* \"contracts/HelloWorld.sol\":936:940  true */\n      0x01\n        /* \"contracts/HelloWorld.sol\":913:921  isActive */\n      dup1\n        /* \"contracts/HelloWorld.sol\":913:933  isActive[msg.sender] */\n      0x00\n        /* \"contracts/HelloWorld.sol\":922:932  msg.sender */\n      caller\n        /* \"contracts/HelloWorld.sol\":913:933  isActive[msg.sender] */\n      0xffffffffffffffffffffffffffffffffffffffff\n      and\n      0xffffffffffffffffffffffffffffffffffffffff\n      and\n      dup2\n      mstore\n      0x20\n      add\n      swap1\n      dup2\n      mstore\n      0x20\n      add\n      0x00\n      keccak256\n      0x00\n        /* \"contracts/HelloWorld.sol\":913:940  isActive[msg.sender] = true */\n      0x0100\n      exp\n      dup2\n      sload\n      dup2\n      0xff\n      mul\n      not\n      and\n      swap1\n      dup4\n      iszero\n      iszero\n      mul\n      or\n      swap1\n      sstore\n      pop\n        /* \"contracts/HelloWorld.sol\":769:947  function buyPremiumPlan() public payable {... */\n      jump\t// out\n        /* \"contracts/HelloWorld.sol\":421:763  function addBook(string memory _title, string memory _author, bool _isPremium, uint _price) public {... */\n    tag_14:\n        /* \"contracts/HelloWorld.sol\":552:561  tx.origin */\n      origin\n        /* \"contracts/HelloWorld.sol\":538:561  msg.sender == tx.origin */\n      0xffffffffffffffffffffffffffffffffffffffff\n      and\n        /* \"contracts/HelloWorld.sol\":538:548  msg.sender */\n      caller\n        /* \"contracts/HelloWorld.sol\":538:561  msg.sender == tx.origin */\n      0xffffffffffffffffffffffffffffffffffffffff\n      and\n      eq\n        /* \"contracts/HelloWorld.sol\":530:590  require(msg.sender == tx.origin, \"Only owner can add books\") */\n      tag_42\n      jumpi\n      mload(0x40)\n      0x08c379a000000000000000000000000000000000000000000000000000000000\n      dup2\n      mstore\n      0x04\n      add\n      tag_43\n      swap1\n      tag_44\n      jump\t// in\n    tag_43:\n      mload(0x40)\n      dup1\n      swap2\n      sub\n      swap1\n      revert\n    tag_42:\n        /* \"contracts/HelloWorld.sol\":681:734  Book(nextBookId, _title, _author, _isPremium, _price) */\n      mload(0x40)\n      dup1\n      0xa0\n      add\n      0x40\n      mstore\n      dup1\n        /* \"contracts/HelloWorld.sol\":686:696  nextBookId */\n      sload(0x02)\n        /* \"contracts/HelloWorld.sol\":681:734  Book(nextBookId, _title, _author, _isPremium, _price) */\n      dup2\n      mstore\n      0x20\n      add\n        /* \"contracts/HelloWorld.sol\":698:704  _title */\n      dup6\n        /* \"contracts/HelloWorld.sol\":681:734  Book(nextBookId, _title, _author, _isPremium, _price) */\n      dup2\n      mstore\n      0x20\n      add\n        /* \"contracts/HelloWorld.sol\":706:713  _author */\n      dup5\n        /* \"contracts/HelloWorld.sol\":681:734  Book(nextBookId, _title, _author, _isPremium, _price) */\n      dup2\n      mstore\n      0x20\n      add\n        /* \"contracts/HelloWorld.sol\":715:725  _isPremium */\n      dup4\n        /* \"contracts/HelloWorld.sol\":681:734  Book(nextBookId, _title, _author, _isPremium, _price) */\n      iszero\n      iszero\n      dup2\n      mstore\n      0x20\n      add\n        /* \"contracts/HelloWorld.sol\":727:733  _price */\n      dup3\n        /* \"contracts/HelloWorld.sol\":681:734  Book(nextBookId, _title, _author, _isPremium, _price) */\n      dup2\n      mstore\n      pop\n        /* \"contracts/HelloWorld.sol\":661:666  books */\n      0x00\n        /* \"contracts/HelloWorld.sol\":661:678  books[nextBookId] */\n      dup1\n        /* \"contracts/HelloWorld.sol\":667:677  nextBookId */\n      sload(0x02)\n        /* \"contracts/HelloWorld.sol\":661:678  books[nextBookId] */\n      dup2\n      mstore\n      0x20\n      add\n      swap1\n      dup2\n      mstore\n      0x20\n      add\n      0x00\n      keccak256\n        /* \"contracts/HelloWorld.sol\":661:734  books[nextBookId] = Book(nextBookId, _title, _author, _isPremium, _price) */\n      0x00\n      dup3\n      add\n      mload\n      dup2\n      0x00\n      add\n      sstore\n      0x20\n      dup3\n      add\n      mload\n      dup2\n      0x01\n      add\n      swap1\n      dup2\n      tag_45\n      swap2\n      swap1\n      tag_46\n      jump\t// in\n    tag_45:\n      pop\n      0x40\n      dup3\n      add\n      mload\n      dup2\n      0x02\n      add\n      swap1\n      dup2\n      tag_47\n      swap2\n      swap1\n      tag_46\n      jump\t// in\n    tag_47:\n      pop\n      0x60\n      dup3\n      add\n      mload\n      dup2\n      0x03\n      add\n      exp(0x0100, 0x00)\n      dup2\n      sload\n      dup2\n      0xff\n      mul\n      not\n      and\n      swap1\n      dup4\n      iszero\n      iszero\n      mul\n      or\n      swap1\n      sstore\n      pop\n      0x80\n      dup3\n      add\n      mload\n      dup2\n      0x04\n      add\n      sstore\n      swap1\n      pop\n      pop\n        /* \"contracts/HelloWorld.sol\":744:754  nextBookId */\n      0x02\n      0x00\n        /* \"contracts/HelloWorld.sol\":744:756  nextBookId++ */\n      dup2\n      sload\n      dup1\n      swap3\n      swap2\n      swap1\n      tag_48\n      swap1\n      tag_49\n      jump\t// in\n    tag_48:\n      swap2\n      swap1\n      pop\n      sstore\n      pop\n        /* \"contracts/HelloWorld.sol\":421:763  function addBook(string memory _title, string memory _author, bool _isPremium, uint _price) public {... */\n      pop\n      pop\n      pop\n      pop\n      jump\t// out\n        /* \"contracts/HelloWorld.sol\":255:289  mapping(uint => Book) public books */\n    tag_19:\n      mstore(0x20, 0x00)\n      dup1\n      0x00\n      mstore\n      keccak256(0x00, 0x40)\n      0x00\n      swap2\n      pop\n      swap1\n      pop\n      dup1\n      0x00\n      add\n      sload\n      swap1\n      dup1\n      0x01\n      add\n      dup1\n      sload\n      tag_50\n      swap1\n      tag_51\n      jump\t// in\n    tag_50:\n      dup1\n      0x1f\n      add\n      0x20\n      dup1\n      swap2\n      div\n      mul\n      0x20\n      add\n      mload(0x40)\n      swap1\n      dup2\n      add\n      0x40\n      mstore\n      dup1\n      swap3\n      swap2\n      swap1\n      dup2\n      dup2\n      mstore\n      0x20\n      add\n      dup3\n      dup1\n      sload\n      tag_52\n      swap1\n      tag_51\n      jump\t// in\n    tag_52:\n      dup1\n      iszero\n      tag_53\n      jumpi\n      dup1\n      0x1f\n      lt\n      tag_54\n      jumpi\n      0x0100\n      dup1\n      dup4\n      sload\n      div\n      mul\n      dup4\n      mstore\n      swap2\n      0x20\n      add\n      swap2\n      jump(tag_53)\n    tag_54:\n      dup3\n      add\n      swap2\n      swap1\n      0x00\n      mstore\n      keccak256(0x00, 0x20)\n      swap1\n    tag_55:\n      dup2\n      sload\n      dup2\n      mstore\n      swap1\n      0x01\n      add\n      swap1\n      0x20\n      add\n      dup1\n      dup4\n      gt\n      tag_55\n      jumpi\n      dup3\n      swap1\n      sub\n      0x1f\n      and\n      dup3\n      add\n      swap2\n    tag_53:\n      pop\n      pop\n      pop\n      pop\n      pop\n      swap1\n      dup1\n      0x02\n      add\n      dup1\n      sload\n      tag_56\n      swap1\n      tag_51\n      jump\t// in\n    tag_56:\n      dup1\n      0x1f\n      add\n      0x20\n      dup1\n      swap2\n      div\n      mul\n      0x20\n      add\n      mload(0x40)\n      swap1\n      dup2\n      add\n      0x40\n      mstore\n      dup1\n      swap3\n      swap2\n      swap1\n      dup2\n      dup2\n      mstore\n      0x20\n      add\n      dup3\n      dup1\n      sload\n      tag_57\n      swap1\n      tag_51\n      jump\t// in\n    tag_57:\n      dup1\n      iszero\n      tag_58\n      jumpi\n      dup1\n      0x1f\n      lt\n      tag_59\n      jumpi\n      0x0100\n      dup1\n      dup4\n      sload\n      div\n      mul\n      dup4\n      mstore\n      swap2\n      0x20\n      add\n      swap2\n      jump(tag_58)\n    tag_59:\n      dup3\n      add\n      swap2\n      swap1\n      0x00\n      mstore\n      keccak256(0x00, 0x20)\n      swap1\n    tag_60:\n      dup2\n      sload\n      dup2\n      mstore\n      swap1\n      0x01\n      add\n      swap1\n      0x20\n      add\n      dup1\n      dup4\n      gt\n      tag_60\n      jumpi\n      dup3\n      swap1\n      sub\n      0x1f\n      and\n      dup3\n      add\n      swap2\n    tag_58:\n      pop\n      pop\n      pop\n      pop\n      pop\n      swap1\n      dup1\n      0x03\n      add\n      0x00\n      swap1\n      sload\n      swap1\n      0x0100\n      exp\n      swap1\n      div\n      0xff\n      and\n      swap1\n      dup1\n      0x04\n      add\n      sload\n      swap1\n      pop\n      dup6\n      jump\t// out\n        /* \"contracts/HelloWorld.sol\":341:363  uint public nextBookId */\n    tag_24:\n      sload(0x02)\n      dup2\n      jump\t// out\n        /* \"contracts/HelloWorld.sol\":295:335  mapping(address => bool) public isActive */\n    tag_31:\n      mstore(0x20, 0x01)\n      dup1\n      0x00\n      mstore\n      keccak256(0x00, 0x40)\n      0x00\n      swap2\n      pop\n      sload\n      swap1\n      0x0100\n      exp\n      swap1\n      div\n      0xff\n      and\n      dup2\n      jump\t// out\n        /* \"contracts/HelloWorld.sol\":953:1324  function getBook(uint _bookId) public view returns (string memory title, string memory author) {... */\n    tag_37:\n        /* \"contracts/HelloWorld.sol\":1005:1024  string memory title */\n      0x60\n        /* \"contracts/HelloWorld.sol\":1026:1046  string memory author */\n      dup1\n        /* \"contracts/HelloWorld.sol\":1058:1074  Book memory book */\n      0x00\n        /* \"contracts/HelloWorld.sol\":1077:1082  books */\n      dup1\n        /* \"contracts/HelloWorld.sol\":1077:1091  books[_bookId] */\n      0x00\n        /* \"contracts/HelloWorld.sol\":1083:1090  _bookId */\n      dup6\n        /* \"contracts/HelloWorld.sol\":1077:1091  books[_bookId] */\n      dup2\n      mstore\n      0x20\n      add\n      swap1\n      dup2\n      mstore\n      0x20\n      add\n      0x00\n      keccak256\n        /* \"contracts/HelloWorld.sol\":1058:1091  Book memory book = books[_bookId] */\n      mload(0x40)\n      dup1\n      0xa0\n      add\n      0x40\n      mstore\n      swap1\n      dup2\n      0x00\n      dup3\n      add\n      sload\n      dup2\n      mstore\n      0x20\n      add\n      0x01\n      dup3\n      add\n      dup1\n      sload\n      tag_62\n      swap1\n      tag_51\n      jump\t// in\n    tag_62:\n      dup1\n      0x1f\n      add\n      0x20\n      dup1\n      swap2\n      div\n      mul\n      0x20\n      add\n      mload(0x40)\n      swap1\n      dup2\n      add\n      0x40\n      mstore\n      dup1\n      swap3\n      swap2\n      swap1\n      dup2\n      dup2\n      mstore\n      0x20\n      add\n      dup3\n      dup1\n      sload\n      tag_63\n      swap1\n      tag_51\n      jump\t// in\n    tag_63:\n      dup1\n      iszero\n      tag_64\n      jumpi\n      dup1\n      0x1f\n      lt\n      tag_65\n      jumpi\n      0x0100\n      dup1\n      dup4\n      sload\n      div\n      mul\n      dup4\n      mstore\n      swap2\n      0x20\n      add\n      swap2\n      jump(tag_64)\n    tag_65:\n      dup3\n      add\n      swap2\n      swap1\n      0x00\n      mstore\n      keccak256(0x00, 0x20)\n      swap1\n    tag_66:\n      dup2\n      sload\n      dup2\n      mstore\n      swap1\n      0x01\n      add\n      swap1\n      0x20\n      add\n      dup1\n      dup4\n      gt\n      tag_66\n      jumpi\n      dup3\n      swap1\n      sub\n      0x1f\n      and\n      dup3\n      add\n      swap2\n    tag_64:\n      pop\n      pop\n      pop\n      pop\n      pop\n      dup2\n      mstore\n      0x20\n      add\n      0x02\n      dup3\n      add\n      dup1\n      sload\n      tag_67\n      swap1\n      tag_51\n      jump\t// in\n    tag_67:\n      dup1\n      0x1f\n      add\n      0x20\n      dup1\n      swap2\n      div\n      mul\n      0x20\n      add\n      mload(0x40)\n      swap1\n      dup2\n      add\n      0x40\n      mstore\n      dup1\n      swap3\n      swap2\n      swap1\n      dup2\n      dup2\n      mstore\n      0x20\n      add\n      dup3\n      dup1\n      sload\n      tag_68\n      swap1\n      tag_51\n      jump\t// in\n    tag_68:\n      dup1\n      iszero\n      tag_69\n      jumpi\n      dup1\n      0x1f\n      lt\n      tag_70\n      jumpi\n      0x0100\n      dup1\n      dup4\n      sload\n      div\n      mul\n      dup4\n      mstore\n      swap2\n      0x20\n      add\n      swap2\n      jump(tag_69)\n    tag_70:\n      dup3\n      add\n      swap2\n      swap1\n      0x00\n      mstore\n      keccak256(0x00, 0x20)\n      swap1\n    tag_71:\n      dup2\n      sload\n      dup2\n      mstore\n      swap1\n      0x01\n      add\n      swap1\n      0x20\n      add\n      dup1\n      dup4\n      gt\n      tag_71\n      jumpi\n      dup3\n      swap1\n      sub\n      0x1f\n      and\n      dup3\n      add\n      swap2\n    tag_69:\n      pop\n      pop\n      pop\n      pop\n      pop\n      dup2\n      mstore\n      0x20\n      add\n      0x03\n      dup3\n      add\n      0x00\n      swap1\n      sload\n      swap1\n      0x0100\n      exp\n      swap1\n      div\n      0xff\n      and\n      iszero\n      iszero\n      iszero\n      iszero\n      dup2\n      mstore\n      0x20\n      add\n      0x04\n      dup3\n      add\n      sload\n      dup2\n      mstore\n      pop\n      pop\n      swap1\n      pop\n        /* \"contracts/HelloWorld.sol\":1123:1124  0 */\n      0x00\n        /* \"contracts/HelloWorld.sol\":1109:1113  book */\n      dup2\n        /* \"contracts/HelloWorld.sol\":1109:1120  book.bookId */\n      0x00\n      add\n      mload\n        /* \"contracts/HelloWorld.sol\":1109:1124  book.bookId > 0 */\n      gt\n        /* \"contracts/HelloWorld.sol\":1101:1143  require(book.bookId > 0, \"Book not found\") */\n      tag_72\n      jumpi\n      mload(0x40)\n      0x08c379a000000000000000000000000000000000000000000000000000000000\n      dup2\n      mstore\n      0x04\n      add\n      tag_73\n      swap1\n      tag_74\n      jump\t// in\n    tag_73:\n      mload(0x40)\n      dup1\n      swap2\n      sub\n      swap1\n      revert\n    tag_72:\n        /* \"contracts/HelloWorld.sol\":1159:1163  book */\n      dup1\n        /* \"contracts/HelloWorld.sol\":1159:1173  book.isPremium */\n      0x60\n      add\n      mload\n        /* \"contracts/HelloWorld.sol\":1158:1173  !book.isPremium */\n      iszero\n        /* \"contracts/HelloWorld.sol\":1158:1197  !book.isPremium || isActive[msg.sender] */\n      dup1\n      tag_75\n      jumpi\n      pop\n        /* \"contracts/HelloWorld.sol\":1177:1185  isActive */\n      0x01\n        /* \"contracts/HelloWorld.sol\":1177:1197  isActive[msg.sender] */\n      0x00\n        /* \"contracts/HelloWorld.sol\":1186:1196  msg.sender */\n      caller\n        /* \"contracts/HelloWorld.sol\":1177:1197  isActive[msg.sender] */\n      0xffffffffffffffffffffffffffffffffffffffff\n      and\n      0xffffffffffffffffffffffffffffffffffffffff\n      and\n      dup2\n      mstore\n      0x20\n      add\n      swap1\n      dup2\n      mstore\n      0x20\n      add\n      0x00\n      keccak256\n      0x00\n      swap1\n      sload\n      swap1\n      0x0100\n      exp\n      swap1\n      div\n      0xff\n      and\n        /* \"contracts/HelloWorld.sol\":1158:1197  !book.isPremium || isActive[msg.sender] */\n    tag_75:\n        /* \"contracts/HelloWorld.sol\":1154:1318  if (!book.isPremium || isActive[msg.sender]) {... */\n      iszero\n      tag_76\n      jumpi\n        /* \"contracts/HelloWorld.sol\":1221:1225  book */\n      dup1\n        /* \"contracts/HelloWorld.sol\":1221:1231  book.title */\n      0x20\n      add\n      mload\n        /* \"contracts/HelloWorld.sol\":1233:1237  book */\n      dup2\n        /* \"contracts/HelloWorld.sol\":1233:1244  book.author */\n      0x40\n      add\n      mload\n        /* \"contracts/HelloWorld.sol\":1213:1245  return (book.title, book.author) */\n      swap3\n      pop\n      swap3\n      pop\n      pop\n      jump(tag_61)\n        /* \"contracts/HelloWorld.sol\":1154:1318  if (!book.isPremium || isActive[msg.sender]) {... */\n    tag_76:\n        /* \"contracts/HelloWorld.sol\":1276:1307  revert(\"Premium plan required\") */\n      mload(0x40)\n      0x08c379a000000000000000000000000000000000000000000000000000000000\n      dup2\n      mstore\n      0x04\n      add\n      tag_78\n      swap1\n      tag_79\n      jump\t// in\n    tag_78:\n      mload(0x40)\n      dup1\n      swap2\n      sub\n      swap1\n      revert\n        /* \"contracts/HelloWorld.sol\":953:1324  function getBook(uint _bookId) public view returns (string memory title, string memory author) {... */\n    tag_61:\n      swap2\n      pop\n      swap2\n      jump\t// out\n        /* \"#utility.yul\":7:82   */\n    tag_80:\n        /* \"#utility.yul\":40:46   */\n      0x00\n        /* \"#utility.yul\":73:75   */\n      0x40\n        /* \"#utility.yul\":67:76   */\n      mload\n        /* \"#utility.yul\":57:76   */\n      swap1\n      pop\n        /* \"#utility.yul\":7:82   */\n      swap1\n      jump\t// out\n        /* \"#utility.yul\":88:205   */\n    tag_81:\n        /* \"#utility.yul\":197:198   */\n      0x00\n        /* \"#utility.yul\":194:195   */\n      dup1\n        /* \"#utility.yul\":187:199   */\n      revert\n        /* \"#utility.yul\":211:328   */\n    tag_82:\n        /* \"#utility.yul\":320:321   */\n      0x00\n        /* \"#utility.yul\":317:318   */\n      dup1\n        /* \"#utility.yul\":310:322   */\n      revert\n        /* \"#utility.yul\":334:451   */\n    tag_83:\n        /* \"#utility.yul\":443:444   */\n      0x00\n        /* \"#utility.yul\":440:441   */\n      dup1\n        /* \"#utility.yul\":433:445   */\n      revert\n        /* \"#utility.yul\":457:574   */\n    tag_84:\n        /* \"#utility.yul\":566:567   */\n      0x00\n        /* \"#utility.yul\":563:564   */\n      dup1\n        /* \"#utility.yul\":556:568   */\n      revert\n        /* \"#utility.yul\":580:682   */\n    tag_85:\n        /* \"#utility.yul\":621:627   */\n      0x00\n        /* \"#utility.yul\":672:674   */\n      0x1f\n        /* \"#utility.yul\":668:675   */\n      not\n        /* \"#utility.yul\":663:665   */\n      0x1f\n        /* \"#utility.yul\":656:661   */\n      dup4\n        /* \"#utility.yul\":652:666   */\n      add\n        /* \"#utility.yul\":648:676   */\n      and\n        /* \"#utility.yul\":638:676   */\n      swap1\n      pop\n        /* \"#utility.yul\":580:682   */\n      swap2\n      swap1\n      pop\n      jump\t// out\n        /* \"#utility.yul\":688:868   */\n    tag_86:\n        /* \"#utility.yul\":736:813   */\n      0x4e487b7100000000000000000000000000000000000000000000000000000000\n        /* \"#utility.yul\":733:734   */\n      0x00\n        /* \"#utility.yul\":726:814   */\n      mstore\n        /* \"#utility.yul\":833:837   */\n      0x41\n        /* \"#utility.yul\":830:831   */\n      0x04\n        /* \"#utility.yul\":823:838   */\n      mstore\n        /* \"#utility.yul\":857:861   */\n      0x24\n        /* \"#utility.yul\":854:855   */\n      0x00\n        /* \"#utility.yul\":847:862   */\n      revert\n        /* \"#utility.yul\":874:1155   */\n    tag_87:\n        /* \"#utility.yul\":957:984   */\n      tag_141\n        /* \"#utility.yul\":979:983   */\n      dup3\n        /* \"#utility.yul\":957:984   */\n      tag_85\n      jump\t// in\n    tag_141:\n        /* \"#utility.yul\":949:955   */\n      dup2\n        /* \"#utility.yul\":945:985   */\n      add\n        /* \"#utility.yul\":1087:1093   */\n      dup2\n        /* \"#utility.yul\":1075:1085   */\n      dup2\n        /* \"#utility.yul\":1072:1094   */\n      lt\n        /* \"#utility.yul\":1051:1069   */\n      0xffffffffffffffff\n        /* \"#utility.yul\":1039:1049   */\n      dup3\n        /* \"#utility.yul\":1036:1070   */\n      gt\n        /* \"#utility.yul\":1033:1095   */\n      or\n        /* \"#utility.yul\":1030:1118   */\n      iszero\n      tag_142\n      jumpi\n        /* \"#utility.yul\":1098:1116   */\n      tag_143\n      tag_86\n      jump\t// in\n    tag_143:\n        /* \"#utility.yul\":1030:1118   */\n    tag_142:\n        /* \"#utility.yul\":1138:1148   */\n      dup1\n        /* \"#utility.yul\":1134:1136   */\n      0x40\n        /* \"#utility.yul\":1127:1149   */\n      mstore\n        /* \"#utility.yul\":917:1155   */\n      pop\n        /* \"#utility.yul\":874:1155   */\n      pop\n      pop\n      jump\t// out\n        /* \"#utility.yul\":1161:1290   */\n    tag_88:\n        /* \"#utility.yul\":1195:1201   */\n      0x00\n        /* \"#utility.yul\":1222:1242   */\n      tag_145\n      tag_80\n      jump\t// in\n    tag_145:\n        /* \"#utility.yul\":1212:1242   */\n      swap1\n      pop\n        /* \"#utility.yul\":1251:1284   */\n      tag_146\n        /* \"#utility.yul\":1279:1283   */\n      dup3\n        /* \"#utility.yul\":1271:1277   */\n      dup3\n        /* \"#utility.yul\":1251:1284   */\n      tag_87\n      jump\t// in\n    tag_146:\n        /* \"#utility.yul\":1161:1290   */\n      swap2\n      swap1\n      pop\n      jump\t// out\n        /* \"#utility.yul\":1296:1604   */\n    tag_89:\n        /* \"#utility.yul\":1358:1362   */\n      0x00\n        /* \"#utility.yul\":1448:1466   */\n      0xffffffffffffffff\n        /* \"#utility.yul\":1440:1446   */\n      dup3\n        /* \"#utility.yul\":1437:1467   */\n      gt\n        /* \"#utility.yul\":1434:1490   */\n      iszero\n      tag_148\n      jumpi\n        /* \"#utility.yul\":1470:1488   */\n      tag_149\n      tag_86\n      jump\t// in\n    tag_149:\n        /* \"#utility.yul\":1434:1490   */\n    tag_148:\n        /* \"#utility.yul\":1508:1537   */\n      tag_150\n        /* \"#utility.yul\":1530:1536   */\n      dup3\n        /* \"#utility.yul\":1508:1537   */\n      tag_85\n      jump\t// in\n    tag_150:\n        /* \"#utility.yul\":1500:1537   */\n      swap1\n      pop\n        /* \"#utility.yul\":1592:1596   */\n      0x20\n        /* \"#utility.yul\":1586:1590   */\n      dup2\n        /* \"#utility.yul\":1582:1597   */\n      add\n        /* \"#utility.yul\":1574:1597   */\n      swap1\n      pop\n        /* \"#utility.yul\":1296:1604   */\n      swap2\n      swap1\n      pop\n      jump\t// out\n        /* \"#utility.yul\":1610:1758   */\n    tag_90:\n        /* \"#utility.yul\":1708:1714   */\n      dup3\n        /* \"#utility.yul\":1703:1706   */\n      dup2\n        /* \"#utility.yul\":1698:1701   */\n      dup4\n        /* \"#utility.yul\":1685:1715   */\n      calldatacopy\n        /* \"#utility.yul\":1749:1750   */\n      0x00\n        /* \"#utility.yul\":1740:1746   */\n      dup4\n        /* \"#utility.yul\":1735:1738   */\n      dup4\n        /* \"#utility.yul\":1731:1747   */\n      add\n        /* \"#utility.yul\":1724:1751   */\n      mstore\n        /* \"#utility.yul\":1610:1758   */\n      pop\n      pop\n      pop\n      jump\t// out\n        /* \"#utility.yul\":1764:2189   */\n    tag_91:\n        /* \"#utility.yul\":1842:1847   */\n      0x00\n        /* \"#utility.yul\":1867:1933   */\n      tag_153\n        /* \"#utility.yul\":1883:1932   */\n      tag_154\n        /* \"#utility.yul\":1925:1931   */\n      dup5\n        /* \"#utility.yul\":1883:1932   */\n      tag_89\n      jump\t// in\n    tag_154:\n        /* \"#utility.yul\":1867:1933   */\n      tag_88\n      jump\t// in\n    tag_153:\n        /* \"#utility.yul\":1858:1933   */\n      swap1\n      pop\n        /* \"#utility.yul\":1956:1962   */\n      dup3\n        /* \"#utility.yul\":1949:1954   */\n      dup2\n        /* \"#utility.yul\":1942:1963   */\n      mstore\n        /* \"#utility.yul\":1994:1998   */\n      0x20\n        /* \"#utility.yul\":1987:1992   */\n      dup2\n        /* \"#utility.yul\":1983:1999   */\n      add\n        /* \"#utility.yul\":2032:2035   */\n      dup5\n        /* \"#utility.yul\":2023:2029   */\n      dup5\n        /* \"#utility.yul\":2018:2021   */\n      dup5\n        /* \"#utility.yul\":2014:2030   */\n      add\n        /* \"#utility.yul\":2011:2036   */\n      gt\n        /* \"#utility.yul\":2008:2120   */\n      iszero\n      tag_155\n      jumpi\n        /* \"#utility.yul\":2039:2118   */\n      tag_156\n      tag_84\n      jump\t// in\n    tag_156:\n        /* \"#utility.yul\":2008:2120   */\n    tag_155:\n        /* \"#utility.yul\":2129:2183   */\n      tag_157\n        /* \"#utility.yul\":2176:2182   */\n      dup5\n        /* \"#utility.yul\":2171:2174   */\n      dup3\n        /* \"#utility.yul\":2166:2169   */\n      dup6\n        /* \"#utility.yul\":2129:2183   */\n      tag_90\n      jump\t// in\n    tag_157:\n        /* \"#utility.yul\":1848:2189   */\n      pop\n        /* \"#utility.yul\":1764:2189   */\n      swap4\n      swap3\n      pop\n      pop\n      pop\n      jump\t// out\n        /* \"#utility.yul\":2209:2549   */\n    tag_92:\n        /* \"#utility.yul\":2265:2270   */\n      0x00\n        /* \"#utility.yul\":2314:2317   */\n      dup3\n        /* \"#utility.yul\":2307:2311   */\n      0x1f\n        /* \"#utility.yul\":2299:2305   */\n      dup4\n        /* \"#utility.yul\":2295:2312   */\n      add\n        /* \"#utility.yul\":2291:2318   */\n      slt\n        /* \"#utility.yul\":2281:2403   */\n      tag_159\n      jumpi\n        /* \"#utility.yul\":2322:2401   */\n      tag_160\n      tag_83\n      jump\t// in\n    tag_160:\n        /* \"#utility.yul\":2281:2403   */\n    tag_159:\n        /* \"#utility.yul\":2439:2445   */\n      dup2\n        /* \"#utility.yul\":2426:2446   */\n      calldataload\n        /* \"#utility.yul\":2464:2543   */\n      tag_161\n        /* \"#utility.yul\":2539:2542   */\n      dup5\n        /* \"#utility.yul\":2531:2537   */\n      dup3\n        /* \"#utility.yul\":2524:2528   */\n      0x20\n        /* \"#utility.yul\":2516:2522   */\n      dup7\n        /* \"#utility.yul\":2512:2529   */\n      add\n        /* \"#utility.yul\":2464:2543   */\n      tag_91\n      jump\t// in\n    tag_161:\n        /* \"#utility.yul\":2455:2543   */\n      swap2\n      pop\n        /* \"#utility.yul\":2271:2549   */\n      pop\n        /* \"#utility.yul\":2209:2549   */\n      swap3\n      swap2\n      pop\n      pop\n      jump\t// out\n        /* \"#utility.yul\":2555:2645   */\n    tag_93:\n        /* \"#utility.yul\":2589:2596   */\n      0x00\n        /* \"#utility.yul\":2632:2637   */\n      dup2\n        /* \"#utility.yul\":2625:2638   */\n      iszero\n        /* \"#utility.yul\":2618:2639   */\n      iszero\n        /* \"#utility.yul\":2607:2639   */\n      swap1\n      pop\n        /* \"#utility.yul\":2555:2645   */\n      swap2\n      swap1\n      pop\n      jump\t// out\n        /* \"#utility.yul\":2651:2767   */\n    tag_94:\n        /* \"#utility.yul\":2721:2742   */\n      tag_164\n        /* \"#utility.yul\":2736:2741   */\n      dup2\n        /* \"#utility.yul\":2721:2742   */\n      tag_93\n      jump\t// in\n    tag_164:\n        /* \"#utility.yul\":2714:2719   */\n      dup2\n        /* \"#utility.yul\":2711:2743   */\n      eq\n        /* \"#utility.yul\":2701:2761   */\n      tag_165\n      jumpi\n        /* \"#utility.yul\":2757:2758   */\n      0x00\n        /* \"#utility.yul\":2754:2755   */\n      dup1\n        /* \"#utility.yul\":2747:2759   */\n      revert\n        /* \"#utility.yul\":2701:2761   */\n    tag_165:\n        /* \"#utility.yul\":2651:2767   */\n      pop\n      jump\t// out\n        /* \"#utility.yul\":2773:2906   */\n    tag_95:\n        /* \"#utility.yul\":2816:2821   */\n      0x00\n        /* \"#utility.yul\":2854:2860   */\n      dup2\n        /* \"#utility.yul\":2841:2861   */\n      calldataload\n        /* \"#utility.yul\":2832:2861   */\n      swap1\n      pop\n        /* \"#utility.yul\":2870:2900   */\n      tag_167\n        /* \"#utility.yul\":2894:2899   */\n      dup2\n        /* \"#utility.yul\":2870:2900   */\n      tag_94\n      jump\t// in\n    tag_167:\n        /* \"#utility.yul\":2773:2906   */\n      swap3\n      swap2\n      pop\n      pop\n      jump\t// out\n        /* \"#utility.yul\":2912:2989   */\n    tag_96:\n        /* \"#utility.yul\":2949:2956   */\n      0x00\n        /* \"#utility.yul\":2978:2983   */\n      dup2\n        /* \"#utility.yul\":2967:2983   */\n      swap1\n      pop\n        /* \"#utility.yul\":2912:2989   */\n      swap2\n      swap1\n      pop\n      jump\t// out\n        /* \"#utility.yul\":2995:3117   */\n    tag_97:\n        /* \"#utility.yul\":3068:3092   */\n      tag_170\n        /* \"#utility.yul\":3086:3091   */\n      dup2\n        /* \"#utility.yul\":3068:3092   */\n      tag_96\n      jump\t// in\n    tag_170:\n        /* \"#utility.yul\":3061:3066   */\n      dup2\n        /* \"#utility.yul\":3058:3093   */\n      eq\n        /* \"#utility.yul\":3048:3111   */\n      tag_171\n      jumpi\n        /* \"#utility.yul\":3107:3108   */\n      0x00\n        /* \"#utility.yul\":3104:3105   */\n      dup1\n        /* \"#utility.yul\":3097:3109   */\n      revert\n        /* \"#utility.yul\":3048:3111   */\n    tag_171:\n        /* \"#utility.yul\":2995:3117   */\n      pop\n      jump\t// out\n        /* \"#utility.yul\":3123:3262   */\n    tag_98:\n        /* \"#utility.yul\":3169:3174   */\n      0x00\n        /* \"#utility.yul\":3207:3213   */\n      dup2\n        /* \"#utility.yul\":3194:3214   */\n      calldataload\n        /* \"#utility.yul\":3185:3214   */\n      swap1\n      pop\n        /* \"#utility.yul\":3223:3256   */\n      tag_173\n        /* \"#utility.yul\":3250:3255   */\n      dup2\n        /* \"#utility.yul\":3223:3256   */\n      tag_97\n      jump\t// in\n    tag_173:\n        /* \"#utility.yul\":3123:3262   */\n      swap3\n      swap2\n      pop\n      pop\n      jump\t// out\n        /* \"#utility.yul\":3268:4387   */\n    tag_13:\n        /* \"#utility.yul\":3371:3377   */\n      0x00\n        /* \"#utility.yul\":3379:3385   */\n      dup1\n        /* \"#utility.yul\":3387:3393   */\n      0x00\n        /* \"#utility.yul\":3395:3401   */\n      dup1\n        /* \"#utility.yul\":3444:3447   */\n      0x80\n        /* \"#utility.yul\":3432:3441   */\n      dup6\n        /* \"#utility.yul\":3423:3430   */\n      dup8\n        /* \"#utility.yul\":3419:3442   */\n      sub\n        /* \"#utility.yul\":3415:3448   */\n      slt\n        /* \"#utility.yul\":3412:3532   */\n      iszero\n      tag_175\n      jumpi\n        /* \"#utility.yul\":3451:3530   */\n      tag_176\n      tag_81\n      jump\t// in\n    tag_176:\n        /* \"#utility.yul\":3412:3532   */\n    tag_175:\n        /* \"#utility.yul\":3599:3600   */\n      0x00\n        /* \"#utility.yul\":3588:3597   */\n      dup6\n        /* \"#utility.yul\":3584:3601   */\n      add\n        /* \"#utility.yul\":3571:3602   */\n      calldataload\n        /* \"#utility.yul\":3629:3647   */\n      0xffffffffffffffff\n        /* \"#utility.yul\":3621:3627   */\n      dup2\n        /* \"#utility.yul\":3618:3648   */\n      gt\n        /* \"#utility.yul\":3615:3732   */\n      iszero\n      tag_177\n      jumpi\n        /* \"#utility.yul\":3651:3730   */\n      tag_178\n      tag_82\n      jump\t// in\n    tag_178:\n        /* \"#utility.yul\":3615:3732   */\n    tag_177:\n        /* \"#utility.yul\":3756:3819   */\n      tag_179\n        /* \"#utility.yul\":3811:3818   */\n      dup8\n        /* \"#utility.yul\":3802:3808   */\n      dup3\n        /* \"#utility.yul\":3791:3800   */\n      dup9\n        /* \"#utility.yul\":3787:3809   */\n      add\n        /* \"#utility.yul\":3756:3819   */\n      tag_92\n      jump\t// in\n    tag_179:\n        /* \"#utility.yul\":3746:3819   */\n      swap5\n      pop\n        /* \"#utility.yul\":3542:3829   */\n      pop\n        /* \"#utility.yul\":3896:3898   */\n      0x20\n        /* \"#utility.yul\":3885:3894   */\n      dup6\n        /* \"#utility.yul\":3881:3899   */\n      add\n        /* \"#utility.yul\":3868:3900   */\n      calldataload\n        /* \"#utility.yul\":3927:3945   */\n      0xffffffffffffffff\n        /* \"#utility.yul\":3919:3925   */\n      dup2\n        /* \"#utility.yul\":3916:3946   */\n      gt\n        /* \"#utility.yul\":3913:4030   */\n      iszero\n      tag_180\n      jumpi\n        /* \"#utility.yul\":3949:4028   */\n      tag_181\n      tag_82\n      jump\t// in\n    tag_181:\n        /* \"#utility.yul\":3913:4030   */\n    tag_180:\n        /* \"#utility.yul\":4054:4117   */\n      tag_182\n        /* \"#utility.yul\":4109:4116   */\n      dup8\n        /* \"#utility.yul\":4100:4106   */\n      dup3\n        /* \"#utility.yul\":4089:4098   */\n      dup9\n        /* \"#utility.yul\":4085:4107   */\n      add\n        /* \"#utility.yul\":4054:4117   */\n      tag_92\n      jump\t// in\n    tag_182:\n        /* \"#utility.yul\":4044:4117   */\n      swap4\n      pop\n        /* \"#utility.yul\":3839:4127   */\n      pop\n        /* \"#utility.yul\":4166:4168   */\n      0x40\n        /* \"#utility.yul\":4192:4242   */\n      tag_183\n        /* \"#utility.yul\":4234:4241   */\n      dup8\n        /* \"#utility.yul\":4225:4231   */\n      dup3\n        /* \"#utility.yul\":4214:4223   */\n      dup9\n        /* \"#utility.yul\":4210:4232   */\n      add\n        /* \"#utility.yul\":4192:4242   */\n      tag_95\n      jump\t// in\n    tag_183:\n        /* \"#utility.yul\":4182:4242   */\n      swap3\n      pop\n        /* \"#utility.yul\":4137:4252   */\n      pop\n        /* \"#utility.yul\":4291:4293   */\n      0x60\n        /* \"#utility.yul\":4317:4370   */\n      tag_184\n        /* \"#utility.yul\":4362:4369   */\n      dup8\n        /* \"#utility.yul\":4353:4359   */\n      dup3\n        /* \"#utility.yul\":4342:4351   */\n      dup9\n        /* \"#utility.yul\":4338:4360   */\n      add\n        /* \"#utility.yul\":4317:4370   */\n      tag_98\n      jump\t// in\n    tag_184:\n        /* \"#utility.yul\":4307:4370   */\n      swap2\n      pop\n        /* \"#utility.yul\":4262:4380   */\n      pop\n        /* \"#utility.yul\":3268:4387   */\n      swap3\n      swap6\n      swap2\n      swap5\n      pop\n      swap3\n      pop\n      jump\t// out\n        /* \"#utility.yul\":4393:4722   */\n    tag_18:\n        /* \"#utility.yul\":4452:4458   */\n      0x00\n        /* \"#utility.yul\":4501:4503   */\n      0x20\n        /* \"#utility.yul\":4489:4498   */\n      dup3\n        /* \"#utility.yul\":4480:4487   */\n      dup5\n        /* \"#utility.yul\":4476:4499   */\n      sub\n        /* \"#utility.yul\":4472:4504   */\n      slt\n        /* \"#utility.yul\":4469:4588   */\n      iszero\n      tag_186\n      jumpi\n        /* \"#utility.yul\":4507:4586   */\n      tag_187\n      tag_81\n      jump\t// in\n    tag_187:\n        /* \"#utility.yul\":4469:4588   */\n    tag_186:\n        /* \"#utility.yul\":4627:4628   */\n      0x00\n        /* \"#utility.yul\":4652:4705   */\n      tag_188\n        /* \"#utility.yul\":4697:4704   */\n      dup5\n        /* \"#utility.yul\":4688:4694   */\n      dup3\n        /* \"#utility.yul\":4677:4686   */\n      dup6\n        /* \"#utility.yul\":4673:4695   */\n      add\n        /* \"#utility.yul\":4652:4705   */\n      tag_98\n      jump\t// in\n    tag_188:\n        /* \"#utility.yul\":4642:4705   */\n      swap2\n      pop\n        /* \"#utility.yul\":4598:4715   */\n      pop\n        /* \"#utility.yul\":4393:4722   */\n      swap3\n      swap2\n      pop\n      pop\n      jump\t// out\n        /* \"#utility.yul\":4728:4846   */\n    tag_99:\n        /* \"#utility.yul\":4815:4839   */\n      tag_190\n        /* \"#utility.yul\":4833:4838   */\n      dup2\n        /* \"#utility.yul\":4815:4839   */\n      tag_96\n      jump\t// in\n    tag_190:\n        /* \"#utility.yul\":4810:4813   */\n      dup3\n        /* \"#utility.yul\":4803:4840   */\n      mstore\n        /* \"#utility.yul\":4728:4846   */\n      pop\n      pop\n      jump\t// out\n        /* \"#utility.yul\":4852:4951   */\n    tag_100:\n        /* \"#utility.yul\":4904:4910   */\n      0x00\n        /* \"#utility.yul\":4938:4943   */\n      dup2\n        /* \"#utility.yul\":4932:4944   */\n      mload\n        /* \"#utility.yul\":4922:4944   */\n      swap1\n      pop\n        /* \"#utility.yul\":4852:4951   */\n      swap2\n      swap1\n      pop\n      jump\t// out\n        /* \"#utility.yul\":4957:5126   */\n    tag_101:\n        /* \"#utility.yul\":5041:5052   */\n      0x00\n        /* \"#utility.yul\":5075:5081   */\n      dup3\n        /* \"#utility.yul\":5070:5073   */\n      dup3\n        /* \"#utility.yul\":5063:5082   */\n      mstore\n        /* \"#utility.yul\":5115:5119   */\n      0x20\n        /* \"#utility.yul\":5110:5113   */\n      dup3\n        /* \"#utility.yul\":5106:5120   */\n      add\n        /* \"#utility.yul\":5091:5120   */\n      swap1\n      pop\n        /* \"#utility.yul\":4957:5126   */\n      swap3\n      swap2\n      pop\n      pop\n      jump\t// out\n        /* \"#utility.yul\":5132:5271   */\n    tag_102:\n        /* \"#utility.yul\":5221:5227   */\n      dup3\n        /* \"#utility.yul\":5216:5219   */\n      dup2\n        /* \"#utility.yul\":5211:5214   */\n      dup4\n        /* \"#utility.yul\":5205:5228   */\n      mcopy\n        /* \"#utility.yul\":5262:5263   */\n      0x00\n        /* \"#utility.yul\":5253:5259   */\n      dup4\n        /* \"#utility.yul\":5248:5251   */\n      dup4\n        /* \"#utility.yul\":5244:5260   */\n      add\n        /* \"#utility.yul\":5237:5264   */\n      mstore\n        /* \"#utility.yul\":5132:5271   */\n      pop\n      pop\n      pop\n      jump\t// out\n        /* \"#utility.yul\":5277:5654   */\n    tag_103:\n        /* \"#utility.yul\":5365:5368   */\n      0x00\n        /* \"#utility.yul\":5393:5432   */\n      tag_195\n        /* \"#utility.yul\":5426:5431   */\n      dup3\n        /* \"#utility.yul\":5393:5432   */\n      tag_100\n      jump\t// in\n    tag_195:\n        /* \"#utility.yul\":5448:5519   */\n      tag_196\n        /* \"#utility.yul\":5512:5518   */\n      dup2\n        /* \"#utility.yul\":5507:5510   */\n      dup6\n        /* \"#utility.yul\":5448:5519   */\n      tag_101\n      jump\t// in\n    tag_196:\n        /* \"#utility.yul\":5441:5519   */\n      swap4\n      pop\n        /* \"#utility.yul\":5528:5593   */\n      tag_197\n        /* \"#utility.yul\":5586:5592   */\n      dup2\n        /* \"#utility.yul\":5581:5584   */\n      dup6\n        /* \"#utility.yul\":5574:5578   */\n      0x20\n        /* \"#utility.yul\":5567:5572   */\n      dup7\n        /* \"#utility.yul\":5563:5579   */\n      add\n        /* \"#utility.yul\":5528:5593   */\n      tag_102\n      jump\t// in\n    tag_197:\n        /* \"#utility.yul\":5618:5647   */\n      tag_198\n        /* \"#utility.yul\":5640:5646   */\n      dup2\n        /* \"#utility.yul\":5618:5647   */\n      tag_85\n      jump\t// in\n    tag_198:\n        /* \"#utility.yul\":5613:5616   */\n      dup5\n        /* \"#utility.yul\":5609:5648   */\n      add\n        /* \"#utility.yul\":5602:5648   */\n      swap2\n      pop\n        /* \"#utility.yul\":5369:5654   */\n      pop\n        /* \"#utility.yul\":5277:5654   */\n      swap3\n      swap2\n      pop\n      pop\n      jump\t// out\n        /* \"#utility.yul\":5660:5769   */\n    tag_104:\n        /* \"#utility.yul\":5741:5762   */\n      tag_200\n        /* \"#utility.yul\":5756:5761   */\n      dup2\n        /* \"#utility.yul\":5741:5762   */\n      tag_93\n      jump\t// in\n    tag_200:\n        /* \"#utility.yul\":5736:5739   */\n      dup3\n        /* \"#utility.yul\":5729:5763   */\n      mstore\n        /* \"#utility.yul\":5660:5769   */\n      pop\n      pop\n      jump\t// out\n        /* \"#utility.yul\":5775:6609   */\n    tag_21:\n        /* \"#utility.yul\":6014:6018   */\n      0x00\n        /* \"#utility.yul\":6052:6055   */\n      0xa0\n        /* \"#utility.yul\":6041:6050   */\n      dup3\n        /* \"#utility.yul\":6037:6056   */\n      add\n        /* \"#utility.yul\":6029:6056   */\n      swap1\n      pop\n        /* \"#utility.yul\":6066:6137   */\n      tag_202\n        /* \"#utility.yul\":6134:6135   */\n      0x00\n        /* \"#utility.yul\":6123:6132   */\n      dup4\n        /* \"#utility.yul\":6119:6136   */\n      add\n        /* \"#utility.yul\":6110:6116   */\n      dup9\n        /* \"#utility.yul\":6066:6137   */\n      tag_99\n      jump\t// in\n    tag_202:\n        /* \"#utility.yul\":6184:6193   */\n      dup2\n        /* \"#utility.yul\":6178:6182   */\n      dup2\n        /* \"#utility.yul\":6174:6194   */\n      sub\n        /* \"#utility.yul\":6169:6171   */\n      0x20\n        /* \"#utility.yul\":6158:6167   */\n      dup4\n        /* \"#utility.yul\":6154:6172   */\n      add\n        /* \"#utility.yul\":6147:6195   */\n      mstore\n        /* \"#utility.yul\":6212:6290   */\n      tag_203\n        /* \"#utility.yul\":6285:6289   */\n      dup2\n        /* \"#utility.yul\":6276:6282   */\n      dup8\n        /* \"#utility.yul\":6212:6290   */\n      tag_103\n      jump\t// in\n    tag_203:\n        /* \"#utility.yul\":6204:6290   */\n      swap1\n      pop\n        /* \"#utility.yul\":6337:6346   */\n      dup2\n        /* \"#utility.yul\":6331:6335   */\n      dup2\n        /* \"#utility.yul\":6327:6347   */\n      sub\n        /* \"#utility.yul\":6322:6324   */\n      0x40\n        /* \"#utility.yul\":6311:6320   */\n      dup4\n        /* \"#utility.yul\":6307:6325   */\n      add\n        /* \"#utility.yul\":6300:6348   */\n      mstore\n        /* \"#utility.yul\":6365:6443   */\n      tag_204\n        /* \"#utility.yul\":6438:6442   */\n      dup2\n        /* \"#utility.yul\":6429:6435   */\n      dup7\n        /* \"#utility.yul\":6365:6443   */\n      tag_103\n      jump\t// in\n    tag_204:\n        /* \"#utility.yul\":6357:6443   */\n      swap1\n      pop\n        /* \"#utility.yul\":6453:6519   */\n      tag_205\n        /* \"#utility.yul\":6515:6517   */\n      0x60\n        /* \"#utility.yul\":6504:6513   */\n      dup4\n        /* \"#utility.yul\":6500:6518   */\n      add\n        /* \"#utility.yul\":6491:6497   */\n      dup6\n        /* \"#utility.yul\":6453:6519   */\n      tag_104\n      jump\t// in\n    tag_205:\n        /* \"#utility.yul\":6529:6602   */\n      tag_206\n        /* \"#utility.yul\":6597:6600   */\n      0x80\n        /* \"#utility.yul\":6586:6595   */\n      dup4\n        /* \"#utility.yul\":6582:6601   */\n      add\n        /* \"#utility.yul\":6573:6579   */\n      dup5\n        /* \"#utility.yul\":6529:6602   */\n      tag_99\n      jump\t// in\n    tag_206:\n        /* \"#utility.yul\":5775:6609   */\n      swap7\n      swap6\n      pop\n      pop\n      pop\n      pop\n      pop\n      pop\n      jump\t// out\n        /* \"#utility.yul\":6615:6837   */\n    tag_26:\n        /* \"#utility.yul\":6708:6712   */\n      0x00\n        /* \"#utility.yul\":6746:6748   */\n      0x20\n        /* \"#utility.yul\":6735:6744   */\n      dup3\n        /* \"#utility.yul\":6731:6749   */\n      add\n        /* \"#utility.yul\":6723:6749   */\n      swap1\n      pop\n        /* \"#utility.yul\":6759:6830   */\n      tag_208\n        /* \"#utility.yul\":6827:6828   */\n      0x00\n        /* \"#utility.yul\":6816:6825   */\n      dup4\n        /* \"#utility.yul\":6812:6829   */\n      add\n        /* \"#utility.yul\":6803:6809   */\n      dup5\n        /* \"#utility.yul\":6759:6830   */\n      tag_99\n      jump\t// in\n    tag_208:\n        /* \"#utility.yul\":6615:6837   */\n      swap3\n      swap2\n      pop\n      pop\n      jump\t// out\n        /* \"#utility.yul\":6843:6969   */\n    tag_105:\n        /* \"#utility.yul\":6880:6887   */\n      0x00\n        /* \"#utility.yul\":6920:6962   */\n      0xffffffffffffffffffffffffffffffffffffffff\n        /* \"#utility.yul\":6913:6918   */\n      dup3\n        /* \"#utility.yul\":6909:6963   */\n      and\n        /* \"#utility.yul\":6898:6963   */\n      swap1\n      pop\n        /* \"#utility.yul\":6843:6969   */\n      swap2\n      swap1\n      pop\n      jump\t// out\n        /* \"#utility.yul\":6975:7071   */\n    tag_106:\n        /* \"#utility.yul\":7012:7019   */\n      0x00\n        /* \"#utility.yul\":7041:7065   */\n      tag_211\n        /* \"#utility.yul\":7059:7064   */\n      dup3\n        /* \"#utility.yul\":7041:7065   */\n      tag_105\n      jump\t// in\n    tag_211:\n        /* \"#utility.yul\":7030:7065   */\n      swap1\n      pop\n        /* \"#utility.yul\":6975:7071   */\n      swap2\n      swap1\n      pop\n      jump\t// out\n        /* \"#utility.yul\":7077:7199   */\n    tag_107:\n        /* \"#utility.yul\":7150:7174   */\n      tag_213\n        /* \"#utility.yul\":7168:7173   */\n      dup2\n        /* \"#utility.yul\":7150:7174   */\n      tag_106\n      jump\t// in\n    tag_213:\n        /* \"#utility.yul\":7143:7148   */\n      dup2\n        /* \"#utility.yul\":7140:7175   */\n      eq\n        /* \"#utility.yul\":7130:7193   */\n      tag_214\n      jumpi\n        /* \"#utility.yul\":7189:7190   */\n      0x00\n        /* \"#utility.yul\":7186:7187   */\n      dup1\n        /* \"#utility.yul\":7179:7191   */\n      revert\n        /* \"#utility.yul\":7130:7193   */\n    tag_214:\n        /* \"#utility.yul\":7077:7199   */\n      pop\n      jump\t// out\n        /* \"#utility.yul\":7205:7344   */\n    tag_108:\n        /* \"#utility.yul\":7251:7256   */\n      0x00\n        /* \"#utility.yul\":7289:7295   */\n      dup2\n        /* \"#utility.yul\":7276:7296   */\n      calldataload\n        /* \"#utility.yul\":7267:7296   */\n      swap1\n      pop\n        /* \"#utility.yul\":7305:7338   */\n      tag_216\n        /* \"#utility.yul\":7332:7337   */\n      dup2\n        /* \"#utility.yul\":7305:7338   */\n      tag_107\n      jump\t// in\n    tag_216:\n        /* \"#utility.yul\":7205:7344   */\n      swap3\n      swap2\n      pop\n      pop\n      jump\t// out\n        /* \"#utility.yul\":7350:7679   */\n    tag_30:\n        /* \"#utility.yul\":7409:7415   */\n      0x00\n        /* \"#utility.yul\":7458:7460   */\n      0x20\n        /* \"#utility.yul\":7446:7455   */\n      dup3\n        /* \"#utility.yul\":7437:7444   */\n      dup5\n        /* \"#utility.yul\":7433:7456   */\n      sub\n        /* \"#utility.yul\":7429:7461   */\n      slt\n        /* \"#utility.yul\":7426:7545   */\n      iszero\n      tag_218\n      jumpi\n        /* \"#utility.yul\":7464:7543   */\n      tag_219\n      tag_81\n      jump\t// in\n    tag_219:\n        /* \"#utility.yul\":7426:7545   */\n    tag_218:\n        /* \"#utility.yul\":7584:7585   */\n      0x00\n        /* \"#utility.yul\":7609:7662   */\n      tag_220\n        /* \"#utility.yul\":7654:7661   */\n      dup5\n        /* \"#utility.yul\":7645:7651   */\n      dup3\n        /* \"#utility.yul\":7634:7643   */\n      dup6\n        /* \"#utility.yul\":7630:7652   */\n      add\n        /* \"#utility.yul\":7609:7662   */\n      tag_108\n      jump\t// in\n    tag_220:\n        /* \"#utility.yul\":7599:7662   */\n      swap2\n      pop\n        /* \"#utility.yul\":7555:7672   */\n      pop\n        /* \"#utility.yul\":7350:7679   */\n      swap3\n      swap2\n      pop\n      pop\n      jump\t// out\n        /* \"#utility.yul\":7685:7895   */\n    tag_33:\n        /* \"#utility.yul\":7772:7776   */\n      0x00\n        /* \"#utility.yul\":7810:7812   */\n      0x20\n        /* \"#utility.yul\":7799:7808   */\n      dup3\n        /* \"#utility.yul\":7795:7813   */\n      add\n        /* \"#utility.yul\":7787:7813   */\n      swap1\n      pop\n        /* \"#utility.yul\":7823:7888   */\n      tag_222\n        /* \"#utility.yul\":7885:7886   */\n      0x00\n        /* \"#utility.yul\":7874:7883   */\n      dup4\n        /* \"#utility.yul\":7870:7887   */\n      add\n        /* \"#utility.yul\":7861:7867   */\n      dup5\n        /* \"#utility.yul\":7823:7888   */\n      tag_104\n      jump\t// in\n    tag_222:\n        /* \"#utility.yul\":7685:7895   */\n      swap3\n      swap2\n      pop\n      pop\n      jump\t// out\n        /* \"#utility.yul\":7901:8415   */\n    tag_39:\n        /* \"#utility.yul\":8062:8066   */\n      0x00\n        /* \"#utility.yul\":8100:8102   */\n      0x40\n        /* \"#utility.yul\":8089:8098   */\n      dup3\n        /* \"#utility.yul\":8085:8103   */\n      add\n        /* \"#utility.yul\":8077:8103   */\n      swap1\n      pop\n        /* \"#utility.yul\":8149:8158   */\n      dup2\n        /* \"#utility.yul\":8143:8147   */\n      dup2\n        /* \"#utility.yul\":8139:8159   */\n      sub\n        /* \"#utility.yul\":8135:8136   */\n      0x00\n        /* \"#utility.yul\":8124:8133   */\n      dup4\n        /* \"#utility.yul\":8120:8137   */\n      add\n        /* \"#utility.yul\":8113:8160   */\n      mstore\n        /* \"#utility.yul\":8177:8255   */\n      tag_224\n        /* \"#utility.yul\":8250:8254   */\n      dup2\n        /* \"#utility.yul\":8241:8247   */\n      dup6\n        /* \"#utility.yul\":8177:8255   */\n      tag_103\n      jump\t// in\n    tag_224:\n        /* \"#utility.yul\":8169:8255   */\n      swap1\n      pop\n        /* \"#utility.yul\":8302:8311   */\n      dup2\n        /* \"#utility.yul\":8296:8300   */\n      dup2\n        /* \"#utility.yul\":8292:8312   */\n      sub\n        /* \"#utility.yul\":8287:8289   */\n      0x20\n        /* \"#utility.yul\":8276:8285   */\n      dup4\n        /* \"#utility.yul\":8272:8290   */\n      add\n        /* \"#utility.yul\":8265:8313   */\n      mstore\n        /* \"#utility.yul\":8330:8408   */\n      tag_225\n        /* \"#utility.yul\":8403:8407   */\n      dup2\n        /* \"#utility.yul\":8394:8400   */\n      dup5\n        /* \"#utility.yul\":8330:8408   */\n      tag_103\n      jump\t// in\n    tag_225:\n        /* \"#utility.yul\":8322:8408   */\n      swap1\n      pop\n        /* \"#utility.yul\":7901:8415   */\n      swap4\n      swap3\n      pop\n      pop\n      pop\n      jump\t// out\n        /* \"#utility.yul\":8421:8595   */\n    tag_109:\n        /* \"#utility.yul\":8561:8587   */\n      0x4f6e6c79206f776e65722063616e2061646420626f6f6b730000000000000000\n        /* \"#utility.yul\":8557:8558   */\n      0x00\n        /* \"#utility.yul\":8549:8555   */\n      dup3\n        /* \"#utility.yul\":8545:8559   */\n      add\n        /* \"#utility.yul\":8538:8588   */\n      mstore\n        /* \"#utility.yul\":8421:8595   */\n      pop\n      jump\t// out\n        /* \"#utility.yul\":8601:8967   */\n    tag_110:\n        /* \"#utility.yul\":8743:8746   */\n      0x00\n        /* \"#utility.yul\":8764:8831   */\n      tag_228\n        /* \"#utility.yul\":8828:8830   */\n      0x18\n        /* \"#utility.yul\":8823:8826   */\n      dup4\n        /* \"#utility.yul\":8764:8831   */\n      tag_101\n      jump\t// in\n    tag_228:\n        /* \"#utility.yul\":8757:8831   */\n      swap2\n      pop\n        /* \"#utility.yul\":8840:8933   */\n      tag_229\n        /* \"#utility.yul\":8929:8932   */\n      dup3\n        /* \"#utility.yul\":8840:8933   */\n      tag_109\n      jump\t// in\n    tag_229:\n        /* \"#utility.yul\":8958:8960   */\n      0x20\n        /* \"#utility.yul\":8953:8956   */\n      dup3\n        /* \"#utility.yul\":8949:8961   */\n      add\n        /* \"#utility.yul\":8942:8961   */\n      swap1\n      pop\n        /* \"#utility.yul\":8601:8967   */\n      swap2\n      swap1\n      pop\n      jump\t// out\n        /* \"#utility.yul\":8973:9392   */\n    tag_44:\n        /* \"#utility.yul\":9139:9143   */\n      0x00\n        /* \"#utility.yul\":9177:9179   */\n      0x20\n        /* \"#utility.yul\":9166:9175   */\n      dup3\n        /* \"#utility.yul\":9162:9180   */\n      add\n        /* \"#utility.yul\":9154:9180   */\n      swap1\n      pop\n        /* \"#utility.yul\":9226:9235   */\n      dup2\n        /* \"#utility.yul\":9220:9224   */\n      dup2\n        /* \"#utility.yul\":9216:9236   */\n      sub\n        /* \"#utility.yul\":9212:9213   */\n      0x00\n        /* \"#utility.yul\":9201:9210   */\n      dup4\n        /* \"#utility.yul\":9197:9214   */\n      add\n        /* \"#utility.yul\":9190:9237   */\n      mstore\n        /* \"#utility.yul\":9254:9385   */\n      tag_231\n        /* \"#utility.yul\":9380:9384   */\n      dup2\n        /* \"#utility.yul\":9254:9385   */\n      tag_110\n      jump\t// in\n    tag_231:\n        /* \"#utility.yul\":9246:9385   */\n      swap1\n      pop\n        /* \"#utility.yul\":8973:9392   */\n      swap2\n      swap1\n      pop\n      jump\t// out\n        /* \"#utility.yul\":9398:9578   */\n    tag_111:\n        /* \"#utility.yul\":9446:9523   */\n      0x4e487b7100000000000000000000000000000000000000000000000000000000\n        /* \"#utility.yul\":9443:9444   */\n      0x00\n        /* \"#utility.yul\":9436:9524   */\n      mstore\n        /* \"#utility.yul\":9543:9547   */\n      0x22\n        /* \"#utility.yul\":9540:9541   */\n      0x04\n        /* \"#utility.yul\":9533:9548   */\n      mstore\n        /* \"#utility.yul\":9567:9571   */\n      0x24\n        /* \"#utility.yul\":9564:9565   */\n      0x00\n        /* \"#utility.yul\":9557:9572   */\n      revert\n        /* \"#utility.yul\":9584:9904   */\n    tag_51:\n        /* \"#utility.yul\":9628:9634   */\n      0x00\n        /* \"#utility.yul\":9665:9666   */\n      0x02\n        /* \"#utility.yul\":9659:9663   */\n      dup3\n        /* \"#utility.yul\":9655:9667   */\n      div\n        /* \"#utility.yul\":9645:9667   */\n      swap1\n      pop\n        /* \"#utility.yul\":9712:9713   */\n      0x01\n        /* \"#utility.yul\":9706:9710   */\n      dup3\n        /* \"#utility.yul\":9702:9714   */\n      and\n        /* \"#utility.yul\":9733:9751   */\n      dup1\n        /* \"#utility.yul\":9723:9804   */\n      tag_234\n      jumpi\n        /* \"#utility.yul\":9789:9793   */\n      0x7f\n        /* \"#utility.yul\":9781:9787   */\n      dup3\n        /* \"#utility.yul\":9777:9794   */\n      and\n        /* \"#utility.yul\":9767:9794   */\n      swap2\n      pop\n        /* \"#utility.yul\":9723:9804   */\n    tag_234:\n        /* \"#utility.yul\":9851:9853   */\n      0x20\n        /* \"#utility.yul\":9843:9849   */\n      dup3\n        /* \"#utility.yul\":9840:9854   */\n      lt\n        /* \"#utility.yul\":9820:9838   */\n      dup2\n        /* \"#utility.yul\":9817:9855   */\n      sub\n        /* \"#utility.yul\":9814:9898   */\n      tag_235\n      jumpi\n        /* \"#utility.yul\":9870:9888   */\n      tag_236\n      tag_111\n      jump\t// in\n    tag_236:\n        /* \"#utility.yul\":9814:9898   */\n    tag_235:\n        /* \"#utility.yul\":9635:9904   */\n      pop\n        /* \"#utility.yul\":9584:9904   */\n      swap2\n      swap1\n      pop\n      jump\t// out\n        /* \"#utility.yul\":9910:10051   */\n    tag_112:\n        /* \"#utility.yul\":9959:9963   */\n      0x00\n        /* \"#utility.yul\":9982:9985   */\n      dup2\n        /* \"#utility.yul\":9974:9985   */\n      swap1\n      pop\n        /* \"#utility.yul\":10005:10008   */\n      dup2\n        /* \"#utility.yul\":10002:10003   */\n      0x00\n        /* \"#utility.yul\":9995:10009   */\n      mstore\n        /* \"#utility.yul\":10039:10043   */\n      0x20\n        /* \"#utility.yul\":10036:10037   */\n      0x00\n        /* \"#utility.yul\":10026:10044   */\n      keccak256\n        /* \"#utility.yul\":10018:10044   */\n      swap1\n      pop\n        /* \"#utility.yul\":9910:10051   */\n      swap2\n      swap1\n      pop\n      jump\t// out\n        /* \"#utility.yul\":10057:10150   */\n    tag_113:\n        /* \"#utility.yul\":10094:10100   */\n      0x00\n        /* \"#utility.yul\":10141:10143   */\n      0x20\n        /* \"#utility.yul\":10136:10138   */\n      0x1f\n        /* \"#utility.yul\":10129:10134   */\n      dup4\n        /* \"#utility.yul\":10125:10139   */\n      add\n        /* \"#utility.yul\":10121:10144   */\n      div\n        /* \"#utility.yul\":10111:10144   */\n      swap1\n      pop\n        /* \"#utility.yul\":10057:10150   */\n      swap2\n      swap1\n      pop\n      jump\t// out\n        /* \"#utility.yul\":10156:10263   */\n    tag_114:\n        /* \"#utility.yul\":10200:10208   */\n      0x00\n        /* \"#utility.yul\":10250:10255   */\n      dup3\n        /* \"#utility.yul\":10244:10248   */\n      dup3\n        /* \"#utility.yul\":10240:10256   */\n      shl\n        /* \"#utility.yul\":10219:10256   */\n      swap1\n      pop\n        /* \"#utility.yul\":10156:10263   */\n      swap3\n      swap2\n      pop\n      pop\n      jump\t// out\n        /* \"#utility.yul\":10269:10662   */\n    tag_115:\n        /* \"#utility.yul\":10338:10344   */\n      0x00\n        /* \"#utility.yul\":10388:10389   */\n      0x08\n        /* \"#utility.yul\":10376:10386   */\n      dup4\n        /* \"#utility.yul\":10372:10390   */\n      mul\n        /* \"#utility.yul\":10411:10508   */\n      tag_241\n        /* \"#utility.yul\":10441:10507   */\n      0xffffffffffffffffffffffffffffffffffffffffffffffffffffffffffffffff\n        /* \"#utility.yul\":10430:10439   */\n      dup3\n        /* \"#utility.yul\":10411:10508   */\n      tag_114\n      jump\t// in\n    tag_241:\n        /* \"#utility.yul\":10529:10568   */\n      tag_242\n        /* \"#utility.yul\":10559:10567   */\n      dup7\n        /* \"#utility.yul\":10548:10557   */\n      dup4\n        /* \"#utility.yul\":10529:10568   */\n      tag_114\n      jump\t// in\n    tag_242:\n        /* \"#utility.yul\":10517:10568   */\n      swap6\n      pop\n        /* \"#utility.yul\":10601:10605   */\n      dup1\n        /* \"#utility.yul\":10597:10606   */\n      not\n        /* \"#utility.yul\":10590:10595   */\n      dup5\n        /* \"#utility.yul\":10586:10607   */\n      and\n        /* \"#utility.yul\":10577:10607   */\n      swap4\n      pop\n        /* \"#utility.yul\":10650:10654   */\n      dup1\n        /* \"#utility.yul\":10640:10648   */\n      dup7\n        /* \"#utility.yul\":10636:10655   */\n      and\n        /* \"#utility.yul\":10629:10634   */\n      dup5\n        /* \"#utility.yul\":10626:10656   */\n      or\n        /* \"#utility.yul\":10616:10656   */\n      swap3\n      pop\n        /* \"#utility.yul\":10345:10662   */\n      pop\n      pop\n        /* \"#utility.yul\":10269:10662   */\n      swap4\n      swap3\n      pop\n      pop\n      pop\n      jump\t// out\n        /* \"#utility.yul\":10668:10728   */\n    tag_116:\n        /* \"#utility.yul\":10696:10699   */\n      0x00\n        /* \"#utility.yul\":10717:10722   */\n      dup2\n        /* \"#utility.yul\":10710:10722   */\n      swap1\n      pop\n        /* \"#utility.yul\":10668:10728   */\n      swap2\n      swap1\n      pop\n      jump\t// out\n        /* \"#utility.yul\":10734:10876   */\n    tag_117:\n        /* \"#utility.yul\":10784:10793   */\n      0x00\n        /* \"#utility.yul\":10817:10870   */\n      tag_245\n        /* \"#utility.yul\":10835:10869   */\n      tag_246\n        /* \"#utility.yul\":10844:10868   */\n      tag_247\n        /* \"#utility.yul\":10862:10867   */\n      dup5\n        /* \"#utility.yul\":10844:10868   */\n      tag_96\n      jump\t// in\n    tag_247:\n        /* \"#utility.yul\":10835:10869   */\n      tag_116\n      jump\t// in\n    tag_246:\n        /* \"#utility.yul\":10817:10870   */\n      tag_96\n      jump\t// in\n    tag_245:\n        /* \"#utility.yul\":10804:10870   */\n      swap1\n      pop\n        /* \"#utility.yul\":10734:10876   */\n      swap2\n      swap1\n      pop\n      jump\t// out\n        /* \"#utility.yul\":10882:10957   */\n    tag_118:\n        /* \"#utility.yul\":10925:10928   */\n      0x00\n        /* \"#utility.yul\":10946:10951   */\n      dup2\n        /* \"#utility.yul\":10939:10951   */\n      swap1\n      pop\n        /* \"#utility.yul\":10882:10957   */\n      swap2\n      swap1\n      pop\n      jump\t// out\n        /* \"#utility.yul\":10963:11232   */\n    tag_119:\n        /* \"#utility.yul\":11073:11112   */\n      tag_250\n        /* \"#utility.yul\":11104:11111   */\n      dup4\n        /* \"#utility.yul\":11073:11112   */\n      tag_117\n      jump\t// in\n    tag_250:\n        /* \"#utility.yul\":11134:11225   */\n      tag_251\n        /* \"#utility.yul\":11183:11224   */\n      tag_252\n        /* \"#utility.yul\":11207:11223   */\n      dup3\n        /* \"#utility.yul\":11183:11224   */\n      tag_118\n      jump\t// in\n    tag_252:\n        /* \"#utility.yul\":11175:11181   */\n      dup5\n        /* \"#utility.yul\":11168:11172   */\n      dup5\n        /* \"#utility.yul\":11162:11173   */\n      sload\n        /* \"#utility.yul\":11134:11225   */\n      tag_115\n      jump\t// in\n    tag_251:\n        /* \"#utility.yul\":11128:11132   */\n      dup3\n        /* \"#utility.yul\":11121:11226   */\n      sstore\n        /* \"#utility.yul\":11039:11232   */\n      pop\n        /* \"#utility.yul\":10963:11232   */\n      pop\n      pop\n      pop\n      jump\t// out\n        /* \"#utility.yul\":11238:11311   */\n    tag_120:\n        /* \"#utility.yul\":11283:11286   */\n      0x00\n        /* \"#utility.yul\":11238:11311   */\n      swap1\n      jump\t// out\n        /* \"#utility.yul\":11317:11506   */\n    tag_121:\n        /* \"#utility.yul\":11394:11426   */\n      tag_255\n      tag_120\n      jump\t// in\n    tag_255:\n        /* \"#utility.yul\":11435:11500   */\n      tag_256\n        /* \"#utility.yul\":11493:11499   */\n      dup2\n        /* \"#utility.yul\":11485:11491   */\n      dup5\n        /* \"#utility.yul\":11479:11483   */\n      dup5\n        /* \"#utility.yul\":11435:11500   */\n      tag_119\n      jump\t// in\n    tag_256:\n        /* \"#utility.yul\":11370:11506   */\n      pop\n        /* \"#utility.yul\":11317:11506   */\n      pop\n      pop\n      jump\t// out\n        /* \"#utility.yul\":11512:11698   */\n    tag_122:\n        /* \"#utility.yul\":11572:11692   */\n    tag_258:\n        /* \"#utility.yul\":11589:11592   */\n      dup2\n        /* \"#utility.yul\":11582:11587   */\n      dup2\n        /* \"#utility.yul\":11579:11593   */\n      lt\n        /* \"#utility.yul\":11572:11692   */\n      iszero\n      tag_260\n      jumpi\n        /* \"#utility.yul\":11643:11682   */\n      tag_261\n        /* \"#utility.yul\":11680:11681   */\n      0x00\n        /* \"#utility.yul\":11673:11678   */\n      dup3\n        /* \"#utility.yul\":11643:11682   */\n      tag_121\n      jump\t// in\n    tag_261:\n        /* \"#utility.yul\":11616:11617   */\n      0x01\n        /* \"#utility.yul\":11609:11614   */\n      dup2\n        /* \"#utility.yul\":11605:11618   */\n      add\n        /* \"#utility.yul\":11596:11618   */\n      swap1\n      pop\n        /* \"#utility.yul\":11572:11692   */\n      jump(tag_258)\n    tag_260:\n        /* \"#utility.yul\":11512:11698   */\n      pop\n      pop\n      jump\t// out\n        /* \"#utility.yul\":11704:12247   */\n    tag_123:\n        /* \"#utility.yul\":11805:11807   */\n      0x1f\n        /* \"#utility.yul\":11800:11803   */\n      dup3\n        /* \"#utility.yul\":11797:11808   */\n      gt\n        /* \"#utility.yul\":11794:12240   */\n      iszero\n      tag_263\n      jumpi\n        /* \"#utility.yul\":11839:11877   */\n      tag_264\n        /* \"#utility.yul\":11871:11876   */\n      dup2\n        /* \"#utility.yul\":11839:11877   */\n      tag_112\n      jump\t// in\n    tag_264:\n        /* \"#utility.yul\":11923:11952   */\n      tag_265\n        /* \"#utility.yul\":11941:11951   */\n      dup5\n        /* \"#utility.yul\":11923:11952   */\n      tag_113\n      jump\t// in\n    tag_265:\n        /* \"#utility.yul\":11913:11921   */\n      dup2\n        /* \"#utility.yul\":11909:11953   */\n      add\n        /* \"#utility.yul\":12106:12108   */\n      0x20\n        /* \"#utility.yul\":12094:12104   */\n      dup6\n        /* \"#utility.yul\":12091:12109   */\n      lt\n        /* \"#utility.yul\":12088:12137   */\n      iszero\n      tag_266\n      jumpi\n        /* \"#utility.yul\":12127:12135   */\n      dup2\n        /* \"#utility.yul\":12112:12135   */\n      swap1\n      pop\n        /* \"#utility.yul\":12088:12137   */\n    tag_266:\n        /* \"#utility.yul\":12150:12230   */\n      tag_267\n        /* \"#utility.yul\":12206:12228   */\n      tag_268\n        /* \"#utility.yul\":12224:12227   */\n      dup6\n        /* \"#utility.yul\":12206:12228   */\n      tag_113\n      jump\t// in\n    tag_268:\n        /* \"#utility.yul\":12196:12204   */\n      dup4\n        /* \"#utility.yul\":12192:12229   */\n      add\n        /* \"#utility.yul\":12179:12190   */\n      dup3\n        /* \"#utility.yul\":12150:12230   */\n      tag_122\n      jump\t// in\n    tag_267:\n        /* \"#utility.yul\":11809:12240   */\n      pop\n      pop\n        /* \"#utility.yul\":11794:12240   */\n    tag_263:\n        /* \"#utility.yul\":11704:12247   */\n      pop\n      pop\n      pop\n      jump\t// out\n        /* \"#utility.yul\":12253:12370   */\n    tag_124:\n        /* \"#utility.yul\":12307:12315   */\n      0x00\n        /* \"#utility.yul\":12357:12362   */\n      dup3\n        /* \"#utility.yul\":12351:12355   */\n      dup3\n        /* \"#utility.yul\":12347:12363   */\n      shr\n        /* \"#utility.yul\":12326:12363   */\n      swap1\n      pop\n        /* \"#utility.yul\":12253:12370   */\n      swap3\n      swap2\n      pop\n      pop\n      jump\t// out\n        /* \"#utility.yul\":12376:12545   */\n    tag_125:\n        /* \"#utility.yul\":12420:12426   */\n      0x00\n        /* \"#utility.yul\":12453:12504   */\n      tag_271\n        /* \"#utility.yul\":12501:12502   */\n      0x00\n        /* \"#utility.yul\":12497:12503   */\n      not\n        /* \"#utility.yul\":12489:12494   */\n      dup5\n        /* \"#utility.yul\":12486:12487   */\n      0x08\n        /* \"#utility.yul\":12482:12495   */\n      mul\n        /* \"#utility.yul\":12453:12504   */\n      tag_124\n      jump\t// in\n    tag_271:\n        /* \"#utility.yul\":12449:12505   */\n      not\n        /* \"#utility.yul\":12534:12538   */\n      dup1\n        /* \"#utility.yul\":12528:12532   */\n      dup4\n        /* \"#utility.yul\":12524:12539   */\n      and\n        /* \"#utility.yul\":12514:12539   */\n      swap2\n      pop\n        /* \"#utility.yul\":12427:12545   */\n      pop\n        /* \"#utility.yul\":12376:12545   */\n      swap3\n      swap2\n      pop\n      pop\n      jump\t// out\n        /* \"#utility.yul\":12550:12845   */\n    tag_126:\n        /* \"#utility.yul\":12626:12630   */\n      0x00\n        /* \"#utility.yul\":12772:12801   */\n      tag_273\n        /* \"#utility.yul\":12797:12800   */\n      dup4\n        /* \"#utility.yul\":12791:12795   */\n      dup4\n        /* \"#utility.yul\":12772:12801   */\n      tag_125\n      jump\t// in\n    tag_273:\n        /* \"#utility.yul\":12764:12801   */\n      swap2\n      pop\n        /* \"#utility.yul\":12834:12837   */\n      dup3\n        /* \"#utility.yul\":12831:12832   */\n      0x02\n        /* \"#utility.yul\":12827:12838   */\n      mul\n        /* \"#utility.yul\":12821:12825   */\n      dup3\n        /* \"#utility.yul\":12818:12839   */\n      or\n        /* \"#utility.yul\":12810:12839   */\n      swap1\n      pop\n        /* \"#utility.yul\":12550:12845   */\n      swap3\n      swap2\n      pop\n      pop\n      jump\t// out\n        /* \"#utility.yul\":12850:14245   */\n    tag_46:\n        /* \"#utility.yul\":12967:13004   */\n      tag_275\n        /* \"#utility.yul\":13000:13003   */\n      dup3\n        /* \"#utility.yul\":12967:13004   */\n      tag_100\n      jump\t// in\n    tag_275:\n        /* \"#utility.yul\":13069:13087   */\n      0xffffffffffffffff\n        /* \"#utility.yul\":13061:13067   */\n      dup2\n        /* \"#utility.yul\":13058:13088   */\n      gt\n        /* \"#utility.yul\":13055:13111   */\n      iszero\n      tag_276\n      jumpi\n        /* \"#utility.yul\":13091:13109   */\n      tag_277\n      tag_86\n      jump\t// in\n    tag_277:\n        /* \"#utility.yul\":13055:13111   */\n    tag_276:\n        /* \"#utility.yul\":13135:13173   */\n      tag_278\n        /* \"#utility.yul\":13167:13171   */\n      dup3\n        /* \"#utility.yul\":13161:13172   */\n      sload\n        /* \"#utility.yul\":13135:13173   */\n      tag_51\n      jump\t// in\n    tag_278:\n        /* \"#utility.yul\":13220:13287   */\n      tag_279\n        /* \"#utility.yul\":13280:13286   */\n      dup3\n        /* \"#utility.yul\":13272:13278   */\n      dup3\n        /* \"#utility.yul\":13266:13270   */\n      dup6\n        /* \"#utility.yul\":13220:13287   */\n      tag_123\n      jump\t// in\n    tag_279:\n        /* \"#utility.yul\":13314:13315   */\n      0x00\n        /* \"#utility.yul\":13338:13342   */\n      0x20\n        /* \"#utility.yul\":13325:13342   */\n      swap1\n      pop\n        /* \"#utility.yul\":13370:13372   */\n      0x1f\n        /* \"#utility.yul\":13362:13368   */\n      dup4\n        /* \"#utility.yul\":13359:13373   */\n      gt\n        /* \"#utility.yul\":13387:13388   */\n      0x01\n        /* \"#utility.yul\":13382:14000   */\n      dup2\n      eq\n      tag_281\n      jumpi\n        /* \"#utility.yul\":14044:14045   */\n      0x00\n        /* \"#utility.yul\":14061:14067   */\n      dup5\n        /* \"#utility.yul\":14058:14135   */\n      iszero\n      tag_282\n      jumpi\n        /* \"#utility.yul\":14110:14119   */\n      dup3\n        /* \"#utility.yul\":14105:14108   */\n      dup8\n        /* \"#utility.yul\":14101:14120   */\n      add\n        /* \"#utility.yul\":14095:14121   */\n      mload\n        /* \"#utility.yul\":14086:14121   */\n      swap1\n      pop\n        /* \"#utility.yul\":14058:14135   */\n    tag_282:\n        /* \"#utility.yul\":14161:14228   */\n      tag_283\n        /* \"#utility.yul\":14221:14227   */\n      dup6\n        /* \"#utility.yul\":14214:14219   */\n      dup3\n        /* \"#utility.yul\":14161:14228   */\n      tag_126\n      jump\t// in\n    tag_283:\n        /* \"#utility.yul\":14155:14159   */\n      dup7\n        /* \"#utility.yul\":14148:14229   */\n      sstore\n        /* \"#utility.yul\":14017:14239   */\n      pop\n        /* \"#utility.yul\":13352:14239   */\n      jump(tag_280)\n        /* \"#utility.yul\":13382:14000   */\n    tag_281:\n        /* \"#utility.yul\":13434:13438   */\n      0x1f\n        /* \"#utility.yul\":13430:13439   */\n      not\n        /* \"#utility.yul\":13422:13428   */\n      dup5\n        /* \"#utility.yul\":13418:13440   */\n      and\n        /* \"#utility.yul\":13468:13505   */\n      tag_284\n        /* \"#utility.yul\":13500:13504   */\n      dup7\n        /* \"#utility.yul\":13468:13505   */\n      tag_112\n      jump\t// in\n    tag_284:\n        /* \"#utility.yul\":13527:13528   */\n      0x00\n        /* \"#utility.yul\":13541:13749   */\n    tag_285:\n        /* \"#utility.yul\":13555:13562   */\n      dup3\n        /* \"#utility.yul\":13552:13553   */\n      dup2\n        /* \"#utility.yul\":13549:13563   */\n      lt\n        /* \"#utility.yul\":13541:13749   */\n      iszero\n      tag_287\n      jumpi\n        /* \"#utility.yul\":13634:13643   */\n      dup5\n        /* \"#utility.yul\":13629:13632   */\n      dup10\n        /* \"#utility.yul\":13625:13644   */\n      add\n        /* \"#utility.yul\":13619:13645   */\n      mload\n        /* \"#utility.yul\":13611:13617   */\n      dup3\n        /* \"#utility.yul\":13604:13646   */\n      sstore\n        /* \"#utility.yul\":13685:13686   */\n      0x01\n        /* \"#utility.yul\":13677:13683   */\n      dup3\n        /* \"#utility.yul\":13673:13687   */\n      add\n        /* \"#utility.yul\":13663:13687   */\n      swap2\n      pop\n        /* \"#utility.yul\":13732:13734   */\n      0x20\n        /* \"#utility.yul\":13721:13730   */\n      dup6\n        /* \"#utility.yul\":13717:13735   */\n      add\n        /* \"#utility.yul\":13704:13735   */\n      swap5\n      pop\n        /* \"#utility.yul\":13578:13582   */\n      0x20\n        /* \"#utility.yul\":13575:13576   */\n      dup2\n        /* \"#utility.yul\":13571:13583   */\n      add\n        /* \"#utility.yul\":13566:13583   */\n      swap1\n      pop\n        /* \"#utility.yul\":13541:13749   */\n      jump(tag_285)\n    tag_287:\n        /* \"#utility.yul\":13777:13783   */\n      dup7\n        /* \"#utility.yul\":13768:13775   */\n      dup4\n        /* \"#utility.yul\":13765:13784   */\n      lt\n        /* \"#utility.yul\":13762:13941   */\n      iszero\n      tag_288\n      jumpi\n        /* \"#utility.yul\":13835:13844   */\n      dup5\n        /* \"#utility.yul\":13830:13833   */\n      dup10\n        /* \"#utility.yul\":13826:13845   */\n      add\n        /* \"#utility.yul\":13820:13846   */\n      mload\n        /* \"#utility.yul\":13878:13926   */\n      tag_289\n        /* \"#utility.yul\":13920:13924   */\n      0x1f\n        /* \"#utility.yul\":13912:13918   */\n      dup10\n        /* \"#utility.yul\":13908:13925   */\n      and\n        /* \"#utility.yul\":13897:13906   */\n      dup3\n        /* \"#utility.yul\":13878:13926   */\n      tag_125\n      jump\t// in\n    tag_289:\n        /* \"#utility.yul\":13870:13876   */\n      dup4\n        /* \"#utility.yul\":13863:13927   */\n      sstore\n        /* \"#utility.yul\":13785:13941   */\n      pop\n        /* \"#utility.yul\":13762:13941   */\n    tag_288:\n        /* \"#utility.yul\":13987:13988   */\n      0x01\n        /* \"#utility.yul\":13983:13984   */\n      0x02\n        /* \"#utility.yul\":13975:13981   */\n      dup9\n        /* \"#utility.yul\":13971:13985   */\n      mul\n        /* \"#utility.yul\":13967:13989   */\n      add\n        /* \"#utility.yul\":13961:13965   */\n      dup9\n        /* \"#utility.yul\":13954:13990   */\n      sstore\n        /* \"#utility.yul\":13389:14000   */\n      pop\n      pop\n      pop\n        /* \"#utility.yul\":13352:14239   */\n    tag_280:\n      pop\n        /* \"#utility.yul\":12942:14245   */\n      pop\n      pop\n      pop\n        /* \"#utility.yul\":12850:14245   */\n      pop\n      pop\n      jump\t// out\n        /* \"#utility.yul\":14251:14431   */\n    tag_127:\n        /* \"#utility.yul\":14299:14376   */\n      0x4e487b7100000000000000000000000000000000000000000000000000000000\n        /* \"#utility.yul\":14296:14297   */\n      0x00\n        /* \"#utility.yul\":14289:14377   */\n      mstore\n        /* \"#utility.yul\":14396:14400   */\n      0x11\n        /* \"#utility.yul\":14393:14394   */\n      0x04\n        /* \"#utility.yul\":14386:14401   */\n      mstore\n        /* \"#utility.yul\":14420:14424   */\n      0x24\n        /* \"#utility.yul\":14417:14418   */\n      0x00\n        /* \"#utility.yul\":14410:14425   */\n      revert\n        /* \"#utility.yul\":14437:14670   */\n    tag_49:\n        /* \"#utility.yul\":14476:14479   */\n      0x00\n        /* \"#utility.yul\":14499:14523   */\n      tag_292\n        /* \"#utility.yul\":14517:14522   */\n      dup3\n        /* \"#utility.yul\":14499:14523   */\n      tag_96\n      jump\t// in\n    tag_292:\n        /* \"#utility.yul\":14490:14523   */\n      swap2\n      pop\n        /* \"#utility.yul\":14545:14611   */\n      0xffffffffffffffffffffffffffffffffffffffffffffffffffffffffffffffff\n        /* \"#utility.yul\":14538:14543   */\n      dup3\n        /* \"#utility.yul\":14535:14612   */\n      sub\n        /* \"#utility.yul\":14532:14635   */\n      tag_293\n      jumpi\n        /* \"#utility.yul\":14615:14633   */\n      tag_294\n      tag_127\n      jump\t// in\n    tag_294:\n        /* \"#utility.yul\":14532:14635   */\n    tag_293:\n        /* \"#utility.yul\":14662:14663   */\n      0x01\n        /* \"#utility.yul\":14655:14660   */\n      dup3\n        /* \"#utility.yul\":14651:14664   */\n      add\n        /* \"#utility.yul\":14644:14664   */\n      swap1\n      pop\n        /* \"#utility.yul\":14437:14670   */\n      swap2\n      swap1\n      pop\n      jump\t// out\n        /* \"#utility.yul\":14676:14840   */\n    tag_128:\n        /* \"#utility.yul\":14816:14832   */\n      0x426f6f6b206e6f7420666f756e64000000000000000000000000000000000000\n        /* \"#utility.yul\":14812:14813   */\n      0x00\n        /* \"#utility.yul\":14804:14810   */\n      dup3\n        /* \"#utility.yul\":14800:14814   */\n      add\n        /* \"#utility.yul\":14793:14833   */\n      mstore\n        /* \"#utility.yul\":14676:14840   */\n      pop\n      jump\t// out\n        /* \"#utility.yul\":14846:15212   */\n    tag_129:\n        /* \"#utility.yul\":14988:14991   */\n      0x00\n        /* \"#utility.yul\":15009:15076   */\n      tag_297\n        /* \"#utility.yul\":15073:15075   */\n      0x0e\n        /* \"#utility.yul\":15068:15071   */\n      dup4\n        /* \"#utility.yul\":15009:15076   */\n      tag_101\n      jump\t// in\n    tag_297:\n        /* \"#utility.yul\":15002:15076   */\n      swap2\n      pop\n        /* \"#utility.yul\":15085:15178   */\n      tag_298\n        /* \"#utility.yul\":15174:15177   */\n      dup3\n        /* \"#utility.yul\":15085:15178   */\n      tag_128\n      jump\t// in\n    tag_298:\n        /* \"#utility.yul\":15203:15205   */\n      0x20\n        /* \"#utility.yul\":15198:15201   */\n      dup3\n        /* \"#utility.yul\":15194:15206   */\n      add\n        /* \"#utility.yul\":15187:15206   */\n      swap1\n      pop\n        /* \"#utility.yul\":14846:15212   */\n      swap2\n      swap1\n      pop\n      jump\t// out\n        /* \"#utility.yul\":15218:15637   */\n    tag_74:\n        /* \"#utility.yul\":15384:15388   */\n      0x00\n        /* \"#utility.yul\":15422:15424   */\n      0x20\n        /* \"#utility.yul\":15411:15420   */\n      dup3\n        /* \"#utility.yul\":15407:15425   */\n      add\n        /* \"#utility.yul\":15399:15425   */\n      swap1\n      pop\n        /* \"#utility.yul\":15471:15480   */\n      dup2\n        /* \"#utility.yul\":15465:15469   */\n      dup2\n        /* \"#utility.yul\":15461:15481   */\n      sub\n        /* \"#utility.yul\":15457:15458   */\n      0x00\n        /* \"#utility.yul\":15446:15455   */\n      dup4\n        /* \"#utility.yul\":15442:15459   */\n      add\n        /* \"#utility.yul\":15435:15482   */\n      mstore\n        /* \"#utility.yul\":15499:15630   */\n      tag_300\n        /* \"#utility.yul\":15625:15629   */\n      dup2\n        /* \"#utility.yul\":15499:15630   */\n      tag_129\n      jump\t// in\n    tag_300:\n        /* \"#utility.yul\":15491:15630   */\n      swap1\n      pop\n        /* \"#utility.yul\":15218:15637   */\n      swap2\n      swap1\n      pop\n      jump\t// out\n        /* \"#utility.yul\":15643:15814   */\n    tag_130:\n        /* \"#utility.yul\":15783:15806   */\n      0x5072656d69756d20706c616e2072657175697265640000000000000000000000\n        /* \"#utility.yul\":15779:15780   */\n      0x00\n        /* \"#utility.yul\":15771:15777   */\n      dup3\n        /* \"#utility.yul\":15767:15781   */\n      add\n        /* \"#utility.yul\":15760:15807   */\n      mstore\n        /* \"#utility.yul\":15643:15814   */\n      pop\n      jump\t// out\n        /* \"#utility.yul\":15820:16186   */\n    tag_131:\n        /* \"#utility.yul\":15962:15965   */\n      0x00\n        /* \"#utility.yul\":15983:16050   */\n      tag_303\n        /* \"#utility.yul\":16047:16049   */\n      0x15\n        /* \"#utility.yul\":16042:16045   */\n      dup4\n        /* \"#utility.yul\":15983:16050   */\n      tag_101\n      jump\t// in\n    tag_303:\n        /* \"#utility.yul\":15976:16050   */\n      swap2\n      pop\n        /* \"#utility.yul\":16059:16152   */\n      tag_304\n        /* \"#utility.yul\":16148:16151   */\n      dup3\n        /* \"#utility.yul\":16059:16152   */\n      tag_130\n      jump\t// in\n    tag_304:\n        /* \"#utility.yul\":16177:16179   */\n      0x20\n        /* \"#utility.yul\":16172:16175   */\n      dup3\n        /* \"#utility.yul\":16168:16180   */\n      add\n        /* \"#utility.yul\":16161:16180   */\n      swap1\n      pop\n        /* \"#utility.yul\":15820:16186   */\n      swap2\n      swap1\n      pop\n      jump\t// out\n        /* \"#utility.yul\":16192:16611   */\n    tag_79:\n        /* \"#utility.yul\":16358:16362   */\n      0x00\n        /* \"#utility.yul\":16396:16398   */\n      0x20\n        /* \"#utility.yul\":16385:16394   */\n      dup3\n        /* \"#utility.yul\":16381:16399   */\n      add\n        /* \"#utility.yul\":16373:16399   */\n      swap1\n      pop\n        /* \"#utility.yul\":16445:16454   */\n      dup2\n        /* \"#utility.yul\":16439:16443   */\n      dup2\n        /* \"#utility.yul\":16435:16455   */\n      sub\n        /* \"#utility.yul\":16431:16432   */\n      0x00\n        /* \"#utility.yul\":16420:16429   */\n      dup4\n        /* \"#utility.yul\":16416:16433   */\n      add\n        /* \"#utility.yul\":16409:16456   */\n      mstore\n        /* \"#utility.yul\":16473:16604   */\n      tag_306\n        /* \"#utility.yul\":16599:16603   */\n      dup2\n        /* \"#utility.yul\":16473:16604   */\n      tag_131\n      jump\t// in\n    tag_306:\n        /* \"#utility.yul\":16465:16604   */\n      swap1\n      pop\n        /* \"#utility.yul\":16192:16611   */\n      swap2\n      swap1\n      pop\n      jump\t// out\n\n    auxdata: 0xa2646970667358221220fe49099bfc883ae81769bd63f7079a5195c9ddf77b5bf5adbeab7dde8102859564736f6c63430008190033\n}\n",
				"bytecode": {
					"linkReferences": {},
					"object": "6080604052348015600e575f80fd5b506001600281905550610faa806100245f395ff3fe608060405260043610610054575f3560e01c806308a5302b14610058578063599ebf0814610062578063687440461461008a5780637cf52d96146100ca5780639f8a13d7146100f4578063e0ff5b8b14610130575b5f80fd5b61006061016d565b005b34801561006d575f80fd5b506100886004803603810190610083919061086f565b6101c3565b005b348015610095575f80fd5b506100b060048036038101906100ab919061090b565b6102eb565b6040516100c19594939291906109b4565b60405180910390f35b3480156100d5575f80fd5b506100de610434565b6040516100eb9190610a13565b60405180910390f35b3480156100ff575f80fd5b5061011a60048036038101906101159190610a86565b61043a565b6040516101279190610ab1565b60405180910390f35b34801561013b575f80fd5b506101566004803603810190610151919061090b565b610457565b604051610164929190610aca565b60405180910390f35b6001805f3373ffffffffffffffffffffffffffffffffffffffff1673ffffffffffffffffffffffffffffffffffffffff1681526020019081526020015f205f6101000a81548160ff021916908315150217905550565b3273ffffffffffffffffffffffffffffffffffffffff163373ffffffffffffffffffffffffffffffffffffffff1614610231576040517f08c379a000000000000000000000000000000000000000000000000000000000815260040161022890610b49565b60405180910390fd5b6040518060a0016040528060025481526020018581526020018481526020018315158152602001828152505f8060025481526020019081526020015f205f820151815f0155602082015181600101908161028b9190610d61565b5060408201518160020190816102a19190610d61565b506060820151816003015f6101000a81548160ff0219169083151502179055506080820151816004015590505060025f8154809291906102e090610e5d565b919050555050505050565b5f602052805f5260405f205f91509050805f01549080600101805461030f90610b94565b80601f016020809104026020016040519081016040528092919081815260200182805461033b90610b94565b80156103865780601f1061035d57610100808354040283529160200191610386565b820191905f5260205f20905b81548152906001019060200180831161036957829003601f168201915b50505050509080600201805461039b90610b94565b80601f01602080910402602001604051908101604052809291908181526020018280546103c790610b94565b80156104125780601f106103e957610100808354040283529160200191610412565b820191905f5260205f20905b8154815290600101906020018083116103f557829003601f168201915b505050505090806003015f9054906101000a900460ff16908060040154905085565b60025481565b6001602052805f5260405f205f915054906101000a900460ff1681565b6060805f805f8581526020019081526020015f206040518060a00160405290815f820154815260200160018201805461048f90610b94565b80601f01602080910402602001604051908101604052809291908181526020018280546104bb90610b94565b80156105065780601f106104dd57610100808354040283529160200191610506565b820191905f5260205f20905b8154815290600101906020018083116104e957829003601f168201915b5050505050815260200160028201805461051f90610b94565b80601f016020809104026020016040519081016040528092919081815260200182805461054b90610b94565b80156105965780601f1061056d57610100808354040283529160200191610596565b820191905f5260205f20905b81548152906001019060200180831161057957829003601f168201915b50505050508152602001600382015f9054906101000a900460ff1615151515815260200160048201548152505090505f815f01511161060a576040517f08c379a000000000000000000000000000000000000000000000000000000000815260040161060190610eee565b60405180910390fd5b80606001511580610661575060015f3373ffffffffffffffffffffffffffffffffffffffff1673ffffffffffffffffffffffffffffffffffffffff1681526020019081526020015f205f9054906101000a900460ff165b1561067a578060200151816040015192509250506106b5565b6040517f08c379a00000000000000000000000000000000000000000000000000000000081526004016106ac90610f56565b60405180910390fd5b915091565b5f604051905090565b5f80fd5b5f80fd5b5f80fd5b5f80fd5b5f601f19601f8301169050919050565b7f4e487b71000000000000000000000000000000000000000000000000000000005f52604160045260245ffd5b610719826106d3565b810181811067ffffffffffffffff82111715610738576107376106e3565b5b80604052505050565b5f61074a6106ba565b90506107568282610710565b919050565b5f67ffffffffffffffff821115610775576107746106e3565b5b61077e826106d3565b9050602081019050919050565b828183375f83830152505050565b5f6107ab6107a68461075b565b610741565b9050828152602081018484840111156107c7576107c66106cf565b5b6107d284828561078b565b509392505050565b5f82601f8301126107ee576107ed6106cb565b5b81356107fe848260208601610799565b91505092915050565b5f8115159050919050565b61081b81610807565b8114610825575f80fd5b50565b5f8135905061083681610812565b92915050565b5f819050919050565b61084e8161083c565b8114610858575f80fd5b50565b5f8135905061086981610845565b92915050565b5f805f8060808587031215610887576108866106c3565b5b5f85013567ffffffffffffffff8111156108a4576108a36106c7565b5b6108b0878288016107da565b945050602085013567ffffffffffffffff8111156108d1576108d06106c7565b5b6108dd878288016107da565b93505060406108ee87828801610828565b92505060606108ff8782880161085b565b91505092959194509250565b5f602082840312156109205761091f6106c3565b5b5f61092d8482850161085b565b91505092915050565b61093f8161083c565b82525050565b5f81519050919050565b5f82825260208201905092915050565b8281835e5f83830152505050565b5f61097782610945565b610981818561094f565b935061099181856020860161095f565b61099a816106d3565b840191505092915050565b6109ae81610807565b82525050565b5f60a0820190506109c75f830188610936565b81810360208301526109d9818761096d565b905081810360408301526109ed818661096d565b90506109fc60608301856109a5565b610a096080830184610936565b9695505050505050565b5f602082019050610a265f830184610936565b92915050565b5f73ffffffffffffffffffffffffffffffffffffffff82169050919050565b5f610a5582610a2c565b9050919050565b610a6581610a4b565b8114610a6f575f80fd5b50565b5f81359050610a8081610a5c565b92915050565b5f60208284031215610a9b57610a9a6106c3565b5b5f610aa884828501610a72565b91505092915050565b5f602082019050610ac45f8301846109a5565b92915050565b5f6040820190508181035f830152610ae2818561096d565b90508181036020830152610af6818461096d565b90509392505050565b7f4f6e6c79206f776e65722063616e2061646420626f6f6b7300000000000000005f82015250565b5f610b3360188361094f565b9150610b3e82610aff565b602082019050919050565b5f6020820190508181035f830152610b6081610b27565b9050919050565b7f4e487b71000000000000000000000000000000000000000000000000000000005f52602260045260245ffd5b5f6002820490506001821680610bab57607f821691505b602082108103610bbe57610bbd610b67565b5b50919050565b5f819050815f5260205f209050919050565b5f6020601f8301049050919050565b5f82821b905092915050565b5f60088302610c207fffffffffffffffffffffffffffffffffffffffffffffffffffffffffffffffff82610be5565b610c2a8683610be5565b95508019841693508086168417925050509392505050565b5f819050919050565b5f610c65610c60610c5b8461083c565b610c42565b61083c565b9050919050565b5f819050919050565b610c7e83610c4b565b610c92610c8a82610c6c565b848454610bf1565b825550505050565b5f90565b610ca6610c9a565b610cb1818484610c75565b505050565b5b81811015610cd457610cc95f82610c9e565b600181019050610cb7565b5050565b601f821115610d1957610cea81610bc4565b610cf384610bd6565b81016020851015610d02578190505b610d16610d0e85610bd6565b830182610cb6565b50505b505050565b5f82821c905092915050565b5f610d395f1984600802610d1e565b1980831691505092915050565b5f610d518383610d2a565b9150826002028217905092915050565b610d6a82610945565b67ffffffffffffffff811115610d8357610d826106e3565b5b610d8d8254610b94565b610d98828285610cd8565b5f60209050601f831160018114610dc9575f8415610db7578287015190505b610dc18582610d46565b865550610e28565b601f198416610dd786610bc4565b5f5b82811015610dfe57848901518255600182019150602085019450602081019050610dd9565b86831015610e1b5784890151610e17601f891682610d2a565b8355505b6001600288020188555050505b505050505050565b7f4e487b71000000000000000000000000000000000000000000000000000000005f52601160045260245ffd5b5f610e678261083c565b91507fffffffffffffffffffffffffffffffffffffffffffffffffffffffffffffffff8203610e9957610e98610e30565b5b600182019050919050565b7f426f6f6b206e6f7420666f756e640000000000000000000000000000000000005f82015250565b5f610ed8600e8361094f565b9150610ee382610ea4565b602082019050919050565b5f6020820190508181035f830152610f0581610ecc565b9050919050565b7f5072656d69756d20706c616e20726571756972656400000000000000000000005f82015250565b5f610f4060158361094f565b9150610f4b82610f0c565b602082019050919050565b5f6020820190508181035f830152610f6d81610f34565b905091905056fea2646970667358221220fe49099bfc883ae81769bd63f7079a5195c9ddf77b5bf5adbeab7dde8102859564736f6c63430008190033",
					"opcodes": "PUSH1 0x80 PUSH1 0x40 MSTORE CALLVALUE DUP1 ISZERO PUSH1 0xE JUMPI PUSH0 DUP1 REVERT JUMPDEST POP PUSH1 0x1 PUSH1 0x2 DUP2 SWAP1 SSTORE POP PUSH2 0xFAA DUP1 PUSH2 0x24 PUSH0 CODECOPY PUSH0 RETURN INVALID PUSH1 0x80 PUSH1 0x40 MSTORE PUSH1 0x4 CALLDATASIZE LT PUSH2 0x54 JUMPI PUSH0 CALLDATALOAD PUSH1 0xE0 SHR DUP1 PUSH4 0x8A5302B EQ PUSH2 0x58 JUMPI DUP1 PUSH4 0x599EBF08 EQ PUSH2 0x62 JUMPI DUP1 PUSH4 0x68744046 EQ PUSH2 0x8A JUMPI DUP1 PUSH4 0x7CF52D96 EQ PUSH2 0xCA JUMPI DUP1 PUSH4 0x9F8A13D7 EQ PUSH2 0xF4 JUMPI DUP1 PUSH4 0xE0FF5B8B EQ PUSH2 0x130 JUMPI JUMPDEST PUSH0 DUP1 REVERT JUMPDEST PUSH2 0x60 PUSH2 0x16D JUMP JUMPDEST STOP JUMPDEST CALLVALUE DUP1 ISZERO PUSH2 0x6D JUMPI PUSH0 DUP1 REVERT JUMPDEST POP PUSH2 0x88 PUSH1 0x4 DUP1 CALLDATASIZE SUB DUP2 ADD SWAP1 PUSH2 0x83 SWAP2 SWAP1 PUSH2 0x86F JUMP JUMPDEST PUSH2 0x1C3 JUMP JUMPDEST STOP JUMPDEST CALLVALUE DUP1 ISZERO PUSH2 0x95 JUMPI PUSH0 DUP1 REVERT JUMPDEST POP PUSH2 0xB0 PUSH1 0x4 DUP1 CALLDATASIZE SUB DUP2 ADD SWAP1 PUSH2 0xAB SWAP2 SWAP1 PUSH2 0x90B JUMP JUMPDEST PUSH2 0x2EB JUMP JUMPDEST PUSH1 0x40 MLOAD PUSH2 0xC1 SWAP6 SWAP5 SWAP4 SWAP3 SWAP2 SWAP1 PUSH2 0x9B4 JUMP JUMPDEST PUSH1 0x40 MLOAD DUP1 SWAP2 SUB SWAP1 RETURN JUMPDEST CALLVALUE DUP1 ISZERO PUSH2 0xD5 JUMPI PUSH0 DUP1 REVERT JUMPDEST POP PUSH2 0xDE PUSH2 0x434 JUMP JUMPDEST PUSH1 0x40 MLOAD PUSH2 0xEB SWAP2 SWAP1 PUSH2 0xA13 JUMP JUMPDEST PUSH1 0x40 MLOAD DUP1 SWAP2 SUB SWAP1 RETURN JUMPDEST CALLVALUE DUP1 ISZERO PUSH2 0xFF JUMPI PUSH0 DUP1 REVERT JUMPDEST POP PUSH2 0x11A PUSH1 0x4 DUP1 CALLDATASIZE SUB DUP2 ADD SWAP1 PUSH2 0x115 SWAP2 SWAP1 PUSH2 0xA86 JUMP JUMPDEST PUSH2 0x43A JUMP JUMPDEST PUSH1 0x40 MLOAD PUSH2 0x127 SWAP2 SWAP1 PUSH2 0xAB1 JUMP JUMPDEST PUSH1 0x40 MLOAD DUP1 SWAP2 SUB SWAP1 RETURN JUMPDEST CALLVALUE DUP1 ISZERO PUSH2 0x13B JUMPI PUSH0 DUP1 REVERT JUMPDEST POP PUSH2 0x156 PUSH1 0x4 DUP1 CALLDATASIZE SUB DUP2 ADD SWAP1 PUSH2 0x151 SWAP2 SWAP1 PUSH2 0x90B JUMP JUMPDEST PUSH2 0x457 JUMP JUMPDEST PUSH1 0x40 MLOAD PUSH2 0x164 SWAP3 SWAP2 SWAP1 PUSH2 0xACA JUMP JUMPDEST PUSH1 0x40 MLOAD DUP1 SWAP2 SUB SWAP1 RETURN JUMPDEST PUSH1 0x1 DUP1 PUSH0 CALLER PUSH20 0xFFFFFFFFFFFFFFFFFFFFFFFFFFFFFFFFFFFFFFFF AND PUSH20 0xFFFFFFFFFFFFFFFFFFFFFFFFFFFFFFFFFFFFFFFF AND DUP2 MSTORE PUSH1 0x20 ADD SWAP1 DUP2 MSTORE PUSH1 0x20 ADD PUSH0 KECCAK256 PUSH0 PUSH2 0x100 EXP DUP2 SLOAD DUP2 PUSH1 0xFF MUL NOT AND SWAP1 DUP4 ISZERO ISZERO MUL OR SWAP1 SSTORE POP JUMP JUMPDEST ORIGIN PUSH20 0xFFFFFFFFFFFFFFFFFFFFFFFFFFFFFFFFFFFFFFFF AND CALLER PUSH20 0xFFFFFFFFFFFFFFFFFFFFFFFFFFFFFFFFFFFFFFFF AND EQ PUSH2 0x231 JUMPI PUSH1 0x40 MLOAD PUSH32 0x8C379A000000000000000000000000000000000000000000000000000000000 DUP2 MSTORE PUSH1 0x4 ADD PUSH2 0x228 SWAP1 PUSH2 0xB49 JUMP JUMPDEST PUSH1 0x40 MLOAD DUP1 SWAP2 SUB SWAP1 REVERT JUMPDEST PUSH1 0x40 MLOAD DUP1 PUSH1 0xA0 ADD PUSH1 0x40 MSTORE DUP1 PUSH1 0x2 SLOAD DUP2 MSTORE PUSH1 0x20 ADD DUP6 DUP2 MSTORE PUSH1 0x20 ADD DUP5 DUP2 MSTORE PUSH1 0x20 ADD DUP4 ISZERO ISZERO DUP2 MSTORE PUSH1 0x20 ADD DUP3 DUP2 MSTORE POP PUSH0 DUP1 PUSH1 0x2 SLOAD DUP2 MSTORE PUSH1 0x20 ADD SWAP1 DUP2 MSTORE PUSH1 0x20 ADD PUSH0 KECCAK256 PUSH0 DUP3 ADD MLOAD DUP2 PUSH0 ADD SSTORE PUSH1 0x20 DUP3 ADD MLOAD DUP2 PUSH1 0x1 ADD SWAP1 DUP2 PUSH2 0x28B SWAP2 SWAP1 PUSH2 0xD61 JUMP JUMPDEST POP PUSH1 0x40 DUP3 ADD MLOAD DUP2 PUSH1 0x2 ADD SWAP1 DUP2 PUSH2 0x2A1 SWAP2 SWAP1 PUSH2 0xD61 JUMP JUMPDEST POP PUSH1 0x60 DUP3 ADD MLOAD DUP2 PUSH1 0x3 ADD PUSH0 PUSH2 0x100 EXP DUP2 SLOAD DUP2 PUSH1 0xFF MUL NOT AND SWAP1 DUP4 ISZERO ISZERO MUL OR SWAP1 SSTORE POP PUSH1 0x80 DUP3 ADD MLOAD DUP2 PUSH1 0x4 ADD SSTORE SWAP1 POP POP PUSH1 0x2 PUSH0 DUP2 SLOAD DUP1 SWAP3 SWAP2 SWAP1 PUSH2 0x2E0 SWAP1 PUSH2 0xE5D JUMP JUMPDEST SWAP2 SWAP1 POP SSTORE POP POP POP POP POP JUMP JUMPDEST PUSH0 PUSH1 0x20 MSTORE DUP1 PUSH0 MSTORE PUSH1 0x40 PUSH0 KECCAK256 PUSH0 SWAP2 POP SWAP1 POP DUP1 PUSH0 ADD SLOAD SWAP1 DUP1 PUSH1 0x1 ADD DUP1 SLOAD PUSH2 0x30F SWAP1 PUSH2 0xB94 JUMP JUMPDEST DUP1 PUSH1 0x1F ADD PUSH1 0x20 DUP1 SWAP2 DIV MUL PUSH1 0x20 ADD PUSH1 0x40 MLOAD SWAP1 DUP2 ADD PUSH1 0x40 MSTORE DUP1 SWAP3 SWAP2 SWAP1 DUP2 DUP2 MSTORE PUSH1 0x20 ADD DUP3 DUP1 SLOAD PUSH2 0x33B SWAP1 PUSH2 0xB94 JUMP JUMPDEST DUP1 ISZERO PUSH2 0x386 JUMPI DUP1 PUSH1 0x1F LT PUSH2 0x35D JUMPI PUSH2 0x100 DUP1 DUP4 SLOAD DIV MUL DUP4 MSTORE SWAP2 PUSH1 0x20 ADD SWAP2 PUSH2 0x386 JUMP JUMPDEST DUP3 ADD SWAP2 SWAP1 PUSH0 MSTORE PUSH1 0x20 PUSH0 KECCAK256 SWAP1 JUMPDEST DUP2 SLOAD DUP2 MSTORE SWAP1 PUSH1 0x1 ADD SWAP1 PUSH1 0x20 ADD DUP1 DUP4 GT PUSH2 0x369 JUMPI DUP3 SWAP1 SUB PUSH1 0x1F AND DUP3 ADD SWAP2 JUMPDEST POP POP POP POP POP SWAP1 DUP1 PUSH1 0x2 ADD DUP1 SLOAD PUSH2 0x39B SWAP1 PUSH2 0xB94 JUMP JUMPDEST DUP1 PUSH1 0x1F ADD PUSH1 0x20 DUP1 SWAP2 DIV MUL PUSH1 0x20 ADD PUSH1 0x40 MLOAD SWAP1 DUP2 ADD PUSH1 0x40 MSTORE DUP1 SWAP3 SWAP2 SWAP1 DUP2 DUP2 MSTORE PUSH1 0x20 ADD DUP3 DUP1 SLOAD PUSH2 0x3C7 SWAP1 PUSH2 0xB94 JUMP JUMPDEST DUP1 ISZERO PUSH2 0x412 JUMPI DUP1 PUSH1 0x1F LT PUSH2 0x3E9 JUMPI PUSH2 0x100 DUP1 DUP4 SLOAD DIV MUL DUP4 MSTORE SWAP2 PUSH1 0x20 ADD SWAP2 PUSH2 0x412 JUMP JUMPDEST DUP3 ADD SWAP2 SWAP1 PUSH0 MSTORE PUSH1 0x20 PUSH0 KECCAK256 SWAP1 JUMPDEST DUP2 SLOAD DUP2 MSTORE SWAP1 PUSH1 0x1 ADD SWAP1 PUSH1 0x20 ADD DUP1 DUP4 GT PUSH2 0x3F5 JUMPI DUP3 SWAP1 SUB PUSH1 0x1F AND DUP3 ADD SWAP2 JUMPDEST POP POP POP POP POP SWAP1 DUP1 PUSH1 0x3 ADD PUSH0 SWAP1 SLOAD SWAP1 PUSH2 0x100 EXP SWAP1 DIV PUSH1 0xFF AND SWAP1 DUP1 PUSH1 0x4 ADD SLOAD SWAP1 POP DUP6 JUMP JUMPDEST PUSH1 0x2 SLOAD DUP2 JUMP JUMPDEST PUSH1 0x1 PUSH1 0x20 MSTORE DUP1 PUSH0 MSTORE PUSH1 0x40 PUSH0 KECCAK256 PUSH0 SWAP2 POP SLOAD SWAP1 PUSH2 0x100 EXP SWAP1 DIV PUSH1 0xFF AND DUP2 JUMP JUMPDEST PUSH1 0x60 DUP1 PUSH0 DUP1 PUSH0 DUP6 DUP2 MSTORE PUSH1 0x20 ADD SWAP1 DUP2 MSTORE PUSH1 0x20 ADD PUSH0 KECCAK256 PUSH1 0x40 MLOAD DUP1 PUSH1 0xA0 ADD PUSH1 0x40 MSTORE SWAP1 DUP2 PUSH0 DUP3 ADD SLOAD DUP2 MSTORE PUSH1 0x20 ADD PUSH1 0x1 DUP3 ADD DUP1 SLOAD PUSH2 0x48F SWAP1 PUSH2 0xB94 JUMP JUMPDEST DUP1 PUSH1 0x1F ADD PUSH1 0x20 DUP1 SWAP2 DIV MUL PUSH1 0x20 ADD PUSH1 0x40 MLOAD SWAP1 DUP2 ADD PUSH1 0x40 MSTORE DUP1 SWAP3 SWAP2 SWAP1 DUP2 DUP2 MSTORE PUSH1 0x20 ADD DUP3 DUP1 SLOAD PUSH2 0x4BB SWAP1 PUSH2 0xB94 JUMP JUMPDEST DUP1 ISZERO PUSH2 0x506 JUMPI DUP1 PUSH1 0x1F LT PUSH2 0x4DD JUMPI PUSH2 0x100 DUP1 DUP4 SLOAD DIV MUL DUP4 MSTORE SWAP2 PUSH1 0x20 ADD SWAP2 PUSH2 0x506 JUMP JUMPDEST DUP3 ADD SWAP2 SWAP1 PUSH0 MSTORE PUSH1 0x20 PUSH0 KECCAK256 SWAP1 JUMPDEST DUP2 SLOAD DUP2 MSTORE SWAP1 PUSH1 0x1 ADD SWAP1 PUSH1 0x20 ADD DUP1 DUP4 GT PUSH2 0x4E9 JUMPI DUP3 SWAP1 SUB PUSH1 0x1F AND DUP3 ADD SWAP2 JUMPDEST POP POP POP POP POP DUP2 MSTORE PUSH1 0x20 ADD PUSH1 0x2 DUP3 ADD DUP1 SLOAD PUSH2 0x51F SWAP1 PUSH2 0xB94 JUMP JUMPDEST DUP1 PUSH1 0x1F ADD PUSH1 0x20 DUP1 SWAP2 DIV MUL PUSH1 0x20 ADD PUSH1 0x40 MLOAD SWAP1 DUP2 ADD PUSH1 0x40 MSTORE DUP1 SWAP3 SWAP2 SWAP1 DUP2 DUP2 MSTORE PUSH1 0x20 ADD DUP3 DUP1 SLOAD PUSH2 0x54B SWAP1 PUSH2 0xB94 JUMP JUMPDEST DUP1 ISZERO PUSH2 0x596 JUMPI DUP1 PUSH1 0x1F LT PUSH2 0x56D JUMPI PUSH2 0x100 DUP1 DUP4 SLOAD DIV MUL DUP4 MSTORE SWAP2 PUSH1 0x20 ADD SWAP2 PUSH2 0x596 JUMP JUMPDEST DUP3 ADD SWAP2 SWAP1 PUSH0 MSTORE PUSH1 0x20 PUSH0 KECCAK256 SWAP1 JUMPDEST DUP2 SLOAD DUP2 MSTORE SWAP1 PUSH1 0x1 ADD SWAP1 PUSH1 0x20 ADD DUP1 DUP4 GT PUSH2 0x579 JUMPI DUP3 SWAP1 SUB PUSH1 0x1F AND DUP3 ADD SWAP2 JUMPDEST POP POP POP POP POP DUP2 MSTORE PUSH1 0x20 ADD PUSH1 0x3 DUP3 ADD PUSH0 SWAP1 SLOAD SWAP1 PUSH2 0x100 EXP SWAP1 DIV PUSH1 0xFF AND ISZERO ISZERO ISZERO ISZERO DUP2 MSTORE PUSH1 0x20 ADD PUSH1 0x4 DUP3 ADD SLOAD DUP2 MSTORE POP POP SWAP1 POP PUSH0 DUP2 PUSH0 ADD MLOAD GT PUSH2 0x60A JUMPI PUSH1 0x40 MLOAD PUSH32 0x8C379A000000000000000000000000000000000000000000000000000000000 DUP2 MSTORE PUSH1 0x4 ADD PUSH2 0x601 SWAP1 PUSH2 0xEEE JUMP JUMPDEST PUSH1 0x40 MLOAD DUP1 SWAP2 SUB SWAP1 REVERT JUMPDEST DUP1 PUSH1 0x60 ADD MLOAD ISZERO DUP1 PUSH2 0x661 JUMPI POP PUSH1 0x1 PUSH0 CALLER PUSH20 0xFFFFFFFFFFFFFFFFFFFFFFFFFFFFFFFFFFFFFFFF AND PUSH20 0xFFFFFFFFFFFFFFFFFFFFFFFFFFFFFFFFFFFFFFFF AND DUP2 MSTORE PUSH1 0x20 ADD SWAP1 DUP2 MSTORE PUSH1 0x20 ADD PUSH0 KECCAK256 PUSH0 SWAP1 SLOAD SWAP1 PUSH2 0x100 EXP SWAP1 DIV PUSH1 0xFF AND JUMPDEST ISZERO PUSH2 0x67A JUMPI DUP1 PUSH1 0x20 ADD MLOAD DUP2 PUSH1 0x40 ADD MLOAD SWAP3 POP SWAP3 POP POP PUSH2 0x6B5 JUMP JUMPDEST PUSH1 0x40 MLOAD PUSH32 0x8C379A000000000000000000000000000000000000000000000000000000000 DUP2 MSTORE PUSH1 0x4 ADD PUSH2 0x6AC SWAP1 PUSH2 0xF56 JUMP JUMPDEST PUSH1 0x40 MLOAD DUP1 SWAP2 SUB SWAP1 REVERT JUMPDEST SWAP2 POP SWAP2 JUMP JUMPDEST PUSH0 PUSH1 0x40 MLOAD SWAP1 POP SWAP1 JUMP JUMPDEST PUSH0 DUP1 REVERT JUMPDEST PUSH0 DUP1 REVERT JUMPDEST PUSH0 DUP1 REVERT JUMPDEST PUSH0 DUP1 REVERT JUMPDEST PUSH0 PUSH1 0x1F NOT PUSH1 0x1F DUP4 ADD AND SWAP1 POP SWAP2 SWAP1 POP JUMP JUMPDEST PUSH32 0x4E487B7100000000000000000000000000000000000000000000000000000000 PUSH0 MSTORE PUSH1 0x41 PUSH1 0x4 MSTORE PUSH1 0x24 PUSH0 REVERT JUMPDEST PUSH2 0x719 DUP3 PUSH2 0x6D3 JUMP JUMPDEST DUP2 ADD DUP2 DUP2 LT PUSH8 0xFFFFFFFFFFFFFFFF DUP3 GT OR ISZERO PUSH2 0x738 JUMPI PUSH2 0x737 PUSH2 0x6E3 JUMP JUMPDEST JUMPDEST DUP1 PUSH1 0x40 MSTORE POP POP POP JUMP JUMPDEST PUSH0 PUSH2 0x74A PUSH2 0x6BA JUMP JUMPDEST SWAP1 POP PUSH2 0x756 DUP3 DUP3 PUSH2 0x710 JUMP JUMPDEST SWAP2 SWAP1 POP JUMP JUMPDEST PUSH0 PUSH8 0xFFFFFFFFFFFFFFFF DUP3 GT ISZERO PUSH2 0x775 JUMPI PUSH2 0x774 PUSH2 0x6E3 JUMP JUMPDEST JUMPDEST PUSH2 0x77E DUP3 PUSH2 0x6D3 JUMP JUMPDEST SWAP1 POP PUSH1 0x20 DUP2 ADD SWAP1 POP SWAP2 SWAP1 POP JUMP JUMPDEST DUP3 DUP2 DUP4 CALLDATACOPY PUSH0 DUP4 DUP4 ADD MSTORE POP POP POP JUMP JUMPDEST PUSH0 PUSH2 0x7AB PUSH2 0x7A6 DUP5 PUSH2 0x75B JUMP JUMPDEST PUSH2 0x741 JUMP JUMPDEST SWAP1 POP DUP3 DUP2 MSTORE PUSH1 0x20 DUP2 ADD DUP5 DUP5 DUP5 ADD GT ISZERO PUSH2 0x7C7 JUMPI PUSH2 0x7C6 PUSH2 0x6CF JUMP JUMPDEST JUMPDEST PUSH2 0x7D2 DUP5 DUP3 DUP6 PUSH2 0x78B JUMP JUMPDEST POP SWAP4 SWAP3 POP POP POP JUMP JUMPDEST PUSH0 DUP3 PUSH1 0x1F DUP4 ADD SLT PUSH2 0x7EE JUMPI PUSH2 0x7ED PUSH2 0x6CB JUMP JUMPDEST JUMPDEST DUP2 CALLDATALOAD PUSH2 0x7FE DUP5 DUP3 PUSH1 0x20 DUP7 ADD PUSH2 0x799 JUMP JUMPDEST SWAP2 POP POP SWAP3 SWAP2 POP POP JUMP JUMPDEST PUSH0 DUP2 ISZERO ISZERO SWAP1 POP SWAP2 SWAP1 POP JUMP JUMPDEST PUSH2 0x81B DUP2 PUSH2 0x807 JUMP JUMPDEST DUP2 EQ PUSH2 0x825 JUMPI PUSH0 DUP1 REVERT JUMPDEST POP JUMP JUMPDEST PUSH0 DUP2 CALLDATALOAD SWAP1 POP PUSH2 0x836 DUP2 PUSH2 0x812 JUMP JUMPDEST SWAP3 SWAP2 POP POP JUMP JUMPDEST PUSH0 DUP2 SWAP1 POP SWAP2 SWAP1 POP JUMP JUMPDEST PUSH2 0x84E DUP2 PUSH2 0x83C JUMP JUMPDEST DUP2 EQ PUSH2 0x858 JUMPI PUSH0 DUP1 REVERT JUMPDEST POP JUMP JUMPDEST PUSH0 DUP2 CALLDATALOAD SWAP1 POP PUSH2 0x869 DUP2 PUSH2 0x845 JUMP JUMPDEST SWAP3 SWAP2 POP POP JUMP JUMPDEST PUSH0 DUP1 PUSH0 DUP1 PUSH1 0x80 DUP6 DUP8 SUB SLT ISZERO PUSH2 0x887 JUMPI PUSH2 0x886 PUSH2 0x6C3 JUMP JUMPDEST JUMPDEST PUSH0 DUP6 ADD CALLDATALOAD PUSH8 0xFFFFFFFFFFFFFFFF DUP2 GT ISZERO PUSH2 0x8A4 JUMPI PUSH2 0x8A3 PUSH2 0x6C7 JUMP JUMPDEST JUMPDEST PUSH2 0x8B0 DUP8 DUP3 DUP9 ADD PUSH2 0x7DA JUMP JUMPDEST SWAP5 POP POP PUSH1 0x20 DUP6 ADD CALLDATALOAD PUSH8 0xFFFFFFFFFFFFFFFF DUP2 GT ISZERO PUSH2 0x8D1 JUMPI PUSH2 0x8D0 PUSH2 0x6C7 JUMP JUMPDEST JUMPDEST PUSH2 0x8DD DUP8 DUP3 DUP9 ADD PUSH2 0x7DA JUMP JUMPDEST SWAP4 POP POP PUSH1 0x40 PUSH2 0x8EE DUP8 DUP3 DUP9 ADD PUSH2 0x828 JUMP JUMPDEST SWAP3 POP POP PUSH1 0x60 PUSH2 0x8FF DUP8 DUP3 DUP9 ADD PUSH2 0x85B JUMP JUMPDEST SWAP2 POP POP SWAP3 SWAP6 SWAP2 SWAP5 POP SWAP3 POP JUMP JUMPDEST PUSH0 PUSH1 0x20 DUP3 DUP5 SUB SLT ISZERO PUSH2 0x920 JUMPI PUSH2 0x91F PUSH2 0x6C3 JUMP JUMPDEST JUMPDEST PUSH0 PUSH2 0x92D DUP5 DUP3 DUP6 ADD PUSH2 0x85B JUMP JUMPDEST SWAP2 POP POP SWAP3 SWAP2 POP POP JUMP JUMPDEST PUSH2 0x93F DUP2 PUSH2 0x83C JUMP JUMPDEST DUP3 MSTORE POP POP JUMP JUMPDEST PUSH0 DUP2 MLOAD SWAP1 POP SWAP2 SWAP1 POP JUMP JUMPDEST PUSH0 DUP3 DUP3 MSTORE PUSH1 0x20 DUP3 ADD SWAP1 POP SWAP3 SWAP2 POP POP JUMP JUMPDEST DUP3 DUP2 DUP4 MCOPY PUSH0 DUP4 DUP4 ADD MSTORE POP POP POP JUMP JUMPDEST PUSH0 PUSH2 0x977 DUP3 PUSH2 0x945 JUMP JUMPDEST PUSH2 0x981 DUP2 DUP6 PUSH2 0x94F JUMP JUMPDEST SWAP4 POP PUSH2 0x991 DUP2 DUP6 PUSH1 0x20 DUP7 ADD PUSH2 0x95F JUMP JUMPDEST PUSH2 0x99A DUP2 PUSH2 0x6D3 JUMP JUMPDEST DUP5 ADD SWAP2 POP POP SWAP3 SWAP2 POP POP JUMP JUMPDEST PUSH2 0x9AE DUP2 PUSH2 0x807 JUMP JUMPDEST DUP3 MSTORE POP POP JUMP JUMPDEST PUSH0 PUSH1 0xA0 DUP3 ADD SWAP1 POP PUSH2 0x9C7 PUSH0 DUP4 ADD DUP9 PUSH2 0x936 JUMP JUMPDEST DUP2 DUP2 SUB PUSH1 0x20 DUP4 ADD MSTORE PUSH2 0x9D9 DUP2 DUP8 PUSH2 0x96D JUMP JUMPDEST SWAP1 POP DUP2 DUP2 SUB PUSH1 0x40 DUP4 ADD MSTORE PUSH2 0x9ED DUP2 DUP7 PUSH2 0x96D JUMP JUMPDEST SWAP1 POP PUSH2 0x9FC PUSH1 0x60 DUP4 ADD DUP6 PUSH2 0x9A5 JUMP JUMPDEST PUSH2 0xA09 PUSH1 0x80 DUP4 ADD DUP5 PUSH2 0x936 JUMP JUMPDEST SWAP7 SWAP6 POP POP POP POP POP POP JUMP JUMPDEST PUSH0 PUSH1 0x20 DUP3 ADD SWAP1 POP PUSH2 0xA26 PUSH0 DUP4 ADD DUP5 PUSH2 0x936 JUMP JUMPDEST SWAP3 SWAP2 POP POP JUMP JUMPDEST PUSH0 PUSH20 0xFFFFFFFFFFFFFFFFFFFFFFFFFFFFFFFFFFFFFFFF DUP3 AND SWAP1 POP SWAP2 SWAP1 POP JUMP JUMPDEST PUSH0 PUSH2 0xA55 DUP3 PUSH2 0xA2C JUMP JUMPDEST SWAP1 POP SWAP2 SWAP1 POP JUMP JUMPDEST PUSH2 0xA65 DUP2 PUSH2 0xA4B JUMP JUMPDEST DUP2 EQ PUSH2 0xA6F JUMPI PUSH0 DUP1 REVERT JUMPDEST POP JUMP JUMPDEST PUSH0 DUP2 CALLDATALOAD SWAP1 POP PUSH2 0xA80 DUP2 PUSH2 0xA5C JUMP JUMPDEST SWAP3 SWAP2 POP POP JUMP JUMPDEST PUSH0 PUSH1 0x20 DUP3 DUP5 SUB SLT ISZERO PUSH2 0xA9B JUMPI PUSH2 0xA9A PUSH2 0x6C3 JUMP JUMPDEST JUMPDEST PUSH0 PUSH2 0xAA8 DUP5 DUP3 DUP6 ADD PUSH2 0xA72 JUMP JUMPDEST SWAP2 POP POP SWAP3 SWAP2 POP POP JUMP JUMPDEST PUSH0 PUSH1 0x20 DUP3 ADD SWAP1 POP PUSH2 0xAC4 PUSH0 DUP4 ADD DUP5 PUSH2 0x9A5 JUMP JUMPDEST SWAP3 SWAP2 POP POP JUMP JUMPDEST PUSH0 PUSH1 0x40 DUP3 ADD SWAP1 POP DUP2 DUP2 SUB PUSH0 DUP4 ADD MSTORE PUSH2 0xAE2 DUP2 DUP6 PUSH2 0x96D JUMP JUMPDEST SWAP1 POP DUP2 DUP2 SUB PUSH1 0x20 DUP4 ADD MSTORE PUSH2 0xAF6 DUP2 DUP5 PUSH2 0x96D JUMP JUMPDEST SWAP1 POP SWAP4 SWAP3 POP POP POP JUMP JUMPDEST PUSH32 0x4F6E6C79206F776E65722063616E2061646420626F6F6B730000000000000000 PUSH0 DUP3 ADD MSTORE POP JUMP JUMPDEST PUSH0 PUSH2 0xB33 PUSH1 0x18 DUP4 PUSH2 0x94F JUMP JUMPDEST SWAP2 POP PUSH2 0xB3E DUP3 PUSH2 0xAFF JUMP JUMPDEST PUSH1 0x20 DUP3 ADD SWAP1 POP SWAP2 SWAP1 POP JUMP JUMPDEST PUSH0 PUSH1 0x20 DUP3 ADD SWAP1 POP DUP2 DUP2 SUB PUSH0 DUP4 ADD MSTORE PUSH2 0xB60 DUP2 PUSH2 0xB27 JUMP JUMPDEST SWAP1 POP SWAP2 SWAP1 POP JUMP JUMPDEST PUSH32 0x4E487B7100000000000000000000000000000000000000000000000000000000 PUSH0 MSTORE PUSH1 0x22 PUSH1 0x4 MSTORE PUSH1 0x24 PUSH0 REVERT JUMPDEST PUSH0 PUSH1 0x2 DUP3 DIV SWAP1 POP PUSH1 0x1 DUP3 AND DUP1 PUSH2 0xBAB JUMPI PUSH1 0x7F DUP3 AND SWAP2 POP JUMPDEST PUSH1 0x20 DUP3 LT DUP2 SUB PUSH2 0xBBE JUMPI PUSH2 0xBBD PUSH2 0xB67 JUMP JUMPDEST JUMPDEST POP SWAP2 SWAP1 POP JUMP JUMPDEST PUSH0 DUP2 SWAP1 POP DUP2 PUSH0 MSTORE PUSH1 0x20 PUSH0 KECCAK256 SWAP1 POP SWAP2 SWAP1 POP JUMP JUMPDEST PUSH0 PUSH1 0x20 PUSH1 0x1F DUP4 ADD DIV SWAP1 POP SWAP2 SWAP1 POP JUMP JUMPDEST PUSH0 DUP3 DUP3 SHL SWAP1 POP SWAP3 SWAP2 POP POP JUMP JUMPDEST PUSH0 PUSH1 0x8 DUP4 MUL PUSH2 0xC20 PUSH32 0xFFFFFFFFFFFFFFFFFFFFFFFFFFFFFFFFFFFFFFFFFFFFFFFFFFFFFFFFFFFFFFFF DUP3 PUSH2 0xBE5 JUMP JUMPDEST PUSH2 0xC2A DUP7 DUP4 PUSH2 0xBE5 JUMP JUMPDEST SWAP6 POP DUP1 NOT DUP5 AND SWAP4 POP DUP1 DUP7 AND DUP5 OR SWAP3 POP POP POP SWAP4 SWAP3 POP POP POP JUMP JUMPDEST PUSH0 DUP2 SWAP1 POP SWAP2 SWAP1 POP JUMP JUMPDEST PUSH0 PUSH2 0xC65 PUSH2 0xC60 PUSH2 0xC5B DUP5 PUSH2 0x83C JUMP JUMPDEST PUSH2 0xC42 JUMP JUMPDEST PUSH2 0x83C JUMP JUMPDEST SWAP1 POP SWAP2 SWAP1 POP JUMP JUMPDEST PUSH0 DUP2 SWAP1 POP SWAP2 SWAP1 POP JUMP JUMPDEST PUSH2 0xC7E DUP4 PUSH2 0xC4B JUMP JUMPDEST PUSH2 0xC92 PUSH2 0xC8A DUP3 PUSH2 0xC6C JUMP JUMPDEST DUP5 DUP5 SLOAD PUSH2 0xBF1 JUMP JUMPDEST DUP3 SSTORE POP POP POP POP JUMP JUMPDEST PUSH0 SWAP1 JUMP JUMPDEST PUSH2 0xCA6 PUSH2 0xC9A JUMP JUMPDEST PUSH2 0xCB1 DUP2 DUP5 DUP5 PUSH2 0xC75 JUMP JUMPDEST POP POP POP JUMP JUMPDEST JUMPDEST DUP2 DUP2 LT ISZERO PUSH2 0xCD4 JUMPI PUSH2 0xCC9 PUSH0 DUP3 PUSH2 0xC9E JUMP JUMPDEST PUSH1 0x1 DUP2 ADD SWAP1 POP PUSH2 0xCB7 JUMP JUMPDEST POP POP JUMP JUMPDEST PUSH1 0x1F DUP3 GT ISZERO PUSH2 0xD19 JUMPI PUSH2 0xCEA DUP2 PUSH2 0xBC4 JUMP JUMPDEST PUSH2 0xCF3 DUP5 PUSH2 0xBD6 JUMP JUMPDEST DUP2 ADD PUSH1 0x20 DUP6 LT ISZERO PUSH2 0xD02 JUMPI DUP2 SWAP1 POP JUMPDEST PUSH2 0xD16 PUSH2 0xD0E DUP6 PUSH2 0xBD6 JUMP JUMPDEST DUP4 ADD DUP3 PUSH2 0xCB6 JUMP JUMPDEST POP POP JUMPDEST POP POP POP JUMP JUMPDEST PUSH0 DUP3 DUP3 SHR SWAP1 POP SWAP3 SWAP2 POP POP JUMP JUMPDEST PUSH0 PUSH2 0xD39 PUSH0 NOT DUP5 PUSH1 0x8 MUL PUSH2 0xD1E JUMP JUMPDEST NOT DUP1 DUP4 AND SWAP2 POP POP SWAP3 SWAP2 POP POP JUMP JUMPDEST PUSH0 PUSH2 0xD51 DUP4 DUP4 PUSH2 0xD2A JUMP JUMPDEST SWAP2 POP DUP3 PUSH1 0x2 MUL DUP3 OR SWAP1 POP SWAP3 SWAP2 POP POP JUMP JUMPDEST PUSH2 0xD6A DUP3 PUSH2 0x945 JUMP JUMPDEST PUSH8 0xFFFFFFFFFFFFFFFF DUP2 GT ISZERO PUSH2 0xD83 JUMPI PUSH2 0xD82 PUSH2 0x6E3 JUMP JUMPDEST JUMPDEST PUSH2 0xD8D DUP3 SLOAD PUSH2 0xB94 JUMP JUMPDEST PUSH2 0xD98 DUP3 DUP3 DUP6 PUSH2 0xCD8 JUMP JUMPDEST PUSH0 PUSH1 0x20 SWAP1 POP PUSH1 0x1F DUP4 GT PUSH1 0x1 DUP2 EQ PUSH2 0xDC9 JUMPI PUSH0 DUP5 ISZERO PUSH2 0xDB7 JUMPI DUP3 DUP8 ADD MLOAD SWAP1 POP JUMPDEST PUSH2 0xDC1 DUP6 DUP3 PUSH2 0xD46 JUMP JUMPDEST DUP7 SSTORE POP PUSH2 0xE28 JUMP JUMPDEST PUSH1 0x1F NOT DUP5 AND PUSH2 0xDD7 DUP7 PUSH2 0xBC4 JUMP JUMPDEST PUSH0 JUMPDEST DUP3 DUP2 LT ISZERO PUSH2 0xDFE JUMPI DUP5 DUP10 ADD MLOAD DUP3 SSTORE PUSH1 0x1 DUP3 ADD SWAP2 POP PUSH1 0x20 DUP6 ADD SWAP5 POP PUSH1 0x20 DUP2 ADD SWAP1 POP PUSH2 0xDD9 JUMP JUMPDEST DUP7 DUP4 LT ISZERO PUSH2 0xE1B JUMPI DUP5 DUP10 ADD MLOAD PUSH2 0xE17 PUSH1 0x1F DUP10 AND DUP3 PUSH2 0xD2A JUMP JUMPDEST DUP4 SSTORE POP JUMPDEST PUSH1 0x1 PUSH1 0x2 DUP9 MUL ADD DUP9 SSTORE POP POP POP JUMPDEST POP POP POP POP POP POP JUMP JUMPDEST PUSH32 0x4E487B7100000000000000000000000000000000000000000000000000000000 PUSH0 MSTORE PUSH1 0x11 PUSH1 0x4 MSTORE PUSH1 0x24 PUSH0 REVERT JUMPDEST PUSH0 PUSH2 0xE67 DUP3 PUSH2 0x83C JUMP JUMPDEST SWAP2 POP PUSH32 0xFFFFFFFFFFFFFFFFFFFFFFFFFFFFFFFFFFFFFFFFFFFFFFFFFFFFFFFFFFFFFFFF DUP3 SUB PUSH2 0xE99 JUMPI PUSH2 0xE98 PUSH2 0xE30 JUMP JUMPDEST JUMPDEST PUSH1 0x1 DUP3 ADD SWAP1 POP SWAP2 SWAP1 POP JUMP JUMPDEST PUSH32 0x426F6F6B206E6F7420666F756E64000000000000000000000000000000000000 PUSH0 DUP3 ADD MSTORE POP JUMP JUMPDEST PUSH0 PUSH2 0xED8 PUSH1 0xE DUP4 PUSH2 0x94F JUMP JUMPDEST SWAP2 POP PUSH2 0xEE3 DUP3 PUSH2 0xEA4 JUMP JUMPDEST PUSH1 0x20 DUP3 ADD SWAP1 POP SWAP2 SWAP1 POP JUMP JUMPDEST PUSH0 PUSH1 0x20 DUP3 ADD SWAP1 POP DUP2 DUP2 SUB PUSH0 DUP4 ADD MSTORE PUSH2 0xF05 DUP2 PUSH2 0xECC JUMP JUMPDEST SWAP1 POP SWAP2 SWAP1 POP JUMP JUMPDEST PUSH32 0x5072656D69756D20706C616E2072657175697265640000000000000000000000 PUSH0 DUP3 ADD MSTORE POP JUMP JUMPDEST PUSH0 PUSH2 0xF40 PUSH1 0x15 DUP4 PUSH2 0x94F JUMP JUMPDEST SWAP2 POP PUSH2 0xF4B DUP3 PUSH2 0xF0C JUMP JUMPDEST PUSH1 0x20 DUP3 ADD SWAP1 POP SWAP2 SWAP1 POP JUMP JUMPDEST PUSH0 PUSH1 0x20 DUP3 ADD SWAP1 POP DUP2 DUP2 SUB PUSH0 DUP4 ADD MSTORE PUSH2 0xF6D DUP2 PUSH2 0xF34 JUMP JUMPDEST SWAP1 POP SWAP2 SWAP1 POP JUMP INVALID LOG2 PUSH5 0x6970667358 0x22 SLT KECCAK256 INVALID BLOBHASH MULMOD SWAP12 0xFC DUP9 GASPRICE 0xE8 OR PUSH10 0xBD63F7079A5195C9DDF7 PUSH28 0x5BF5ADBEAB7DDE8102859564736F6C63430008190033000000000000 "
				},
				"gasEstimates": {
					"creation": {
						"codeDepositCost": "802000",
						"executionCost": "22950",
						"totalCost": "824950"
					},
					"external": {
						"addBook(string,string,bool,uint256)": "infinite",
						"books(uint256)": "infinite",
						"buyPremiumPlan()": "24450",
						"getBook(uint256)": "infinite",
						"isActive(address)": "2899",
						"nextBookId()": "2469"
					}
				},
				"methodIdentifiers": {
					"addBook(string,string,bool,uint256)": "599ebf08",
					"books(uint256)": "68744046",
					"buyPremiumPlan()": "08a5302b",
					"getBook(uint256)": "e0ff5b8b",
					"isActive(address)": "9f8a13d7",
					"nextBookId()": "7cf52d96"
				}
			},
			"storageLayout": {
				"storage": [
					{
						"astId": 17,
						"contract": "contracts/HelloWorld.sol:Bookstore",
						"label": "books",
						"offset": 0,
						"slot": "0",
						"type": "t_mapping(t_uint256,t_struct(Book)12_storage)"
					},
					{
						"astId": 21,
						"contract": "contracts/HelloWorld.sol:Bookstore",
						"label": "isActive",
						"offset": 0,
						"slot": "1",
						"type": "t_mapping(t_address,t_bool)"
					},
					{
						"astId": 23,
						"contract": "contracts/HelloWorld.sol:Bookstore",
						"label": "nextBookId",
						"offset": 0,
						"slot": "2",
						"type": "t_uint256"
					}
				],
				"types": {
					"t_address": {
						"encoding": "inplace",
						"label": "address",
						"numberOfBytes": "20"
					},
					"t_bool": {
						"encoding": "inplace",
						"label": "bool",
						"numberOfBytes": "1"
					},
					"t_mapping(t_address,t_bool)": {
						"encoding": "mapping",
						"key": "t_address",
						"label": "mapping(address => bool)",
						"numberOfBytes": "32",
						"value": "t_bool"
					},
					"t_mapping(t_uint256,t_struct(Book)12_storage)": {
						"encoding": "mapping",
						"key": "t_uint256",
						"label": "mapping(uint256 => struct Bookstore.Book)",
						"numberOfBytes": "32",
						"value": "t_struct(Book)12_storage"
					},
					"t_string_storage": {
						"encoding": "bytes",
						"label": "string",
						"numberOfBytes": "32"
					},
					"t_struct(Book)12_storage": {
						"encoding": "inplace",
						"label": "struct Bookstore.Book",
						"members": [
							{
								"astId": 3,
								"contract": "contracts/HelloWorld.sol:Bookstore",
								"label": "bookId",
								"offset": 0,
								"slot": "0",
								"type": "t_uint256"
							},
							{
								"astId": 5,
								"contract": "contracts/HelloWorld.sol:Bookstore",
								"label": "title",
								"offset": 0,
								"slot": "1",
								"type": "t_string_storage"
							},
							{
								"astId": 7,
								"contract": "contracts/HelloWorld.sol:Bookstore",
								"label": "author",
								"offset": 0,
								"slot": "2",
								"type": "t_string_storage"
							},
							{
								"astId": 9,
								"contract": "contracts/HelloWorld.sol:Bookstore",
								"label": "isPremium",
								"offset": 0,
								"slot": "3",
								"type": "t_bool"
							},
							{
								"astId": 11,
								"contract": "contracts/HelloWorld.sol:Bookstore",
								"label": "price",
								"offset": 0,
								"slot": "4",
								"type": "t_uint256"
							}
						],
						"numberOfBytes": "160"
					},
					"t_uint256": {
						"encoding": "inplace",
						"label": "uint256",
						"numberOfBytes": "32"
					}
				}
			},
			"userdoc": {
				"kind": "user",
				"methods": {},
				"version": 1
			}
		}
	}
}